:020000040800F2
:1000000000C0012075170008090800080F08000843
:10001000150800081B08000821080008000000005F
:100020000000000000000000000000002708000899
:1000300035080008000000004308000851080008C7
:10004000C5170008C5170008C5170008C517000820
:10005000C5170008C5170008C5170008C517000810
:10006000C5170008C5170008C5170008C517000800
:10007000C5170008C5170008C5170008C5170008F0
:10008000C5170008C5170008C5170008C5170008E0
:10009000C5170008C5170008C5170008C5170008D0
:1000A000C5170008C5170008C5170008C5170008C0
:1000B000C5170008C5170008C5170008C5170008B0
:1000C000C5170008C5170008C5170008C5170008A0
:1000D000C5170008C5170008C5170008C517000890
:1000E000C5170008C5170008C5170008C517000880
:1000F000C5170008C5170008C5170008C517000870
:10010000C5170008C5170008C5170008C51700085F
:10011000C5170008C5170008C5170008C51700084F
:10012000C5170008C5170008C5170008C51700083F
:10013000C5170008C5170008C5170008C51700082F
:10014000C5170008C5170008C5170008C51700081F
:10015000C5170008C5170008C5170008C51700080F
:10016000C5170008C5170008C5170008C5170008FF
:10017000C5170008C5170008C517000800000000D3
:08018000C5170008C5170008AF
:1001880010B5054C237833B9044B13B10448AFF3C9
:1001980000800123237010BD0C0000200000000027
:1001A8002018000808B5034B1BB103490348AFF3F7
:1001B800008008BD00000000100000202018000882
:1001C80053B94AB9002908BF00281CBF4FF0FF31B6
:1001D8004FF0FF3000F07AB9ADF1080C6DE904CEAC
:1001E80000F006F8DDF804E0DDE9022304B070470A
:1001F8002DE9F0478C460D460446089E002B51D148
:100208008A4217466DD9B2FA82FEBEF1000F0BD0B2
:10021800CEF1200C01FA0EF520FA0CFC02FA0EF7CA
:100228004CEA050C00FA0EF44FEA174A250CBCFB01
:10023800FAF81FFA87F90AFB18CC45EA0C4508FBBF
:1002480009F3AB420AD9ED1908F1FF3280F0238196
:10025800AB4240F22081A8F102083D44ED1AA4B255
:10026800B5FBFAF00AFB105544EA054400FB09F90E
:10027800A14509D9E41900F1FF3380F00A81A145AD
:1002880040F2078102383C44A4EB090440EA0840E4
:100298000021002E61D024FA0EF40023346073602C
:1002A800BDE8F0878B4207D9002E54D0002186E89C
:1002B80021000846BDE8F087B3FA83F1002940F031
:1002C8008E80AB4202D3824200F2FA80841A65EB38
:1002D80003050120AC46002E3FD086E81010BDE88B
:1002E800F08712B90127B7FBF2F7B7FA87FEBEF11C
:1002F800000F34D1EB1B3A0C1FFA87FC0121B3FB2A
:10030800F2F8250C02FB183345EA03450CFB08F309
:10031800AB4207D9ED1908F1FF3002D2AB4200F227
:10032800D1808046ED1AA3B2B5FBF2F002FB10555E
:1003380043EA05440CFB00FCA44507D9E41900F185
:10034800FF3302D2A44500F2B8801846A4EB0C048F
:1003580040EA08409DE731463046BDE8F087CEF1D7
:10036800200405FA0EF307FA0EF720FA04F83A0CFF
:1003780025FA04F448EA0308B4FBF2F14FEA1845F9
:1003880002FB11441FFA87FC45EA044501FB0CF304
:10039800AB4200FA0EF409D9ED1901F1FF3080F0F3
:1003A8008A80AB4240F2878002393D44EB1A1FFA3B
:1003B80088F5B3FBF2F002FB103345EA034500FB76
:1003C8000CF3AB4207D9ED1900F1FF386FD2AB42FD
:1003D8006DD902383D44EB1A40EA01418FE7C1F17B
:1003E800200722FA07F88B4005FA01F448EA0303CC
:1003F80020FA07FE4FEA134CFD404EEA040EB5FB07
:10040800FCF94FEA1E440CFB19551FFA83F844EA1D
:10041800054509FB08F4AC4202FA01F200FA01FAB8
:1004280008D9ED1809F1FF3043D2AC4241D9A9F1FE
:1004380002091D442D1B1FFA8EFEB5FBFCF00CFBB8
:1004480010554EEA054400FB08F8A04507D9E41802
:1004580000F1FF3529D2A04527D902381C4440EACB
:100468000940A4EB0804A0FB02894C45C6464D464A
:1004780015D312D056B1BAEB0E0364EB050404FA97
:1004880007F7CB401F43CC40376074600021BDE8BC
:10049800F0871846F8E69046E0E6C245EAD2B8EB9F
:1004A800020E69EB03050138E4E72846D7E7404622
:1004B80091E78146BEE7014678E702383C4445E7C4
:1004C800084608E7A8F102083D442BE7704700BF3B
:1004D80080B400AF0C4BDB6803F08073002B0ED1A7
:1004E800094A094BDB6843F08073D360074B00224D
:1004F8005A60064A054B1B6843F00103136000BFAE
:10050800BD465DF8047B7047F0ED00E0001000E0A8
:1005180080B485B000AF78600D4B5B68FB600D4B15
:100528001B680D4AA2FB03239B0C7A6802FB03F3AA
:10053800BB6000BF064B5A68FB68D21ABB689A4278
:10054800F8D300BF1437BD465DF8047B704700BF81
:10055800001000E00000002083DE1B4380B582B05D
:1005680000AF012202210F4800F0B0FC0A20FFF77B
:10057800CFFF002202210B4800F0A8FC05E07B68B1
:1005880001337B600120FFF7C3FF0421054800F019
:1005980085FC0346002BF2D07B6818460837BD4619
:1005A80080BD00BF0000024080B500AF00F064F9D4
:1005B80000F01CF800F084F8FFF78AFFFFF7CEFF81
:1005C8000246074B1A60064B1B68064AA2FB032328
:1005D8005B09DAB2044B1A70C82000F0BFF9EDE7E6
:1005E8002C00002009CB3D8D2800002080B594B058
:1005F80000AF07F1200330220021184601F004F96A
:1006080007F10C0300221A605A609A60DA601A61D6
:100618000023BB60284A284B1B6C43F080531364AB
:10062800254B1B6C03F08053BB60BB6800237B60C9
:10063800224A224B1B6843F4804313601F4B1B68FC
:1006480003F480437B607B6801233B624FF4803373
:100658007B620223BB634FF48003FB6304233B6488
:10066800A8237B640223BB640423FB6407F12003F3
:10067800184600F045FC0346002B01D000F094F822
:100688000F23FB6002233B6100237B614FF4A053DF
:10069800BB614FF48053FB6107F10C030521184639
:1006A80000F0A6FE0346002B01D000F07DF800BF45
:1006B8005037BD4680BD00BF003802400070004082
:1006C80080B588B000AF07F10C0300221A605A60A9
:1006D8009A60DA601A610023BB60304A2F4B1B6BAB
:1006E80043F0800313632D4B1B6B03F08003BB6047
:1006F800BB6800237B60294A284B1B6B43F001032E
:100708001363264B1B6B03F001037B607B6800239C
:100718003B60224A214B1B6B43F0080313631F4BBA
:100728001B6B03F008033B603B68002202211C4856
:1007380000F0CCFB00224FF470411A4800F0C6FBD1
:100748000223FB6001233B6100237B610023BB6123
:1007580007F10C031946124800F006FA0423FB605F
:1007680000233B6100237B6107F10C0319460C4809
:1007780000F0FAF94FF47043FB6001233B6100235A
:100788007B610023BB6107F10C031946054800F0A3
:10079800EBF900BF2037BD4680BD00BF00380240DE
:1007A80000000240000C024080B400AF72B6FEE7C1
:1007B80080B483B000AF00237B60104A0F4B5B6CA2
:1007C80043F4804353640D4B5B6C03F480437B60BC
:1007D8007B6800233B60094A084B1B6C43F080533D
:1007E8001364064B1B6C03F080533B603B6800BFEF
:1007F8000C37BD465DF8047B704700BF00380240E7
:1008080080B400AFFEE780B400AFFEE780B400AF6D
:10081800FEE780B400AFFEE780B400AFFEE780B427
:1008280000AF00BFBD465DF8047B704780B400AFE1
:1008380000BFBD465DF8047B704780B400AF00BFC1
:10084800BD465DF8047B704780B500AF00F066F8E0
:1008580000BF80BD80B400AF064A064BD3F888308D
:1008680043F47003C2F8883000BFBD465DF8047BCE
:10087800704700BF00ED00E080B500AF0E4A0E4B98
:100888001B6843F4007313600B4A0B4B1B6843F45B
:1008980080631360084A084B1B6843F48073136035
:1008A800032000F02DF90F2000F008F8FFF780FF73
:1008B8000023184680BD00BF003C024080B582B0CE
:1008C80000AF7860124B1A68124B1B7819464FF428
:1008D8007A73B3FBF1F3B2FBF3F3184600F037F980
:1008E8000346002B01D001230EE07B680F2B0AD8AA
:1008F800002279684FF0FF3000F00DF9064A7B6856
:100908001360002300E0012318460837BD4680BD68
:1009180000000020080000200400002080B400AF80
:10092800064B1B781A46064B1B681344044A13608F
:1009380000BFBD465DF8047B704700BF080000207B
:100948003000002080B400AF034B1B681846BD463A
:100958005DF8047B704700BF3000002080B584B08C
:1009680000AF7860FFF7EEFFB8607B68FB60FB685C
:10097800B3F1FF3F05D0094B1B781A46FB681344B7
:10098800FB6000BFFFF7DEFF0246BB68D21AFB68B8
:100998009A42F7D300BF1037BD4680BD080000203B
:1009A80080B485B000AF78607B6803F00703FB6014
:1009B8000C4BDB68BB60BA684FF6FF031340BB60A3
:1009C800FB681A02BB68134343F0BF6343F4003368
:1009D800BB60044ABB68D36000BF1437BD465DF8EE
:1009E800047B704700ED00E080B400AF044BDB6887
:1009F8001B0A03F007031846BD465DF8047B7047E1
:100A080000ED00E080B483B000AF03463960FB71AD
:100A180097F90730002B0ADB0D4997F907303A6838
:100A2800D2B21201D2B20B4483F800230AE009497A
:100A3800FB7903F00F03043B3A68D2B21201D2B239
:100A48000B441A7600BF0C37BD465DF8047B70472F
:100A580000E100E000ED00E080B489B000AFF8608C
:100A6800B9607A60FB6803F00703FB61FB69C3F1B7
:100A78000703042B28BF0423BB61FB690433062B3F
:100A880002D9FB69033B00E000237B610122BB69BB
:100A980002FA03F35A1EBB681A407B699A40012187
:100AA8007B6901FA03F3591E7B680B401343184610
:100AB8002437BD465DF8047B7047000080B582B0DE
:100AC80000AF78607B68013BB3F1807F01D30123DD
:100AD8000FE00A4A7B68013B53600F214FF0FF305B
:100AE800FFF790FF054B00229A60044B07221A601B
:100AF800002318460837BD4680BD00BF10E000E05F
:100B080080B582B000AF78607868FFF749FF00BF12
:100B18000837BD4680BD80B586B000AF0346B960D2
:100B28007A60FB7300237B61FFF75EFF78617A6868
:100B3800B9687869FFF790FF024697F90F301146B8
:100B48001846FFF75FFF00BF1837BD4680BD80B568
:100B580082B000AF78607868FFF7B0FF03461846A8
:100B68000837BD4680BD000080B489B000AF78600A
:100B7800396000237B6100233B610023BB610023B4
:100B8800FB616BE10122FB6902FA03F37B613B68BD
:100B98001A687B6913403B613A697B699A4240F065
:100BA8005A813B685B6803F00303012B05D03B685F
:100BB8005B6803F00303022B30D17B689B68BB6141
:100BC800FB695B00032202FA03F3DB43BA691340B3
:100BD800BB613B68DA68FB695B0002FA03F3BA6938
:100BE8001343BB617B68BA699A607B685B68BB61C9
:100BF8000122FB6902FA03F3DB43BA691340BB61C4
:100C08003B685B681B0903F00102FB6902FA03F306
:100C1800BA691343BB617B68BA695A603B685B6811
:100C280003F00303032B17D07B68DB68BB61FB6908
:100C38005B00032202FA03F3DB43BA691340BB618A
:100C48003B689A68FB695B0002FA03F3BA691343CD
:100C5800BB617B68BA69DA603B685B6803F00303D1
:100C6800022B23D1FB69DA087B68083253F822305B
:100C7800BB61FB6903F007039B000F2202FA03F331
:100C8800DB43BA691340BB613B681A69FB6903F02F
:100C980007039B0002FA03F3BA691343BB61FB69BC
:100CA800DA087B680832B96943F822107B681B6848
:100CB800BB61FB695B00032202FA03F3DB43BA69F9
:100CC8001340BB613B685B6803F00302FB695B0090
:100CD80002FA03F3BA691343BB617B68BA691A6005
:100CE8003B685B6803F44033002B00F0B4800023BA
:100CF800FB605F4A5E4B5B6C43F4804353645C4B20
:100D08005B6C03F48043FB60FB685A4AFB699B08F1
:100D1800023352F82330BB61FB6903F003039B00E5
:100D28000F2202FA03F3DB43BA691340BB617B6805
:100D3800514A93422BD07B68504A934225D07B6816
:100D48004F4A93421FD07B684E4A934219D07B6822
:100D58004D4A934213D07B684C4A93420DD07B682E
:100D68004B4A934207D07B684A4A934201D10723F2
:100D78000EE008230CE006230AE0052308E004231C
:100D880006E0032304E0022302E0012300E000233D
:100D9800FA6902F0030292009340BA691343BB61F7
:100DA8003449FB699B080233BA6941F823203A4B5E
:100DB8001B68BB613B69DB43BA691340BB613B6895
:100DC8005B6803F48033002B03D0BA693B69134393
:100DD800BB61314ABB6913602F4B5B68BB613B69E0
:100DE800DB43BA691340BB613B685B6803F40033BB
:100DF800002B03D0BA693B691343BB61264ABB6920
:100E08005360254B9B68BB613B69DB43BA69134060
:100E1800BB613B685B6803F48013002B03D0BA699D
:100E28003B691343BB611C4ABB6993601A4BDB687F
:100E3800BB613B69DB43BA691340BB613B685B68D4
:100E480003F40013002B03D0BA693B691343BB6159
:100E5800114ABB69D360FB690133FB61FB690F2B46
:100E68007FF690AE00BF2437BD465DF8047B70471F
:100E780000380240003801400000024000040240EF
:100E880000080240000C024000100240001402401A
:100E980000180240001C0240003C014080B485B0AC
:100EA80000AF78600B467B807B681A697B881340AB
:100EB800002B02D00123FB7301E00023FB73FB7BB3
:100EC80018461437BD465DF8047B704780B483B07C
:100ED80000AF78600B467B8013467B707B78002BD5
:100EE80003D07A887B689A6103E07B881A047B6860
:100EF8009A6100BF0C37BD465DF8047B704700005F
:100F080080B586B000AF78607B68002B01D10123E3
:100F180064E27B681B6803F00103002B75D0A34BC8
:100F28009B6803F00C03042B0CD0A04B9B6803F0C8
:100F38000C03082B12D19D4B5B6803F48003B3F5B7
:100F4800800F0BD1994B1B6803F40033002B5BD047
:100F58007B685B68002B57D101233FE27B685B68A5
:100F6800B3F5803F06D1914A904B1B6843F4803318
:100F780013601DE07B685B68B3F5A02F0CD18B4A2A
:100F88008A4B1B6843F480231360884A874B1B688D
:100F980043F4803313600BE0844A844B1B6823F4CA
:100FA80080331360814A814B1B6823F480231360CC
:100FB8007B685B68002B13D0FFF7C4FC386108E03E
:100FC800FFF7C0FC02463B69D31A642B01D90323FF
:100FD80004E2764B1B6803F40033002BF0D014E0D6
:100FE800FFF7B0FC386108E0FFF7ACFC02463B694C
:100FF800D31A642B01D90323F0E16C4B1B6803F46B
:101008000033002BF0D100E000BF7B681B6803F0C1
:101018000203002B63D0654B9B6803F00C03002B85
:101028000BD0624B9B6803F00C03082B1CD15F4B61
:101038005B6803F48003002B16D15C4B1B6803F03C
:101048000203002B05D07B68DB68012B01D001234C
:10105800C4E15649554B1B6823F0F8027B681B69AD
:10106800DB0013430B603AE07B68DB68002B20D081
:101078004F4B01221A60FFF765FC386108E0FFF763
:1010880061FC02463B69D31A022B01D90323A5E16F
:10109800464B1B6803F00203002BF0D04349434B37
:1010A8001B6823F0F8027B681B69DB0013430B60A5
:1010B80015E03F4B00221A60FFF744FC386108E056
:1010C800FFF740FC02463B69D31A022B01D90323E0
:1010D80084E1364B1B6803F00203002BF0D17B68D8
:1010E8001B6803F00803002B30D07B685B69002B7A
:1010F80016D0304B01221A60FFF724FC386108E053
:10110800FFF720FC02463B69D31A022B01D90323BF
:1011180064E1264B5B6F03F00203002BF0D015E06F
:10112800244B00221A60FFF70DFC386108E0FFF736
:1011380009FC02463B69D31A022B01D903234DE16E
:101148001A4B5B6F03F00203002BF0D17B681B681E
:1011580003F00403002B00F0A0800023FB75134B61
:101168001B6C03F08053002B0FD10023BB600F4A88
:101178000E4B1B6C43F0805313640C4B1B6C03F039
:101188008053BB60BB680123FB750B4B1B6803F4E2
:101198008073002B21D1084A074B1B6843F48073E6
:1011A8001360FFF7CFFB386111E000BF0038024041
:1011B80000004742800E474200700040FFF7C2FB24
:1011C80002463B69D31A022B01D9032306E1854B5A
:1011D8001B6803F48073002BF0D07B689B68012B9D
:1011E80006D1814A804B1B6F43F0010313671CE053
:1011F8007B689B68052B0CD17B4A7B4B1B6F43F0AC
:1012080004031367784A784B1B6F43F00103136795
:101218000BE0754A744B1B6F23F001031367724A86
:10122800714B1B6F23F0040313677B689B68002BCB
:1012380015D0FFF787FB38610AE0FFF783FB02460A
:101248003B69D31A41F28832934201D90323C5E09E
:10125800654B1B6F03F00203002BEED014E0FFF781
:1012680071FB38610AE0FFF76DFB02463B69D31A50
:1012780041F28832934201D90323AFE05A4B1B6FE6
:1012880003F00203002BEED1FB7D012B05D1564A5A
:10129800554B1B6C23F0805313647B689B69002BB0
:1012A80000F09B80504B9B6803F00C03082B5CD02C
:1012B8007B689B69022B41D14C4B00221A60FFF7D7
:1012C80041FB386108E0FFF73DFB02463B69D31A52
:1012D800022B01D9032381E0434B1B6803F0007301
:1012E800002BF0D140497B68DA697B681B6A1A4396
:1012F8007B685B6A9B011A437B689B6A5B08013BBE
:101308001B041A437B68DB6A1B0613434B60374B8D
:1013180001221A60FFF716FB386108E0FFF712FB9D
:1013280002463B69D31A022B01D9032356E02E4B00
:101338001B6803F00073002BF0D04EE02B4B00220B
:101348001A60FFF7FFFA386108E0FFF7FBFA024678
:101358003B69D31A022B01D903233FE0224B1B68B8
:1013680003F00073002BF0D137E07B689B69012BF9
:1013780001D1012332E01C4B5B68FB607B689B69F1
:10138800012B28D0FB6803F480027B68DB699A4252
:1013980021D1FB6803F03F027B681B6A9A421AD18D
:1013A800FA6847F6C07313407A68526A920193420A
:1013B80011D1FB6803F440327B689B6A5B08013BF0
:1013C8001B049A4207D1FB6803F070627B68DB6AF2
:1013D8001B069A4201D0012300E000231846183763
:1013E800BD4680BD007000400038024060004742A2
:1013F80080B584B000AF786039607B68002B01D17C
:101408000123CCE0684B1B6803F007023B689A4253
:101418000CD2654B3A68D2B21A70634B1B6803F062
:1014280007023B689A4201D00123B8E07B681B6839
:1014380003F00203002B20D07B681B6803F0040331
:10144800002B05D0594A594B9B6843F4E0539360ED
:101458007B681B6803F00803002B05D0534A534BE5
:101468009B6843F4604393605049504B9B6823F05A
:10147800F0027B689B6813438B607B681B6803F0F2
:101488000103002B44D07B685B68012B07D1474BD5
:101498001B6803F40033002B19D101237FE07B681C
:1014A8005B68022B03D07B685B68032B07D13F4B3B
:1014B8001B6803F00073002B09D101236FE03B4B3D
:1014C8001B6803F00203002B01D1012367E03749B1
:1014D800364B9B6823F003027B685B6813438B6081
:1014E800FFF730FAF8600AE0FFF72CFA0246FB68CB
:1014F800D31A41F28832934201D903234FE02B4B90
:101508009B6803F00C027B685B689B009A42EBD1F6
:10151800254B1B6803F007023B689A420CD9224B03
:101528003A68D2B21A70204B1B6803F007023B6876
:101538009A4201D0012332E07B681B6803F0040360
:10154800002B08D01949194B9B6823F4E0527B689B
:10155800DB6813438B607B681B6803F00803002B70
:1015680009D01249114B9B6823F460427B681B69C0
:10157800DB0013438B6000F021F801460B4B9B689E
:101588001B0903F00F030A4AD35C21FA03F3094A43
:101598001360094B1B681846FFF790F9002318469B
:1015A8001037BD4680BD00BF003C024000380240F5
:1015B8003818000800000020040000202DE9F04F32
:1015C8008FB000AF0023FB6200237B630023BB6264
:1015D80000233B63624B9B6803F00C03042B07D08A
:1015E800082B08D0002B40F0B2805E4B3B63B1E083
:1015F8005D4B3B63AEE05A4B5B6803F03F03FB6215
:10160800574B5B6803F48003002B4ED0544B5B6848
:101618009B094FF0000440F2FF114FF0000201EA6D
:10162800030102EA04020B46144660017862786AF4
:1016380040EAD36078625B013B62D7E908345B1A01
:1016480064EB02044FEA841949EA93694FEA831864
:10165800B8EB030869EB04094FEAC903FB61FB69AE
:1016680043EA5873FB614FEAC803BB61D7E90689AF
:1016780018EB010849EB02094FEA49237B617B69B2
:1016880043EAD8537B614FEA48233B61D7E9048991
:1016980040464946FB6A4FF000041A462346FEF7C7
:1016A8008FFD03460C467B6343E02D4B5B689B092B
:1016B8004FF0000440F2FF114FF0000201EA03016D
:1016C80002EA04020B4614466001F860F86840EA32
:1016D800D360F8605B01BB60D7E902345B1A64EB46
:1016E8000204A60146EA93669D01ED1A66EB04061C
:1016F800F3007B607B6843EA55737B60EB003B60DB
:1017080097E860006D1846EB02064FEA862B4BEA15
:10171800955B4FEA852A55465E4628463146FB6A60
:101728004FF000041A462346FEF74AFD03460C46CE
:101738007B630B4B5B681B0C03F0030301335B00FB
:10174800BB627A6BBB6AB2FBF3F33B6302E0054B07
:101758003B6300BF3B6B18463C37BD46BDE8F08F86
:10176800003802400024F40000127A00DFF834D078
:101778000D480E490E4A002302E0D458C4500433E1
:10178800C4188C42F9D30B4A0B4C002301E01360B8
:101798000432A242FBD3FFF75DF800F011F8FEF720
:1017A80003FF704700C00120000000200C0000204B
:1017B800581800080C00002034000020FEE7000044
:1017C80070B50D4E0D4CA41BA4100025A54209D1DF
:1017D8000B4E0C4C00F020F8A41BA4100025A542C9
:1017E80005D170BD56F8253098470135EEE756F813
:1017F800253098470135F2E75018000850180008BE
:10180800501800085418000802440346934200D1B7
:10181800704703F8011BF9E7F8B500BFF8BC08BC2E
:101828009E467047F8B500BFF8BC08BC9E46704796
:101838000000000000000000010203040607080978
:08184800B0E9FF7F0100000080
:04185000AD010008DE
:0418540089010008FE
:0C1858000024F40010000000010000005B
:040000050800177563
:00000001FF
