:020000040800F2
:1000000000C00120ED2500086125000867250008D3
:100010006D25000873250008792500080000000000
:100020000000000000000000000000007F25000824
:100030008D250008000000009B250008A925000868
:100040003D2600083D2600083D2600083D26000804
:100050003D2600083D2600083D2600083D260008F4
:100060003D2600083D2600083D2600083D260008E4
:100070003D2600083D2600083D2600083D260008D4
:100080003D2600083D2600083D2600083D260008C4
:100090003D2600083D2600083D2600083D260008B4
:1000A0003D2600083D2600083D2600083D260008A4
:1000B000B52500083D2600083D2600083D2600081D
:1000C0003D2600083D2600083D2600083D26000884
:1000D0003D2600083D2600083D2600083D26000874
:1000E0003D2600083D2600083D2600083D26000864
:1000F0003D2600083D2600083D2600083D26000854
:100100003D2600083D2600083D2600083D26000843
:100110003D2600083D2600083D2600083D26000833
:100120003D2600083D2600083D2600083D26000823
:100130003D2600083D2600083D2600083D26000813
:100140003D2600083D2600083D2600083D26000803
:100150003D2600083D2600083D2600083D260008F3
:100160003D2600083D2600083D2600083D260008E3
:100170003D2600083D2600083D260008000000003E
:080180003D2600083D260008A1
:1001880010B5054C237833B9044B13B10448AFF3C9
:1001980000800123237010BD0C0000200000000027
:1001A8009826000808B5034B1BB103490348AFF371
:1001B800008008BD000000001000002098260008FC
:1001C80053B94AB9002908BF00281CBF4FF0FF31B6
:1001D8004FF0FF3000F07AB9ADF1080C6DE904CEAC
:1001E80000F006F8DDF804E0DDE9022304B070470A
:1001F8002DE9F0478C460D460446089E002B51D148
:100208008A4217466DD9B2FA82FEBEF1000F0BD0B2
:10021800CEF1200C01FA0EF520FA0CFC02FA0EF7CA
:100228004CEA050C00FA0EF44FEA174A250CBCFB01
:10023800FAF81FFA87F90AFB18CC45EA0C4508FBBF
:1002480009F3AB420AD9ED1908F1FF3280F0238196
:10025800AB4240F22081A8F102083D44ED1AA4B255
:10026800B5FBFAF00AFB105544EA054400FB09F90E
:10027800A14509D9E41900F1FF3380F00A81A145AD
:1002880040F2078102383C44A4EB090440EA0840E4
:100298000021002E61D024FA0EF40023346073602C
:1002A800BDE8F0878B4207D9002E54D0002186E89C
:1002B80021000846BDE8F087B3FA83F1002940F031
:1002C8008E80AB4202D3824200F2FA80841A65EB38
:1002D80003050120AC46002E3FD086E81010BDE88B
:1002E800F08712B90127B7FBF2F7B7FA87FEBEF11C
:1002F800000F34D1EB1B3A0C1FFA87FC0121B3FB2A
:10030800F2F8250C02FB183345EA03450CFB08F309
:10031800AB4207D9ED1908F1FF3002D2AB4200F227
:10032800D1808046ED1AA3B2B5FBF2F002FB10555E
:1003380043EA05440CFB00FCA44507D9E41900F185
:10034800FF3302D2A44500F2B8801846A4EB0C048F
:1003580040EA08409DE731463046BDE8F087CEF1D7
:10036800200405FA0EF307FA0EF720FA04F83A0CFF
:1003780025FA04F448EA0308B4FBF2F14FEA1845F9
:1003880002FB11441FFA87FC45EA044501FB0CF304
:10039800AB4200FA0EF409D9ED1901F1FF3080F0F3
:1003A8008A80AB4240F2878002393D44EB1A1FFA3B
:1003B80088F5B3FBF2F002FB103345EA034500FB76
:1003C8000CF3AB4207D9ED1900F1FF386FD2AB42FD
:1003D8006DD902383D44EB1A40EA01418FE7C1F17B
:1003E800200722FA07F88B4005FA01F448EA0303CC
:1003F80020FA07FE4FEA134CFD404EEA040EB5FB07
:10040800FCF94FEA1E440CFB19551FFA83F844EA1D
:10041800054509FB08F4AC4202FA01F200FA01FAB8
:1004280008D9ED1809F1FF3043D2AC4241D9A9F1FE
:1004380002091D442D1B1FFA8EFEB5FBFCF00CFBB8
:1004480010554EEA054400FB08F8A04507D9E41802
:1004580000F1FF3529D2A04527D902381C4440EACB
:100468000940A4EB0804A0FB02894C45C6464D464A
:1004780015D312D056B1BAEB0E0364EB050404FA97
:1004880007F7CB401F43CC40376074600021BDE8BC
:10049800F0871846F8E69046E0E6C245EAD2B8EB9F
:1004A800020E69EB03050138E4E72846D7E7404622
:1004B80091E78146BEE7014678E702383C4445E7C4
:1004C800084608E7A8F102083D442BE7704700BF3B
:1004D80080B500AF0E4A0E4B1B6843F400731360DF
:1004E8000B4A0B4B1B6843F480631360084A084BA4
:1004F8001B6843F480731360032000F029F90F2070
:1005080000F008F801F0B2FF0023184680BD00BFD4
:10051800003C024080B582B000AF7860124B1A6888
:10052800124B1B7819464FF47A73B3FBF1F3B2FB05
:10053800F3F3184600F041F90346002B01D00123DC
:100548000EE07B680F2B0AD8002279684FF0FF3045
:1005580000F009F9064A7B681360002300E00123D4
:1005680018460837BD4680BD08000020040000205A
:100578000000002080B400AF064B1B781A46064BDB
:100588001B681344044A136000BFBD465DF8047B32
:10059800704700BF040000202800002080B400AF8E
:1005A800034B1B681846BD465DF8047B704700BFC7
:1005B8002800002080B485B000AF78607B6803F025
:1005C8000703FB600C4BDB68BB60BA684FF6FF03A0
:1005D8001340BB60FB681A02BB68134343F0BF6358
:1005E80043F40033BB60044ABB68D36000BF1437D0
:1005F800BD465DF8047B704700ED00E080B400AFB5
:10060800044BDB681B0A03F007031846BD465DF878
:10061800047B704700ED00E080B483B000AF034670
:10062800FB7197F90730002B0BDB094997F9073065
:100638005B09FA7902F01F02012000FA02F241F880
:10064800232000BF0C37BD465DF8047B704700BF10
:1006580000E100E080B483B000AF03463960FB716D
:1006680097F90730002B0ADB0D4997F907303A68EC
:10067800D2B21201D2B20B4483F800230AE009492E
:10068800FB7903F00F03043B3A68D2B21201D2B2ED
:100698000B441A7600BF0C37BD465DF8047B7047E3
:1006A80000E100E000ED00E080B489B000AFF86040
:1006B800B9607A60FB6803F00703FB61FB69C3F16B
:1006C8000703042B28BF0423BB61FB690433062BF3
:1006D80002D9FB69033B00E000237B610122BB696F
:1006E80002FA03F35A1EBB681A407B699A4001213B
:1006F8007B6901FA03F3591E7B680B4013431846C4
:100708002437BD465DF8047B7047000080B582B091
:1007180000AF78607B68013BB3F1807F01D3012390
:100728000FE00A4A7B68013B53600F214FF0FF300E
:10073800FFF790FF054B00229A60044B07221A60CE
:10074800002318460837BD4680BD00BF10E000E012
:1007580080B582B000AF78607868FFF72BFF00BFE4
:100768000837BD4680BD80B586B000AF0346B96086
:100778007A60FB7300237B61FFF740FF78617A683A
:10078800B9687869FFF790FF024697F90F3011466C
:100798001846FFF75FFF00BF1837BD4680BD80B51C
:1007A80082B000AF0346FB7197F907301846FFF790
:1007B80033FF00BF0837BD4680BD80B582B000AFAB
:1007C80078607868FFF7A2FF034618460837BD46E9
:1007D80080BD000080B489B000AF78603960002324
:1007E8007B6100233B610023BB610023FB616BE15C
:1007F8000122FB6902FA03F37B613B681A687B6993
:1008080013403B613A697B699A4240F05A813B68E0
:100818005B6803F00303012B05D03B685B6803F0BA
:100828000303022B30D17B689B68BB61FB695B00CB
:10083800032202FA03F3DB43BA691340BB613B6846
:10084800DA68FB695B0002FA03F3BA691343BB6118
:100858007B68BA699A607B685B68BB610122FB6947
:1008680002FA03F3DB43BA691340BB613B685B6878
:100878001B0903F00102FB6902FA03F3BA69134387
:10088800BB617B68BA695A603B685B6803F0030325
:10089800032B17D07B68DB68BB61FB695B00032215
:1008A80002FA03F3DB43BA691340BB613B689A68F9
:1008B800FB695B0002FA03F3BA691343BB617B6807
:1008C800BA69DA603B685B6803F00303022B23D143
:1008D800FB69DA087B68083253F82230BB61FB6990
:1008E80003F007039B000F2202FA03F3DB43BA6904
:1008F8001340BB613B681A69FB6903F007039B005F
:1009080002FA03F3BA691343BB61FB69DA087B682F
:100918000832B96943F822107B681B68BB61FB6920
:100928005B00032202FA03F3DB43BA691340BB619D
:100938003B685B6803F00302FB695B0002FA03F3A0
:10094800BA691343BB617B68BA691A603B685B6824
:1009580003F44033002B00F0B4800023FB605F4AAF
:100968005E4B5B6C43F4804353645C4B5B6C03F4F9
:100978008043FB60FB685A4AFB699B08023352F8C4
:100988002330BB61FB6903F003039B000F2202FACB
:1009980003F3DB43BA691340BB617B68514A934256
:1009A8002BD07B68504A934225D07B684F4A9342AC
:1009B8001FD07B684E4A934219D07B684D4A9342B8
:1009C80013D07B684C4A93420DD07B684B4A9342C4
:1009D80007D07B684A4A934201D107230EE00823D7
:1009E8000CE006230AE0052308E0042306E00323BD
:1009F80004E0022302E0012300E00023FA6902F088
:100A0800030292009340BA691343BB613449FB69FE
:100A18009B080233BA6941F823203A4B1B68BB6133
:100A28003B69DB43BA691340BB613B685B6803F40D
:100A38008033002B03D0BA693B691343BB61314A49
:100A4800BB6913602F4B5B68BB613B69DB43BA69C9
:100A58001340BB613B685B6803F40033002B03D091
:100A6800BA693B691343BB61264ABB695360254B8E
:100A78009B68BB613B69DB43BA691340BB613B6858
:100A88005B6803F48013002B03D0BA693B691343F6
:100A9800BB611C4ABB6993601A4BDB68BB613B694D
:100AA800DB43BA691340BB613B685B6803F400131E
:100AB800002B03D0BA693B691343BB61114ABB6978
:100AC800D360FB690133FB61FB690F2B7FF690AEA6
:100AD80000BF2437BD465DF8047B704700380240EC
:100AE80000380140000002400004024000080240B3
:100AF800000C02400010024000140240001802409E
:100B0800001C0240003C014080B586B000AF786010
:100B18007B68002B01D1012364E27B681B6803F02A
:100B28000103002B75D0A34B9B6803F00C03042B27
:100B38000CD0A04B9B6803F00C03082B12D19D4BE3
:100B48005B6803F48003B3F5800F0BD1994B1B68E6
:100B580003F40033002B5BD07B685B68002B57D114
:100B680001233FE27B685B68B3F5803F06D1914A79
:100B7800904B1B6843F4803313601DE07B685B680F
:100B8800B3F5A02F0CD18B4A8A4B1B6843F4802302
:100B98001360884A874B1B6843F4803313600BE06B
:100BA800844A844B1B6823F480331360814A814B49
:100BB8001B6823F4802313607B685B68002B13D0C9
:100BC800FFF7ECFC386108E0FFF7E8FC02463B69F8
:100BD800D31A642B01D9032304E2764B1B6803F470
:100BE8000033002BF0D014E0FFF7D8FC386108E0A0
:100BF800FFF7D4FC02463B69D31A642B01D90323BF
:100C0800F0E16C4B1B6803F40033002BF0D100E0DB
:100C180000BF7B681B6803F00203002B63D0654BA1
:100C28009B6803F00C03002B0BD0624B9B6803F00E
:100C38000C03082B1CD15F4B5B6803F48003002B6B
:100C480016D15C4B1B6803F00203002B05D07B68B0
:100C5800DB68012B01D00123C4E15649554B1B68C1
:100C680023F0F8027B681B69DB0013430B603AE052
:100C78007B68DB68002B20D04F4B01221A60FFF7FE
:100C88008DFC386108E0FFF789FC02463B69D31AFE
:100C9800022B01D90323A5E1464B1B6803F002038D
:100CA800002BF0D04349434B1B6823F0F8027B68C4
:100CB8001B69DB0013430B6015E03F4B00221A60F1
:100CC800FFF76CFC386108E0FFF768FC02463B69F7
:100CD800D31A022B01D9032384E1364B1B6803F096
:100CE8000203002BF0D17B681B6803F00803002B7C
:100CF80030D07B685B69002B16D0304B01221A601C
:100D0800FFF74CFC386108E0FFF748FC02463B69F6
:100D1800D31A022B01D9032364E1264B5B6F03F03E
:100D28000203002BF0D015E0244B00221A60FFF7D5
:100D380035FC386108E0FFF731FC02463B69D31AFD
:100D4800022B01D903234DE11A4B5B6F03F0020319
:100D5800002BF0D17B681B6803F00403002B00F024
:100D6800A0800023FB75134B1B6C03F08053002BF2
:100D78000FD10023BB600F4A0E4B1B6C43F080530E
:100D880013640C4B1B6C03F08053BB60BB680123DE
:100D9800FB750B4B1B6803F48073002B21D1084AA9
:100DA800074B1B6843F480731360FFF7F7FB386148
:100DB80011E000BF0038024000004742800E474261
:100DC80000700040FFF7EAFB02463B69D31A022B8A
:100DD80001D9032306E1854B1B6803F48073002BBC
:100DE800F0D07B689B68012B06D1814A804B1B6F32
:100DF80043F0010313671CE07B689B68052B0CD14B
:100E08007B4A7B4B1B6F43F004031367784A784B8C
:100E18001B6F43F0010313670BE0754A744B1B6F9C
:100E280023F001031367724A714B1B6F23F004030D
:100E380013677B689B68002B15D0FFF7AFFB386101
:100E48000AE0FFF7ABFB02463B69D31A41F288324E
:100E5800934201D90323C5E0654B1B6F03F00203DE
:100E6800002BEED014E0FFF799FB38610AE0FFF79A
:100E780095FB02463B69D31A41F28832934201D965
:100E88000323AFE05A4B1B6F03F00203002BEED194
:100E9800FB7D012B05D1564A554B1B6C23F0805323
:100EA80013647B689B69002B00F09B80504B9B6808
:100EB80003F00C03082B5CD07B689B69022B41D1A3
:100EC8004C4B00221A60FFF769FB386108E0FFF716
:100ED80065FB02463B69D31A022B01D9032381E043
:100EE800434B1B6803F00073002BF0D140497B682B
:100EF800DA697B681B6A1A437B685B6A9B011A4341
:100F08007B689B6A5B08013B1B041A437B68DB6AAE
:100F18001B0613434B60374B01221A60FFF73EFB59
:100F2800386108E0FFF73AFB02463B69D31A022B07
:100F380001D9032356E02E4B1B6803F00073002BE6
:100F4800F0D04EE02B4B00221A60FFF727FB3861E8
:100F580008E0FFF723FB02463B69D31A022B01D9AD
:100F680003233FE0224B1B6803F00073002BF0D1F2
:100F780037E07B689B69012B01D1012332E01C4BD0
:100F88005B68FB607B689B69012B28D0FB6803F4D6
:100F980080027B68DB699A4221D1FB6803F03F023B
:100FA8007B681B6A9A421AD1FA6847F6C0731340E5
:100FB8007A68526A9201934211D1FB6803F4403275
:100FC8007B689B6A5B08013B1B049A4207D1FB685C
:100FD80003F070627B68DB6A1B069A4201D001232A
:100FE80000E0002318461837BD4680BD0070004059
:100FF800003802406000474280B584B000AF786096
:1010080039607B68002B01D10123CCE0684B1B6859
:1010180003F007023B689A420CD2654B3A68D2B299
:101028001A70634B1B6803F007023B689A4201D0B1
:101038000123B8E07B681B6803F00203002B20D073
:101048007B681B6803F00403002B05D0594A594BF1
:101058009B6843F4E05393607B681B6803F00803C4
:10106800002B05D0534A534B9B6843F4604393606D
:101078005049504B9B6823F0F0027B689B681343F0
:101088008B607B681B6803F00103002B44D07B68EE
:101098005B68012B07D1474B1B6803F40033002B17
:1010A80019D101237FE07B685B68022B03D07B6842
:1010B8005B68032B07D13F4B1B6803F00073002BC1
:1010C80009D101236FE03B4B1B6803F00203002B9F
:1010D80001D1012367E03749364B9B6823F00302AF
:1010E8007B685B6813438B60FFF758FAF8600AE087
:1010F800FFF754FA0246FB68D31A41F2883293424A
:1011080001D903234FE02B4B9B6803F00C027B684B
:101118005B689B009A42EBD1254B1B6803F00702E2
:101128003B689A420CD9224B3A68D2B21A70204BCB
:101138001B6803F007023B689A4201D0012332E0A2
:101148007B681B6803F00403002B08D01949194B6E
:101158009B6823F4E0527B68DB6813438B607B68F1
:101168001B6803F00803002B09D01249114B9B6838
:1011780023F460427B681B69DB0013438B6000F03B
:1011880021F801460B4B9B681B0903F00F030A4A21
:10119800D35C21FA03F3094A1360094B1B6818460C
:1011A800FFF7B8F9002318461037BD4680BD00BFC9
:1011B800003C024000380240B02600080800002029
:1011C800000000202DE9F04F87B000AF0022FA6040
:1011D80000227A610022BA6000223A61514A92687C
:1011E80002F00C02042A07D0082A08D0002A40F08E
:1011F80090804D4B3B618FE04C4B3B618CE0494A02
:10120800526802F03F02FA60464A526802F48002CD
:10121800002A23D0434B5B689B094FF0000440F23F
:10122800FF114FF0000203EA010304EA02043F4AF7
:1012380002FB04F1002202FB03F20A443B49A3FB30
:10124800010153181946FB684FF000041A4623465B
:10125800FEF7B6FF03460C467B614CE0314A526804
:10126800920911464FF0000240F2FF154FF00006B8
:1012780005EA010506EA0206294632464FEA421BFC
:101288004BEAD16B4FEA411A51465A46AA46B34631
:1012980055465E464D1B62EB0606294632469401CA
:1012A80044EA91648B015B1A64EB02044FEAC409B7
:1012B80049EA53794FEAC30843464C4655465E46C9
:1012C800ED1846EB04062B463446A2027A607A688B
:1012D80042EA93527A609B023B6097E818001846EE
:1012E8002146FB684FF000041A462346FEF768FFC4
:1012F80003460C467B610B4B5B681B0C03F0030336
:1013080001335B00BB607A69BB68B2FBF3F33B61F6
:1013180002E0054B3B6100BF3B6918461C37BD46E0
:10132800BDE8F08F003802400024F40040787D01C9
:1013380080B582B000AF78607B68002B01D10123B3
:1013480041E07B6893F83D30DBB2002B06D17B6827
:10135800002283F83C20786801F0B0F87B6802220C
:1013680083F83D207B681A687B6804331946104669
:1013780000F036FC7B68012283F846207B68012256
:1013880083F83E207B68012283F83F207B68012296
:1013980083F840207B68012283F841207B68012282
:1013A80083F842207B68012283F843207B6801226E
:1013B80083F844207B68012283F845207B6801225A
:1013C80083F83D20002318460837BD4680BD80B508
:1013D80082B000AF78607B68002B01D1012341E027
:1013E8007B6893F83D30DBB2002B06D17B68002286
:1013F80083F83C20786800F039F87B68022283F88B
:101408003D207B681A687B6804331946104600F053
:10141800E7FB7B68012283F846207B68012283F87A
:101428003E207B68012283F83F207B68012283F8F5
:1014380040207B68012283F841207B68012283F8E1
:1014480042207B68012283F843207B68012283F8CD
:1014580044207B68012283F845207B68012283F8B9
:101468003D20002318460837BD4680BD80B483B0B0
:1014780000AF786000BF0C37BD465DF8047B70474D
:1014880080B584B000AF786039600023FB733B6897
:10149800002B04D17B6893F83E30DBB213E03B6845
:1014A800042B04D17B6893F83F30DBB20BE03B6838
:1014B800082B04D17B6893F84030DBB203E07B68EB
:1014C80093F84130DBB2BB733B68002B04D17B68D7
:1014D80093F84230DBB213E03B68042B04D17B68FD
:1014E80093F84330DBB20BE03B68082B04D17B68F0
:1014F80093F84430DBB203E07B6893F84530DBB205
:101508007B73BB7B012B02D17B7B012B01D0012399
:10151800CCE03B68002B04D17B68022283F83E2094
:1015280013E03B68042B04D17B68022283F83F2038
:101538000BE03B68082B04D17B68022283F840202B
:1015480003E07B68022283F841203B68002B04D12A
:101558007B68022283F8422013E03B68042B04D105
:101568007B68022283F843200BE03B68082B04D1F8
:101578007B68022283F8442003E07B68022283F818
:1015880045203B680C2B41D801A252F823F000BF3C
:10159800CD150008151600081516000815160008C0
:1015A800DF1500081516000815160008151600089E
:1015B800F11500081516000815160008151600087C
:1015C800031600087B681B687A681268D26842F0C4
:1015D8000202DA601DE07B681B687A681268D268CC
:1015E80042F00402DA6014E07B681B687A681268CB
:1015F800D26842F00802DA600BE07B681B687A6800
:101608001268D26842F01002DA6002E00123FB732C
:1016180000BFFB7B002B48D17B681B68012239681F
:10162800184600F041FD7B681B68224A934222D08D
:101638007B681B68B3F1804F1DD07B681B681E4A0E
:10164800934218D07B681B681C4A934213D07B686E
:101658001B681B4A93420ED07B681B68194A934249
:1016680009D07B681B68184A934204D07B681B68C2
:10167800164A934211D17B681B689B6803F00703E5
:10168800BB60BB68062B10D07B681B687A68126841
:10169800126842F001021A6007E07B681B687A68EA
:1016A8001268126842F001021A60FB7B1846103774
:1016B800BD4680BD00000140000400400008004015
:1016C800000C0040000401400040014000180040A8
:1016D80080B582B000AF78607B681B681B6903F037
:1016E8000203022B22D17B681B68DB6803F002032C
:1016F800022B1BD17B681B686FF002021A617B68A2
:1017080001221A777B681B689B6903F00303002B8F
:1017180003D0786800F07EFD05E0786800F042FAB2
:10172800786800F049FA7B6800221A777B681B68A2
:101738001B6903F00403042B22D17B681B68DB6858
:1017480003F00403042B1BD17B681B686FF00402B1
:101758001A617B6802221A777B681B689B6903F40D
:101768004073002B03D0786800F054FD05E07868DA
:1017780000F018FA786800F01FFA7B6800221A77E0
:101788007B681B681B6903F00803082B22D17B6860
:101798001B68DB6803F00803082B1BD17B681B68F8
:1017A8006FF008021A617B6804221A777B681B684D
:1017B800DB6903F00303002B03D0786800F02AFDEF
:1017C80005E0786800F0EEF9786800F0F5F97B68D4
:1017D80000221A777B681B681B6903F01003102B23
:1017E80022D17B681B68DB6803F01003102B1BD128
:1017F8007B681B686FF010021A617B6808221A77F1
:101808007B681B68DB6903F44073002B03D078689E
:1018180000F000FD05E0786800F0C4F9786800F091
:10182800CBF97B6800221A777B681B681B6903F079
:101838000103012B0ED17B681B68DB6803F00103F1
:10184800012B07D17B681B686FF001021A61786869
:1018580000F09EF97B681B681B6903F08003802BEE
:101868000ED17B681B68DB6803F08003802B07D1EF
:101878007B681B686FF080021A61786800F0C0FC12
:101888007B681B681B6903F04003402B0ED17B6803
:101898001B68DB6803F04003402B07D17B681B689B
:1018A8006FF040021A61786800F090F97B681B6855
:1018B8001B6903F02003202B0ED17B681B68DB68B3
:1018C80003F02003202B07D17B681B686FF02002F0
:1018D8001A61786800F08AFC00BF0837BD4680BDF1
:1018E80080B586B000AFF860B9607A600023FB75F8
:1018F800FB6893F83C30012B01D1022388E0FB6898
:10190800012283F83C207B68002B1BD1FB681868F8
:10191800BB681968BB685A68BB68DB6800F000FAE6
:10192800FB681B68FA681268926922F00C029A61D7
:10193800FB681B68FA6812689169BA6892680A437A
:101948009A6160E07B68042B1CD1FB681868BB684F
:101958001968BB685A68BB68DB6800F084FAFB68E2
:101968001B68FA681268926922F440629A61FB68FF
:101978001B68FA6812689169BA68926812020A4389
:101988009A6140E07B68082B1BD1FB681868BB682C
:101998001968BB685A68BB68DB6800F0D1FAFB6855
:1019A8001B68FA681268D26922F00C02DA61FB68D7
:1019B8001B68FA681268D169BA6892680A43DA61E2
:1019C80021E07B680C2B1CD1FB681868BB68196880
:1019D800BB685A68BB68DB6800F0EEFAFB681B68F6
:1019E800FA681268D26922F44062DA61FB681B68FF
:1019F800FA681268D169BA68926812020A43DA6111
:101A080001E00123FB75FB68002283F83C20FB7D85
:101A180018461837BD4680BD80B584B000AF7860E1
:101A280039600023FB737B6893F83C30012B01D1AC
:101A38000223A9E07B68012283F83C207B6802220C
:101A480083F83D207B681B689B68BB60BB6823F0FC
:101A58007703BB60BB6823F47F43BB607B681B686C
:101A6800BA689A603B681B68402B67D0402B0BD83C
:101A7800102B73D0102B02D8002B6FD077E0202BBF
:101A88006CD0302B6AD072E0702B0DD0702B04D83C
:101A9800502B33D0602B41D069E0B3F5805F69D01B
:101AA800B3F5005F17D062E07B6818683B689968F7
:101AB8003B685A683B68DB6800F0D6FA7B681B68AD
:101AC8009B68BB60BB6843F07703BB607B681B689F
:101AD800BA689A604FE07B6818683B6899683B6809
:101AE8005A683B68DB6800F0BFFA7B681B687A6855
:101AF8001268926842F480429A603CE07B681868F9
:101B08003B6859683B68DB681A4600F07DF97B68DA
:101B18001B685021184600F08CFA2CE07B68186886
:101B28003B6859683B68DB681A4600F0D9F97B685E
:101B38001B686021184600F07CFA1CE07B68186876
:101B48003B6859683B68DB681A4600F05DF97B68BA
:101B58001B684021184600F06CFA0CE07B681A6894
:101B68003B681B681946104600F063FA03E001233E
:101B7800FB7300E000BF7B68012283F83D207B688F
:101B8800002283F83C20FB7B18461037BD4680BDF9
:101B980080B483B000AF786000BF0C37BD465DF8F5
:101BA800047B704780B483B000AF786000BF0C3707
:101BB800BD465DF8047B704780B483B000AF7860A1
:101BC80000BF0C37BD465DF8047B704780B483B016
:101BD80000AF786000BF0C37BD465DF8047B7047E6
:101BE80080B485B000AF786039607B681B68FB60A3
:101BF8007B68404A934213D07B68B3F1804F0FD083
:101C08007B683D4A93420BD07B683C4A934207D09D
:101C18007B683B4A934203D07B683A4A934208D197
:101C2800FB6823F07003FB603B685B68FA6813434A
:101C3800FB607B682F4A93422BD07B68B3F1804FBF
:101C480027D07B682C4A934223D07B682B4A934247
:101C58001FD07B682A4A93421BD07B68294A93424B
:101C680017D07B68284A934213D07B68274A93424F
:101C78000FD07B68264A93420BD07B68254A934253
:101C880007D07B68244A934203D07B68234A934257
:101C980008D1FB6823F44073FB603B68DB68FA6893
:101CA8001343FB60FB6823F080023B685B691343C6
:101CB800FB607B68FA681A603B689A687B68DA623E
:101CC8003B681A687B689A627B680A4A934203D029
:101CD8007B680C4A934203D13B681A697B681A6394
:101CE8007B6801225A6100BF1437BD465DF8047B4A
:101CF800704700BF00000140000400400008004099
:101D0800000C004000040140004001400044014034
:101D18000048014000180040001C0040002000401E
:101D280080B487B000AFF860B9607A603B60FB6848
:101D38001B6A23F00102FB681A62FB689B697B61DE
:101D4800FB681B6A3B61FB68284A93421BD0FB680F
:101D5800B3F1804F17D0FB68254A934213D0FB6834
:101D6800244A93420FD0FB68234A93420BD0FB6866
:101D7800224A934207D0FB68214A934203D0FB686A
:101D8800204A934201D1012300E00023002B08D010
:101D98007B6923F003037B617A697B6813437B616A
:101DA80003E07B6943F001037B617B6923F0F00367
:101DB8007B613B681B01DBB27A6913437B613B693A
:101DC80023F00A033B61BB6803F00A033A69134333
:101DD8003B61FB687A699A61FB683A691A6200BFDD
:101DE8001C37BD465DF8047B704700BF000001400A
:101DF8000004004000080040000C004000040140BE
:101E0800004001400018004080B487B000AFF8607F
:101E1800B9607A60FB681B6A7B61FB681B6A23F008
:101E28000102FB681A62FB689B693B613B6923F00E
:101E3800F0033B617B681B013A6913433B617B6993
:101E480023F00A037B617A69BB6813437B61FB68F3
:101E58003A699A61FB687A691A6200BF1C37BD4605
:101E68005DF8047B704780B487B000AFF860B96054
:101E78007A603B60FB681B6A23F01002FB681A62F9
:101E8800FB689B697B61FB681B6A3B617B6923F488
:101E980040737B617B681B027A6913437B617B69B2
:101EA80023F470437B613B681B039BB27A6913433D
:101EB8007B613B6923F0A0033B61BB681B0103F016
:101EC800A0033A6913433B61FB687A699A61FB682E
:101ED8003A691A6200BF1C37BD465DF8047B70473B
:101EE80080B487B000AFF860B9607A60FB681B6A9D
:101EF80023F01002FB681A62FB689B697B61FB6830
:101F08001B6A3B617B6923F470437B617B681B031D
:101F18007A6913437B613B6923F0A0033B61BB688B
:101F28001B013A6913433B61FB687A699A61FB6854
:101F38003A691A6200BF1C37BD465DF8047B7047DA
:101F480080B487B000AFF860B9607A603B60FB6826
:101F58001B6A23F48072FB681A62FB68DB697B6189
:101F6800FB681B6A3B617B6923F003037B617A6929
:101F78007B6813437B617B6923F0F0037B613B68DB
:101F88001B01DBB27A6913437B613B6923F420634D
:101F98003B61BB681B0203F420633A6913433B614E
:101FA800FB687A69DA61FB683A691A6200BF1C3714
:101FB800BD465DF8047B704780B487B000AFF86019
:101FC800B9607A603B60FB681B6A23F48052FB6847
:101FD8001A62FB68DB697B61FB681B6A3B617B6992
:101FE80023F440737B617B681B027A6913437B612E
:101FF8007B6923F470437B613B681B039BB27A695E
:1020080013437B613B6923F420433B61BB681B039B
:1020180003F420433A6913433B61FB687A69DA6148
:10202800FB683A691A6200BF1C37BD465DF8047B3D
:10203800704780B485B000AF786039607B689B6872
:10204800FB60FB6823F07003FB603A68FB6813438E
:1020580043F00703FB607B68FA689A6000BF143797
:10206800BD465DF8047B704780B487B000AFF86068
:10207800B9607A603B60FB689B687B617B6923F48D
:102088007F437B613B681A027B681A43BB68134332
:102098007A6913437B61FB687A699A6000BF1C37D1
:1020A800BD465DF8047B704780B487B000AFF86028
:1020B800B9607A60BB6803F01F03012202FA03F3D8
:1020C8007B61FB681A6A7B69DB431A40FB681A620A
:1020D800FB681A6ABB6803F01F03796801FA03F307
:1020E8001A43FB681A6200BF1C37BD465DF8047BC3
:1020F8007047000080B485B000AF786039607B68B5
:1021080093F83C30012B01D102235AE07B6801226D
:1021180083F83C207B68022283F83D207B681B689B
:102128005B68FB607B681B689B68BB60FB6823F08F
:102138007003FB603B681B68FA681343FB607B68AD
:102148001B68FA685A607B681B68214A934222D050
:102158007B681B68B3F1804F1DD07B681B681D4AE4
:10216800934218D07B681B681B4A934213D07B6844
:102178001B681A4A93420ED07B681B68184A934220
:1021880009D07B681B68174A934204D07B681B6898
:10219800154A93420CD1BB6823F08003BB603B68AF
:1021A8005B68BA681343BB607B681B68BA689A604F
:1021B8007B68012283F83D207B68002283F83C205D
:1021C800002318461437BD465DF8047B704700BFEE
:1021D800000001400004004000080040000C0040DE
:1021E80000040140004001400018004080B483B062
:1021F80000AF786000BF0C37BD465DF8047B7047C0
:1022080080B483B000AF786000BF0C37BD465DF87E
:10221800047B704780B483B000AF7860094B1B68BB
:10222800B3F1804F08D1074B1B68DB6B064A13607C
:10223800044B1B6800225A6200BF0C37BD465DF88C
:10224800047B7047300000202C00002080B500AFD0
:10225800FEF73EF900F012F800F0EAF800F078F81E
:1022680008210448FFF70CF9024B1B685B6A024A15
:102278001360F9E7300000202C00002080B594B0EE
:1022880000AF07F1200330220021184600F0F8F9CA
:1022980007F10C0300221A605A609A60DA601A612A
:1022A8000023BB60284A284B1B6C43F080531364FF
:1022B800254B1B6C03F08053BB60BB6800237B601D
:1022C800224A224B1B6843F4804313601F4B1B6850
:1022D80003F480437B607B6802233B620123FB623B
:1022E80010233B630223BB630023FB6308233B6487
:1022F800A8237B640223BB640423FB6407F1200347
:102308001846FEF701FC0346002B01D000F0AAF89E
:102318000F23FB6002233B6100237B614FF4A05332
:10232800BB614FF48053FB6107F10C03052118468C
:10233800FEF762FE0346002B01D000F093F800BFC1
:102348005037BD4680BD00BF0038024000700040D5
:1023580080B58AB000AF07F1180300221A605A60EE
:102368009A60DA6007F1100300221A605A603B464F
:1023780000221A605A609A60DA602C4B4FF0804253
:102388001A602A4B4AF20F425A60284B00229A6080
:10239800264B4CF25032DA60244B00221A61234B50
:1023A80000229A612148FEF7C3FF0346002B01D0A3
:1023B80000F058F84FF48053BB6107F11803194631
:1023C8001A48FFF729FB0346002B01D000F04AF812
:1023D8001648FEF7FCFF0346002B01D000F042F838
:1023E80000233B6100237B6107F1100319460F4866
:1023F800FFF780FE0346002B01D000F033F80023DE
:102408003B6001237B600023BB600F23FB603B46DE
:10241800082219460548FFF763FA0346002B01D046
:1024280000F020F800BF2837BD4680BD30000020EE
:1024380080B483B000AF00237B60094A084B1B6B54
:1024480043F001031363064B1B6B03F001037B602E
:102458007B6800BF0C37BD465DF8047B704700BF42
:102468000038024080B400AF72B6FEE780B483B093
:1024780000AF00237B60104A0F4B5B6C43F4804332
:1024880053640D4B5B6C03F480437B607B680023D3
:102498003B60094A084B1B6C43F080531364064B9E
:1024A8001B6C03F080533B603B6800BF0C37BD4694
:1024B8005DF8047B704700BF0038024080B58AB0E1
:1024C80000AF786007F1140300221A605A609A601E
:1024D800DA601A617B681B68B3F1804F33D100233F
:1024E8003B611B4A1A4B1B6C43F001031364184BE6
:1024F8001B6C03F001033B613B690023FB60144A3A
:10250800134B1B6B43F001031363114B1B6B03F05D
:102518000103FB60FB6804237B610223BB6100238A
:10252800FB6100233B6201237B6207F11403194618
:102538000848FEF74FF9002200211C20FEF713F986
:102548001C20FEF72CF900BF2837BD4680BD00BF10
:10255800003802400000024080B400AFFEE780B4BB
:1025680000AFFEE780B400AFFEE780B400AFFEE73F
:1025780080B400AFFEE780B400AF00BFBD465DF891
:10258800047B704780B400AF00BFBD465DF8047B94
:10259800704780B400AF00BFBD465DF8047B70474C
:1025A80080B500AFFDF7E6FF00BF80BD80B500AF86
:1025B8000248FFF78DF800BF80BD00BF3000002043
:1025C80080B400AF064A064BD3F8883043F4700352
:1025D800C2F8883000BFBD465DF8047B704700BF75
:1025E80000ED00E0DFF834D00D480E490E4A002314
:1025F80002E0D458C4500433C4188C42F9D30B4AAF
:102608000B4C002301E013600432A242FBD3FFF716
:10261800D7FF00F011F8FFF719FE704700C001203E
:10262800000000200C000020D02600080C0000202C
:1026380078000020FEE7000070B50D4E0D4CA41B7D
:10264800A4100025A54209D10B4E0C4C00F020F82F
:10265800A41BA4100025A54205D170BD56F825304D
:1026680098470135EEE756F8253098470135F2E7E7
:10267800C8260008C8260008C8260008CC26000876
:1026880002440346934200D1704703F8011BF9E75F
:10269800F8B500BFF8BC08BC9E467047F8B500BF47
:0826A800F8BC08BC9E46704717
:1026B00000000000000000000102030406070809F2
:0826C00038DBFF7F0100000080
:0426C800AD01000858
:0426CC008901000878
:0C26D00010000000010000000024F400D5
:04000005080025EDDD
:00000001FF
