:020000040800F2
:1000000000C00120A12600086D0800087308000840
:10001000790800087F080008850800080000000033
:100020000000000000000000000000008B08000835
:100030009908000800000000A7080008B50800089B
:10004000F1260008F1260008F1260008F126000834
:10005000F1260008F1260008F1260008F126000824
:10006000F1260008F1260008F1260008F126000814
:10007000F1260008F1260008F1260008F126000804
:10008000F1260008F1260008F1260008F1260008F4
:10009000F1260008F1260008F1260008F1260008E4
:1000A000F1260008F1260008F1260008F1260008D4
:1000B000F1260008F1260008F1260008F1260008C4
:1000C000F1260008F1260008F1260008F1260008B4
:1000D000F1260008F1260008F1260008F1260008A4
:1000E000F1260008F1260008F1260008F126000894
:1000F000F1260008F1260008F1260008F126000884
:10010000F1260008F1260008F1260008F126000873
:10011000F1260008F1260008F1260008F126000863
:10012000C1080008F1260008F1260008F1260008A1
:10013000F1260008F1260008F1260008F126000843
:10014000F1260008F1260008F1260008F126000833
:10015000F1260008F1260008F1260008F126000823
:10016000F1260008F1260008F1260008F126000813
:10017000F1260008F1260008F12600080000000022
:08018000F1260008F126000839
:1001880010B5054C237833B9044B13B10448AFF3C9
:1001980000800123237010BD0C0000200000000027
:1001A8004C27000808B5034B1BB103490348AFF3BC
:1001B800008008BD00000000100000204C27000847
:1001C80053B94AB9002908BF00281CBF4FF0FF31B6
:1001D8004FF0FF3000F07AB9ADF1080C6DE904CEAC
:1001E80000F006F8DDF804E0DDE9022304B070470A
:1001F8002DE9F0478C460D460446089E002B51D148
:100208008A4217466DD9B2FA82FEBEF1000F0BD0B2
:10021800CEF1200C01FA0EF520FA0CFC02FA0EF7CA
:100228004CEA050C00FA0EF44FEA174A250CBCFB01
:10023800FAF81FFA87F90AFB18CC45EA0C4508FBBF
:1002480009F3AB420AD9ED1908F1FF3280F0238196
:10025800AB4240F22081A8F102083D44ED1AA4B255
:10026800B5FBFAF00AFB105544EA054400FB09F90E
:10027800A14509D9E41900F1FF3380F00A81A145AD
:1002880040F2078102383C44A4EB090440EA0840E4
:100298000021002E61D024FA0EF40023346073602C
:1002A800BDE8F0878B4207D9002E54D0002186E89C
:1002B80021000846BDE8F087B3FA83F1002940F031
:1002C8008E80AB4202D3824200F2FA80841A65EB38
:1002D80003050120AC46002E3FD086E81010BDE88B
:1002E800F08712B90127B7FBF2F7B7FA87FEBEF11C
:1002F800000F34D1EB1B3A0C1FFA87FC0121B3FB2A
:10030800F2F8250C02FB183345EA03450CFB08F309
:10031800AB4207D9ED1908F1FF3002D2AB4200F227
:10032800D1808046ED1AA3B2B5FBF2F002FB10555E
:1003380043EA05440CFB00FCA44507D9E41900F185
:10034800FF3302D2A44500F2B8801846A4EB0C048F
:1003580040EA08409DE731463046BDE8F087CEF1D7
:10036800200405FA0EF307FA0EF720FA04F83A0CFF
:1003780025FA04F448EA0308B4FBF2F14FEA1845F9
:1003880002FB11441FFA87FC45EA044501FB0CF304
:10039800AB4200FA0EF409D9ED1901F1FF3080F0F3
:1003A8008A80AB4240F2878002393D44EB1A1FFA3B
:1003B80088F5B3FBF2F002FB103345EA034500FB76
:1003C8000CF3AB4207D9ED1900F1FF386FD2AB42FD
:1003D8006DD902383D44EB1A40EA01418FE7C1F17B
:1003E800200722FA07F88B4005FA01F448EA0303CC
:1003F80020FA07FE4FEA134CFD404EEA040EB5FB07
:10040800FCF94FEA1E440CFB19551FFA83F844EA1D
:10041800054509FB08F4AC4202FA01F200FA01FAB8
:1004280008D9ED1809F1FF3043D2AC4241D9A9F1FE
:1004380002091D442D1B1FFA8EFEB5FBFCF00CFBB8
:1004480010554EEA054400FB08F8A04507D9E41802
:1004580000F1FF3529D2A04527D902381C4440EACB
:100468000940A4EB0804A0FB02894C45C6464D464A
:1004780015D312D056B1BAEB0E0364EB050404FA97
:1004880007F7CB401F43CC40376074600021BDE8BC
:10049800F0871846F8E69046E0E6C245EAD2B8EB9F
:1004A800020E69EB03050138E4E72846D7E7404622
:1004B80091E78146BEE7014678E702383C4445E7C4
:1004C800084608E7A8F102083D442BE7704700BF3B
:1004D80080B500AF02220749074800F0BFFA00F0D4
:1004E80007FA00F00BF800F0F1F800F0CFF800F090
:1004F8006FF8FEE72C0000203000002080B594B093
:1005080000AF07F1200330220021184602F012F94B
:1005180007F10C0300221A605A609A60DA601A61C7
:100528000023BB60284A284B1B6C43F0805313649C
:10053800254B1B6C03F08053BB60BB6800237B60BA
:10054800224A224B1B6843F4804313601F4B1B68ED
:1005580003F480437B607B6801233B624FF4803364
:100568007B620223BB634FF48003FB6304233B6479
:10057800A8237B640223BB640423FB6407F12003E4
:10058800184601F053FC0346002B01D000F0C6F8D2
:100598000F23FB6002233B6100237B614FF4A053D0
:1005A800BB614FF48053FB6107F10C03052118462A
:1005B80001F0B4FE0346002B01D000F0AFF800BFF5
:1005C8005037BD4680BD00BF003802400070004073
:1005D80080B584B000AF3B4600221A605A609A602A
:1005E800DA60274B274A1A60254B4FF480325A604D
:1005F800234B00229A60224B01221A61204B0122D0
:100608001A761F4B002283F820201D4B0022DA6245
:100618001B4B1D4A9A621A4B0022DA60184B0222C1
:10062800DA61174B002283F83020154B01225A61FA
:10063800134800F0CFF90346002B01D000F06EF804
:1006480000233B6001237B600023BB603B461946C7
:100658000B4800F031FB0346002B01D000F05EF898
:1006680002237B603B461946054800F025FB0346FC
:10067800002B01D000F052F800BF1037BD4680BDF6
:1006880030000020002001400100000F80B582B03A
:1006980000AF00237B600C4A0B4B1B6B43F48003B9
:1006A8001363094B1B6B03F480037B607B68002298
:1006B8000021382000F07BFE382000F094FE00BFB7
:1006C8000837BD4680BD00BF0038024080B483B003
:1006D80000AF00237B60104A0F4B1B6B43F0800375
:1006E80013630D4B1B6B03F080037B607B68002357
:1006F8003B60094A084B1B6B43F001031363064B2D
:100708001B6B03F001033B603B6800BF0C37BD4621
:100718005DF8047B704700BF0038024080B400AF2A
:1007280072B6FEE780B483B000AF00237B60104A46
:100738000F4B5B6C43F4804353640D4B5B6C03F4C9
:1007480080437B607B6800233B60094A084B1B6C35
:1007580043F080531364064B1B6C03F080533B60DB
:100768003B6800BF0C37BD465DF8047B704700BF8F
:100778000038024080B58AB000AF786007F11403F2
:1007880000221A605A609A60DA601A617B681B68F6
:100798002F4A934257D100233B612E4A2D4B5B6C65
:1007A80043F4807353642B4B5B6C03F480733B619D
:1007B8003B690023FB60274A264B1B6B43F0010370
:1007C8001363244B1B6B03F00103FB60FB680123DD
:1007D8007B610323BB610023FB6107F11403194606
:1007E8001D4801F089F91D4B1D4A1A601B4B002258
:1007F8005A601A4B00229A60184B0022DA60174B95
:100808004FF480621A61154B4FF400625A61134B22
:100818004FF400529A61114B4FF48072DA610F4B1A
:1008280000221A620D4B00225A620C4800F0F6FDB5
:100838000346002B01D0FFF771FF7B68074A9A63D4
:10084800064A7B68936300BF2837BD4680BD00BF5A
:1008580000200140003802400000024078000020DB
:100868001064024080B400AFFEE780B400AFFEE73A
:1008780080B400AFFEE780B400AFFEE780B400AFFD
:10088800FEE780B400AF00BFBD465DF8047B70474B
:1008980080B400AF00BFBD465DF8047B704780B4EC
:1008A80000AF00BFBD465DF8047B704780B500AF60
:1008B80000F070F800BF80BD80B500AF024800F0BE
:1008C800B3FE00BF80BD00BF7800002080B400AF39
:1008D800064A064BD3F8883043F47003C2F88830D0
:1008E80000BFBD465DF8047B704700BF00ED00E027
:1008F80080B500AF0E4A0E4B1B6843F400731360BB
:100908000B4A0B4B1B6843F480631360084A084B7F
:100918001B6843F480731360032000F03DFD0F2033
:1009280000F008F8FFF7FEFE0023184680BD00BF60
:10093800003C024080B582B000AF7860124B1A6864
:10094800124B1B7819464FF47A73B3FBF1F3B2FBE1
:10095800F3F3184600F055FD0346002B01D00123A0
:100968000EE07B680F2B0AD8002279684FF0FF3021
:1009780000F01DFD064A7B681360002300E0012398
:1009880018460837BD4680BD00000020080000203A
:100998000400002080B400AF064B1B781A46064BB3
:1009A8001B681344044A136000BFBD465DF8047B0E
:1009B800704700BF08000020D800002080B400AFB6
:1009C800034B1B681846BD465DF8047B704700BFA3
:1009D800D800002080B584B000AF78600023FB7396
:1009E8007B68002B01D1012333E07B681B6C002B53
:1009F80009D17868FFF7BEFE7B6800225A647B68DD
:100A0800002283F83C207B681B6C03F01003002B4A
:100A180018D17B681B6C23F4885323F0020343F03E
:100A280002027B681A64786800F06AFA7B68002220
:100A38005A647B681B6C23F0030343F001027B6854
:100A48001A6401E00123FB737B68002283F83C20D1
:100A5800FB7B18461037BD4680BD000080B586B0C8
:100A680000AFF860B9607A6000233B61FB6893F8D7
:100A78003C30012B01D10223E9E0FB68012283F815
:100A88003C20FB681B689B6803F00103012B18D00E
:100A9800FB681B68FA681268926842F001029A6063
:100AA8006D4B1B686D4AA2FB03239A0C13465B002F
:100AB80013443B6102E03B69013B3B613B69002B0E
:100AC800F9D1FB681B689B6803F48073B3F5807FDA
:100AD80007D1FB681B68FA681268926822F4807272
:100AE8009A60FB681B689B6803F00103012B40F0C8
:100AF800A180FB681B6C23F4E06323F0010343F43B
:100B08008072FB681A64FB681B685B6803F4806387
:100B1800002B07D0FB681B6C23F4405343F480522E
:100B2800FB681A64FB681B6C03F48053B3F5805FA1
:100B380006D1FB685B6C23F00602FB685A6402E08E
:100B4800FB6800225A64FB68002283F83C20444B6F
:100B58007B61FB689B6B434ADA63FB689B6B424A89
:100B68001A64FB689B6B414ADA64FB681B686FF088
:100B780022021A60FB681B68FA681268526842F021
:100B880080625A60FB681B68FA681268926842F4CF
:100B980080729A60FB68986BFB681B684C33194637
:100BA800BA687B6800F0E8FC7B695B6803F01F03A8
:100BB800002B2AD1FB681B682D4A934215D0FB688D
:100BC8001B682C4A934205D1254B5B6803F01F0331
:100BD800002B0AD0FB681B68274A934236D1204B6A
:100BE8005B6803F01F030F2B30D8FB681B689B68FA
:100BF80003F04053002B29D1FB681B68FA68126880
:100C0800926842F080429A6020E0FB681B68184AAC
:100C180093421BD1FB681B689B6803F04053002B71
:100C280014D1FB681B68FA681268926842F0804227
:100C38009A600BE0FB681B6C43F01002FB681A64B7
:100C4800FB685B6C43F00102FB685A64002318469A
:100C58001837BD4680BD00BF0000002083DE1B435F
:100C68000023014001110008BB110008D71100083A
:100C780000200140002101400022014080B483B0DF
:100C880000AF786000BF0C37BD465DF8047B704745
:100C980080B483B000AF786000BF0C37BD465DF804
:100CA800047B704780B483B000AF786000BF0C3716
:100CB800BD465DF8047B704790B484B000AF78609F
:100CC80039600023BB607B6893F83C30012B01D16D
:100CD800022307E17B68012283F83C203B681B68FC
:100CE800092B26D97B681A687B681B68D9683B681A
:100CF8001B689BB2184603465B0003441E3B072053
:100D080000FA03F3DB430B40D3607B681A687B6807
:100D18001B68D9683B6898683B681B689BB21C468F
:100D280023465B0023441E3B00FA03F30B43D360C6
:100D380023E07B681A687B681B6819693B681B6835
:100D48009BB2184603465B000344072000FA03F3EE
:100D5800DB430B4013617B681A687B681B68196961
:100D68003B6898683B681B689BB21C4623465B003F
:100D7800234400FA03F30B4313613B685B68062BBB
:100D880024D87B6819687B681B68586B3B685A686D
:100D980013469B001344053B1F2202FA03F3DB436F
:100DA80003404B637B6819687B681B68586B3B681A
:100DB8001B689BB21C463B685A6813469B00134449
:100DC800053B04FA03F303434B634CE03B685B6861
:100DD8000C2B24D87B6819687B681B68186B3B68E8
:100DE8005A6813469B001344233B1F2202FA03F35D
:100DF800DB4303400B637B6819687B681B68186BCF
:100E08003B681B689BB21C463B685A6813469B00AC
:100E18001344233B04FA03F303430B6323E07B6887
:100E280019687B681B68D86A3B685A6813469B0038
:100E38001344413B1F2202FA03F3DB430340CB6216
:100E48007B6819687B681B68D86A3B681B689BB21B
:100E58001C463B685A6813469B001344413B04FAFE
:100E680003F30343CB62224BFB607B681B68214A78
:100E7800934209D13B681B68122B05D1FB685B685C
:100E880043F48002FB685A607B681B68194A9342E6
:100E980023D13B681B68102B03D03B681B68112BC0
:100EA8001BD1FB685B6843F40002FB685A603B682F
:100EB8001B68102B11D1104B1B68104AA2FB03238F
:100EC8009A0C13469B0013445B00BB6002E0BB68AE
:100ED800013BBB60BB68002BF9D17B68002283F81B
:100EE8003C20002318461037BD4690BC704700BF11
:100EF80000230140002001400000002083DE1B4346
:100F080080B485B000AF7860794BFB60FB685B68A4
:100F180023F44032FB685A60FB685A687B685B6858
:100F28001A43FB685A607B681B687A6812685268C3
:100F380022F480725A607B681B687A68126851686C
:100F48007A68126912020A435A607B681B687A68D9
:100F58001268526822F040725A607B681B687A688F
:100F6800126851687A6892680A435A607B681B68FD
:100F78007A681268926822F400629A607B681B683B
:100F88007A68126891687A68D2680A439A607B68BE
:100F98009B6A584A934222D07B681B687A68126819
:100FA800926822F070629A607B681B687A6812689F
:100FB80091687A68926A0A439A607B681B687A68C3
:100FC8001268926822F040529A607B681B687A68BF
:100FD800126891687A68D26A0A439A600FE07B685F
:100FE8001B687A681268926822F070629A607B685F
:100FF8001B687A681268926822F040529A607B688F
:101008001B687A681268926822F002029A607B680C
:101018001B687A68126891687A68127E52000A43DF
:101028009A607B6893F82030002B1BD07B681B6884
:101038007A681268526842F400625A607B681B68DA
:101048007A681268526822F460425A607B681B68AA
:101058007A68126851687A68526A013A52030A43F8
:101068005A6007E07B681B687A681268526822F445
:1010780000625A607B681B687A681268D26A22F438
:101088007002DA627B681B687A681268D16A7A68CB
:10109800D269013A12050A43DA627B681B687A68EA
:1010A8001268926822F400729A607B681B687A68FA
:1010B800126891687A6892F8302052020A439A605E
:1010C8007B681B687A681268926822F480629A606A
:1010D8007B681B687A68126891687A68526992021C
:1010E8000A439A6000BF1437BD465DF8047B704719
:1010F800002301400100000F80B584B000AF786084
:101108007B689B6BFB60FB681B6C03F05003002B38
:101118003CD1FB681B6C43F40072FB681A64FB68E3
:101128001B689B6803F04053002B2BD1FB681B7E88
:10113800002B27D1FB681B68DB6A03F47003002BC4
:1011480006D0FB681B689B6803F48063002B19D1E9
:10115800FB681B68FA681268526822F020025A601D
:10116800FB681B6C23F48072FB681A64FB681B6CB9
:1011780003F48053002B05D1FB681B6C43F001027C
:10118800FB681A64F868FFF779FD0EE0FB681B6CD2
:1011980003F01003002B03D0F868FFF783FD04E089
:1011A800FB689B6BDB6C7868984700BF1037BD46BF
:1011B80080BD80B584B000AF78607B689B6BFB60B6
:1011C800F868FFF765FD00BF1037BD4680BD80B5E4
:1011D80084B000AF78607B689B6BFB60FB68402243
:1011E8001A64FB685B6C43F00402FB685A64F86895
:1011F800FFF758FD00BF1037BD4680BD80B485B0ED
:1012080000AF78607B6803F00703FB600C4BDB687A
:10121800BB60BA684FF6FF031340BB60FB681A0255
:10122800BB68134343F0BF6343F40033BB60044A15
:10123800BB68D36000BF1437BD465DF8047B7047B8
:1012480000ED00E080B400AF044BDB681B0A03F03C
:1012580007031846BD465DF8047B704700ED00E0C3
:1012680080B483B000AF0346FB7197F90730002BB9
:101278000BDB094997F907305B09FA7902F01F027D
:10128800012000FA02F241F8232000BF0C37BD46C6
:101298005DF8047B704700BF00E100E080B483B0D4
:1012A80000AF03463960FB7197F90730002B0ADB62
:1012B8000D4997F907303A68D2B21201D2B20B44FD
:1012C80083F800230AE00949FB7903F00F03043B84
:1012D8003A68D2B21201D2B20B441A7600BF0C3768
:1012E800BD465DF8047B704700E100E000ED00E0DA
:1012F80080B489B000AFF860B9607A60FB6803F029
:101308000703FB61FB69C3F10703042B28BF042310
:10131800BB61FB690433062B02D9FB69033B00E080
:1013280000237B610122BB6902FA03F35A1EBB68E2
:101338001A407B699A4001217B6901FA03F3591E1F
:101348007B680B40134318462437BD465DF8047B81
:101358007047000080B582B000AF78607B68013BC1
:10136800B3F1807F01D301230FE00A4A7B68013B78
:1013780053600F214FF0FF30FFF790FF054B00221D
:101388009A60044B07221A60002318460837BD46A6
:1013980080BD00BF10E000E080B582B000AF78608B
:1013A8007868FFF72BFF00BF0837BD4680BD80B5C2
:1013B80086B000AF0346B9607A60FB7300237B6197
:1013C800FFF740FF78617A68B9687869FFF790FF9E
:1013D800024697F90F3011461846FFF75FFF00BF26
:1013E8001837BD4680BD80B582B000AF0346FB719B
:1013F80097F907301846FFF733FF00BF0837BD4697
:1014080080BD80B582B000AF78607868FFF7A2FF32
:10141800034618460837BD4680BD000080B586B033
:1014280000AF786000237B61FFF7C8FA38617B68FA
:10143800002B01D1012399E07B68022283F8352033
:101448007B68002283F834207B681B687A681268FE
:10145800126822F001021A600FE0FFF7AFFA0246A5
:101468003B69D31A052B08D97B6820225A657B680B
:10147800032283F83520032378E07B681B681B6808
:1014880003F00103002BE8D17B681B681B687B61B4
:101498007A69384B13407B617B685A687B689B6824
:1014A8001A437B68DB681A437B681B691A437B68AD
:1014B8005B691A437B689B691A437B68DB691A433B
:1014C8007B681B6A13437A6913437B617B685B6A99
:1014D800042B07D17B68DA6A7B681B6B13437A6934
:1014E80013437B617B681B687A691A607B681B6899
:1014F8005B697B617B6923F007037B617B685B6ABF
:101508007A6913437B617B685B6A042B17D17B681C
:101518009B6A7A6913437B617B68DB6A002B0ED078
:10152800786800F06FFA0346002B08D07B684022E9
:101538005A657B68012283F83520012316E07B6811
:101548001B687A695A61786800F026FA0346FB60DE
:101558007B68DB6D3F229A40FB689A607B680022BB
:101568005A657B68012283F835200023184618370E
:10157800BD4680BD3F8010F080B586B000AFF860F2
:10158800B9607A603B600023FB75FB689B6D3B612B
:10159800FB6893F83430012B01D1022340E0FB684B
:1015A800012283F83420FB6893F83530DBB2012B35
:1015B8002FD1FB68022283F83520FB6800225A6588
:1015C8003B687A68B968F86800F0B8F9FB68DB6DC1
:1015D8003F229A403B699A60FB681B68FA68126868
:1015E800126842F016021A60FB681B6C002B07D0C9
:1015F800FB681B68FA681268126842F008021A60F1
:10160800FB681B68FA681268126842F001021A60E7
:1016180005E0FB68002283F834200223FB75FB7D7C
:1016280018461837BD4680BD80B586B000AF7860D3
:101638000023BB60924B1B68924AA2FB03239B0AC0
:101648007B617B689B6D3B613B691B68FB607B68CA
:10165800DB6D08229A40FB681340002B1AD07B6888
:101668001B681B6803F00403002B13D07B681B68FE
:101678007A681268126822F004021A607B68DB6DCF
:1016880008229A403B699A607B685B6D43F00102CF
:101698007B685A657B68DB6D01229A40FB681340C2
:1016A800002B12D07B681B685B6903F08003002B5A
:1016B8000BD07B68DB6D01229A403B699A607B689E
:1016C8005B6D43F002027B685A657B68DB6D042220
:1016D8009A40FB681340002B12D07B681B681B687C
:1016E80003F00203002B0BD07B68DB6D04229A40C9
:1016F8003B699A607B685B6D43F004027B685A65BE
:101708007B68DB6D10229A40FB681340002B43D0A6
:101718007B681B681B6803F00803002B3CD07B68C0
:10172800DB6D10229A403B699A607B681B681B68D6
:1017380003F48023002B18D07B681B681B6803F414
:101748000023002B08D17B681B6C002B24D07B68FE
:101758001B6C786898471FE07B689B6C002B1BD03C
:101768007B689B6C7868984716E07B681B681B68E9
:1017780003F48073002B07D17B681B687A681268B2
:10178800126822F008021A607B681B6C002B03D0D9
:101798007B681B6C786898477B68DB6D20229A40D1
:1017A800FB681340002B00F08E807B681B681B6869
:1017B80003F01003002B00F086807B68DB6D20228D
:1017C8009A403B699A607B6893F83530DBB2052B09
:1017D80036D17B681B687A681268126822F0160294
:1017E8001A607B681B687A681268526922F0800266
:1017F8005A617B681B6C002B03D17B689B6C002BA8
:1018080007D07B681B687A681268126822F00802A1
:101818001A607B68DB6D3F229A403B699A607B685F
:10182800012283F835207B68002283F834207B6806
:101838001B6D002B7DD07B681B6D7868984778E01E
:101848007B681B681B6803F48023002B1CD07B6813
:101858001B681B6803F40023002B08D17B685B6CB2
:10186800002B30D07B685B6C786898472BE07B68EE
:10187800DB6B002B27D07B68DB6B7868984722E00E
:1018880000000020B5814E1B7B681B681B6803F4B1
:101898008073002B0FD17B681B687A681268126806
:1018A80022F010021A607B68012283F835207B68D9
:1018B800002283F834207B68DB6B002B03D07B6825
:1018C800DB6B786898477B685B6D002B32D07B6850
:1018D8005B6D03F00103002B22D07B68052283F89F
:1018E80035207B681B687A681268126822F001024A
:1018F8001A60BB680133BB607A69934207D87B687A
:101908001B681B6803F00103002BF2D100E000BF45
:101918007B68012283F835207B68002283F8342015
:101928007B68DB6C002B05D07B68DB6C786898479C
:1019380000E000BF1837BD4680BD00BF80B485B049
:1019480000AFF860B9607A603B60FB681B68FA68B2
:101958001268126822F480221A60FB681B683A68D1
:101968005A60FB689B68402B08D1FB681B687A6843
:101978009A60FB681B68BA68DA6007E0FB681B6856
:10198800BA689A60FB681B687A68DA6000BF143727
:10199800BD465DF8047B704780B485B000AF7860C1
:1019A8007B681B68DBB2103B144AA2FB03231B09AC
:1019B800FB60134AFB6813441B781A467B68DA6598
:1019C800FB68032B09D97B681B6823F47F7323F01A
:1019D80003031A1D7B689A6507E07B681B6823F47C
:1019E8007F7323F003037A6893657B689B6D1846C1
:1019F8001437BD465DF8047B704700BFABAAAAAA9E
:101A08007427000880B485B000AF78600023FB73AA
:101A18007B689B6ABB607B689B69002B1FD1BB6896
:101A2800032B55D801A252F823F000BF451A00082D
:101A3800571A0008451A0008D91A00087B68DB6A9B
:101A480003F08073002B45D00123FB7342E07B68D1
:101A5800DB6AB3F1C07F3FD10123FB733CE07B68B5
:101A68009B69B3F5005F21D1BB68032B36D801A26F
:101A780052F823F08D1A0008931A00088D1A0008EE
:101A8800A51A00080123FB732FE07B68DB6A03F0CB
:101A98008073002B24D00123FB7321E07B68DB6A71
:101AA800B3F1C07F1ED10123FB731BE0BB68022B7F
:101AB80002D9032B03D018E00123FB7315E07B68E0
:101AC800DB6A03F08073002B0ED00123FB730BE05D
:101AD80000BF0AE000BF08E000BF06E000BF04E066
:101AE80000BF02E000BF00E000BFFB7B18461437D0
:101AF800BD465DF8047B704780B489B000AF78605C
:101B0800396000237B6100233B610023BB61002314
:101B1800FB616BE10122FB6902FA03F37B613B681D
:101B28001A687B6913403B613A697B699A4240F0C5
:101B38005A813B685B6803F00303012B05D03B68BF
:101B48005B6803F00303022B30D17B689B68BB61A1
:101B5800FB695B00032202FA03F3DB43BA69134013
:101B6800BB613B68DA68FB695B0002FA03F3BA6998
:101B78001343BB617B68BA699A607B685B68BB6129
:101B88000122FB6902FA03F3DB43BA691340BB6124
:101B98003B685B681B0903F00102FB6902FA03F367
:101BA800BA691343BB617B68BA695A603B685B6872
:101BB80003F00303032B17D07B68DB68BB61FB6969
:101BC8005B00032202FA03F3DB43BA691340BB61EB
:101BD8003B689A68FB695B0002FA03F3BA6913432E
:101BE800BB617B68BA69DA603B685B6803F0030332
:101BF800022B23D1FB69DA087B68083253F82230BC
:101C0800BB61FB6903F007039B000F2202FA03F391
:101C1800DB43BA691340BB613B681A69FB6903F08F
:101C280007039B0002FA03F3BA691343BB61FB691C
:101C3800DA087B680832B96943F822107B681B68A8
:101C4800BB61FB695B00032202FA03F3DB43BA6959
:101C58001340BB613B685B6803F00302FB695B00F0
:101C680002FA03F3BA691343BB617B68BA691A6065
:101C78003B685B6803F44033002B00F0B48000231A
:101C8800FB605F4A5E4B5B6C43F4804353645C4B80
:101C98005B6C03F48043FB60FB685A4AFB699B0852
:101CA800023352F82330BB61FB6903F003039B0046
:101CB8000F2202FA03F3DB43BA691340BB617B6866
:101CC800514A93422BD07B68504A934225D07B6877
:101CD8004F4A93421FD07B684E4A934219D07B6883
:101CE8004D4A934213D07B684C4A93420DD07B688F
:101CF8004B4A934207D07B684A4A934201D1072353
:101D08000EE008230CE006230AE0052308E004237C
:101D180006E0032304E0022302E0012300E000239D
:101D2800FA6902F0030292009340BA691343BB6157
:101D38003449FB699B080233BA6941F823203A4BBE
:101D48001B68BB613B69DB43BA691340BB613B68F5
:101D58005B6803F48033002B03D0BA693B691343F3
:101D6800BB61314ABB6913602F4B5B68BB613B6940
:101D7800DB43BA691340BB613B685B6803F400331B
:101D8800002B03D0BA693B691343BB61264ABB6980
:101D98005360254B9B68BB613B69DB43BA691340C1
:101DA800BB613B685B6803F48013002B03D0BA69FE
:101DB8003B691343BB611C4ABB6993601A4BDB68E0
:101DC800BB613B69DB43BA691340BB613B685B6835
:101DD80003F40013002B03D0BA693B691343BB61BA
:101DE800114ABB69D360FB690133FB61FB690F2BA7
:101DF8007FF690AE00BF2437BD465DF8047B704780
:101E0800003802400038014000000240000402404F
:101E180000080240000C024000100240001402407A
:101E280000180240001C0240003C014080B586B00A
:101E380000AF78607B68002B01D1012364E27B68E6
:101E48001B6803F00103002B75D0A34B9B6803F0BC
:101E58000C03042B0CD0A04B9B6803F00C03082B3D
:101E680012D19D4B5B6803F48003B3F5800F0BD14F
:101E7800994B1B6803F40033002B5BD07B685B68CD
:101E8800002B57D101233FE27B685B68B3F5803FA5
:101E980006D1914A904B1B6843F4803313601DE0D0
:101EA8007B685B68B3F5A02F0CD18B4A8A4B1B6803
:101EB80043F480231360884A874B1B6843F48033BC
:101EC80013600BE0844A844B1B6823F4803313604F
:101ED800814A814B1B6823F4802313607B685B680D
:101EE800002B13D0FEF76AFD386108E0FEF766FDA7
:101EF80002463B69D31A642B01D9032304E2764BCB
:101F08001B6803F40033002BF0D014E0FEF756FDF5
:101F1800386108E0FEF752FD02463B69D31A642B8C
:101F280001D90323F0E16C4B1B6803F40033002B49
:101F3800F0D100E000BF7B681B6803F00203002BB0
:101F480063D0654B9B6803F00C03002B0BD0624BEE
:101F58009B6803F00C03082B1CD15F4B5B6803F4F0
:101F68008003002B16D15C4B1B6803F00203002B87
:101F780005D07B68DB68012B01D00123C4E15649F9
:101F8800554B1B6823F0F8027B681B69DB00134381
:101F98000B603AE07B68DB68002B20D04F4B0122B6
:101FA8001A60FEF70BFD386108E0FEF707FD0246F0
:101FB8003B69D31A022B01D90323A5E1464B1B68C1
:101FC80003F00203002BF0D04349434B1B6823F076
:101FD800F8027B681B69DB0013430B6015E03F4B7D
:101FE80000221A60FEF7EAFC386108E0FEF7E6FC1A
:101FF80002463B69D31A022B01D9032384E1364BED
:102008001B6803F00203002BF0D17B681B6803F008
:102018000803002B30D07B685B69002B16D0304B4F
:1020280001221A60FEF7CAFC386108E0FEF7C6FC18
:1020380002463B69D31A022B01D9032364E1264BDC
:102048005B6F03F00203002BF0D015E0244B002255
:102058001A60FEF7B3FC386108E0FEF7AFFC0246F1
:102068003B69D31A022B01D903234DE11A4B5B6F4D
:1020780003F00203002BF0D17B681B6803F0040314
:10208800002B00F0A0800023FB75134B1B6C03F0A2
:102098008053002B0FD10023BB600F4A0E4B1B6CE3
:1020A80043F0805313640C4B1B6C03F08053BB60EC
:1020B800BB680123FB750B4B1B6803F48073002B73
:1020C80021D1084A074B1B6843F480731360FEF75D
:1020D80075FC386111E000BF00380240000047423B
:1020E800800E474200700040FEF768FC02463B69DC
:1020F800D31A022B01D9032306E1854B1B6803F48D
:102108008073002BF0D07B689B68012B06D1814A35
:10211800804B1B6F43F0010313671CE07B689B68CF
:10212800052B0CD17B4A7B4B1B6F43F004031367D1
:10213800784A784B1B6F43F0010313670BE0754A2D
:10214800744B1B6F23F001031367724A714B1B6FAB
:1021580023F0040313677B689B68002B15D0FEF7F8
:102168002DFC38610AE0FEF729FC02463B69D31AC8
:1021780041F28832934201D90323C5E0654B1B6FB6
:1021880003F00203002BEED014E0FEF717FC3861D1
:102198000AE0FEF713FC02463B69D31A41F2883283
:1021A800934201D90323AFE05A4B1B6F03F002039C
:1021B800002BEED1FB7D012B05D1564A554B1B6CEC
:1021C80023F0805313647B689B69002B00F09B808D
:1021D800504B9B6803F00C03082B5CD07B689B6911
:1021E800022B41D14C4B00221A60FEF7E7FB386105
:1021F80008E0FEF7E3FB02463B69D31A022B01D93C
:10220800032381E0434B1B6803F00073002BF0D1DC
:1022180040497B68DA697B681B6A1A437B685B6A9A
:102228009B011A437B689B6A5B08013B1B041A43AA
:102238007B68DB6A1B0613434B60374B01221A602D
:10224800FEF7BCFB386108E0FEF7B8FB02463B69C5
:10225800D31A022B01D9032356E02E4B1B6803F037
:102268000073002BF0D04EE02B4B00221A60FEF7D3
:10227800A5FB386108E0FEF7A1FB02463B69D31ACB
:10228800022B01D903233FE0224B1B6803F00073A4
:10229800002BF0D137E07B689B69012B01D101232A
:1022A80032E01C4B5B68FB607B689B69012B28D084
:1022B800FB6803F480027B68DB699A4221D1FB68E2
:1022C80003F03F027B681B6A9A421AD1FA6847F604
:1022D800C07313407A68526A9201934211D1FB6825
:1022E80003F440327B689B6A5B08013B1B049A42FB
:1022F80007D1FB6803F070627B68DB6A1B069A42B1
:1023080001D0012300E0002318461837BD4680BDE0
:1023180000700040003802406000474280B584B039
:1023280000AF786039607B68002B01D10123CCE0D5
:10233800684B1B6803F007023B689A420CD2654B56
:102348003A68D2B21A70634B1B6803F007023B6805
:102358009A4201D00123B8E07B681B6803F00203AE
:10236800002B20D07B681B6803F00403002B05D0EA
:10237800594A594B9B6843F4E05393607B681B6848
:1023880003F00803002B05D0534A534B9B6843F4D2
:10239800604393605049504B9B6823F0F0027B6880
:1023A8009B6813438B607B681B6803F00103002B59
:1023B80044D07B685B68012B07D1474B1B6803F44B
:1023C8000033002B19D101237FE07B685B68022B67
:1023D80003D07B685B68032B07D13F4B1B6803F076
:1023E8000073002B09D101236FE03B4B1B6803F0FE
:1023F8000203002B01D1012367E03749364B9B6864
:1024080023F003027B685B6813438B60FEF7D6FA00
:10241800F8600AE0FEF7D2FA0246FB68D31A41F2E6
:102428008832934201D903234FE02B4B9B6803F07A
:102438000C027B685B689B009A42EBD1254B1B68BA
:1024480003F007023B689A420CD9224B3A68D2B291
:102458001A70204B1B6803F007023B689A4201D0B0
:10246800012332E07B681B6803F00403002B08D0CB
:102478001949194B9B6823F4E0527B68DB681343C6
:102488008B607B681B6803F00803002B09D0124996
:10249800114B9B6823F460427B681B69DB00134384
:1024A8008B6000F021F801460B4B9B681B0903F079
:1024B8000F030A4AD35C21FA03F3094A1360094B54
:1024C8001B681846FEF736FA002318461037BD4633
:1024D80080BD00BF003C024000380240642700086D
:1024E80000000020040000202DE9F04F8FB000AF5D
:1024F8000023FB6200237B630023BB6200233B6352
:10250800624B9B6803F00C03042B07D0082B08D000
:10251800002B40F0B2805E4B3B63B1E05D4B3B6308
:10252800AEE05A4B5B6803F03F03FB62574B5B68B6
:1025380003F48003002B4ED0544B5B689B094FF08B
:10254800000440F2FF114FF0000201EA030102EA21
:1025580004020B46144660017862786A40EAD36048
:1025680078625B013B62D7E908345B1A64EB0204CA
:102578004FEA841949EA93694FEA8318B8EB0308CC
:1025880069EB04094FEAC903FB61FB6943EA587325
:10259800FB614FEAC803BB61D7E9068918EB01085C
:1025A80049EB02094FEA49237B617B6943EAD85327
:1025B8007B614FEA48233B61D7E904894046494695
:1025C800FB6A4FF000041A462346FDF7F9FD03465F
:1025D8000C467B6343E02D4B5B689B094FF000047E
:1025E80040F2FF114FF0000201EA030102EA04027F
:1025F8000B4614466001F860F86840EAD360F8605A
:102608005B01BB60D7E902345B1A64EB0204A601E4
:1026180046EA93669D01ED1A66EB0406F3007B60BB
:102628007B6843EA55737B60EB003B6097E860008A
:102638006D1846EB02064FEA862B4BEA955B4FEA8C
:10264800852A55465E4628463146FB6A4FF0000407
:102658001A462346FDF7B4FD03460C467B630B4B35
:102668005B681B0C03F0030301335B00BB627A6BEE
:10267800BB6AB2FBF3F33B6302E0054B3B6300BF6D
:102688003B6B18463C37BD46BDE8F08F003802402A
:102698000024F40000127A00DFF834D00D480E4907
:1026A8000E4A002302E0D458C4500433C4188C42A4
:1026B800F9D30B4A0B4C002301E013600432A24209
:1026C800FBD3FEF703F900F011F8FDF701FF70479F
:1026D80000C00120000000200C0000208C2700080A
:1026E8000C000020DC000020FEE7000070B50D4E55
:1026F8000D4CA41BA4100025A54209D10B4E0C4C6F
:1027080000F020F8A41BA4100025A54205D170BD37
:1027180056F8253098470135EEE756F825309847A2
:102728000135F2E784270008842700088427000879
:102738008827000802440346934200D1704703F8F3
:10274800011BF9E7F8B500BFF8BC08BC9E46704706
:0C275800F8B500BFF8BC08BC9E467047F6
:10276400000000000000000001020304060708093D
:08277400000610160006101605
:08277C007CDAFF7F0100000080
:04278400AD0100089B
:0427880089010008BB
:0C278C000024F400100000000100000018
:04000005080026A128
:00000001FF
