:020000040800F2
:1000000000C00120B5490008154900081B49000837
:1000100021490008274900082D4900080000000078
:10002000000000000000000000000000334900084C
:1000300041490008000000004F4900085D490008E0
:10004000054A0008054A0008054A0008054A000854
:10005000054A0008054A0008054A0008054A000844
:10006000054A0008054A0008054A0008054A000834
:10007000054A0008054A0008054A0008054A000824
:10008000054A0008054A0008054A0008054A000814
:10009000054A0008054A0008054A0008054A000804
:1000A000054A0008054A0008054A0008054A0008F4
:1000B000054A0008054A0008054A0008054A0008E4
:1000C000054A0008054A0008054A0008054A0008D4
:1000D000054A000869490008A93B0008054A0008CC
:1000E000054A0008054A0008054A0008054A0008B4
:1000F000054A0008054A0008054A0008054A0008A4
:10010000054A0008054A0008054A0008054A000893
:10011000054A0008054A0008054A0008054A000883
:100120007D490008054A0008054A0008054A0008FC
:10013000054A0008054A0008054A0008054A000863
:10014000054A0008054A0008054A0008054A000853
:10015000054A0008054A0008054A0008054A000843
:10016000054A0008054A0008054A0008054A000833
:10017000054A0008054A0008054A0008000000007A
:08018000054A0008054A0008C9
:1001880010B5054C237833B9044B13B10448AFF3C9
:1001980000800123237010BDDC0100200000000056
:1001A800D84B000808B5034B1BB103490348AFF30C
:1001B800008008BD00000000E0010020D84B0008C6
:1001C80053B94AB9002908BF00281CBF4FF0FF31B6
:1001D8004FF0FF3000F07AB9ADF1080C6DE904CEAC
:1001E80000F006F8DDF804E0DDE9022304B070470A
:1001F8002DE9F0478C460D460446089E002B51D148
:100208008A4217466DD9B2FA82FEBEF1000F0BD0B2
:10021800CEF1200C01FA0EF520FA0CFC02FA0EF7CA
:100228004CEA050C00FA0EF44FEA174A250CBCFB01
:10023800FAF81FFA87F90AFB18CC45EA0C4508FBBF
:1002480009F3AB420AD9ED1908F1FF3280F0238196
:10025800AB4240F22081A8F102083D44ED1AA4B255
:10026800B5FBFAF00AFB105544EA054400FB09F90E
:10027800A14509D9E41900F1FF3380F00A81A145AD
:1002880040F2078102383C44A4EB090440EA0840E4
:100298000021002E61D024FA0EF40023346073602C
:1002A800BDE8F0878B4207D9002E54D0002186E89C
:1002B80021000846BDE8F087B3FA83F1002940F031
:1002C8008E80AB4202D3824200F2FA80841A65EB38
:1002D80003050120AC46002E3FD086E81010BDE88B
:1002E800F08712B90127B7FBF2F7B7FA87FEBEF11C
:1002F800000F34D1EB1B3A0C1FFA87FC0121B3FB2A
:10030800F2F8250C02FB183345EA03450CFB08F309
:10031800AB4207D9ED1908F1FF3002D2AB4200F227
:10032800D1808046ED1AA3B2B5FBF2F002FB10555E
:1003380043EA05440CFB00FCA44507D9E41900F185
:10034800FF3302D2A44500F2B8801846A4EB0C048F
:1003580040EA08409DE731463046BDE8F087CEF1D7
:10036800200405FA0EF307FA0EF720FA04F83A0CFF
:1003780025FA04F448EA0308B4FBF2F14FEA1845F9
:1003880002FB11441FFA87FC45EA044501FB0CF304
:10039800AB4200FA0EF409D9ED1901F1FF3080F0F3
:1003A8008A80AB4240F2878002393D44EB1A1FFA3B
:1003B80088F5B3FBF2F002FB103345EA034500FB76
:1003C8000CF3AB4207D9ED1900F1FF386FD2AB42FD
:1003D8006DD902383D44EB1A40EA01418FE7C1F17B
:1003E800200722FA07F88B4005FA01F448EA0303CC
:1003F80020FA07FE4FEA134CFD404EEA040EB5FB07
:10040800FCF94FEA1E440CFB19551FFA83F844EA1D
:10041800054509FB08F4AC4202FA01F200FA01FAB8
:1004280008D9ED1809F1FF3043D2AC4241D9A9F1FE
:1004380002091D442D1B1FFA8EFEB5FBFCF00CFBB8
:1004480010554EEA054400FB08F8A04507D9E41802
:1004580000F1FF3529D2A04527D902381C4440EACB
:100468000940A4EB0804A0FB02894C45C6464D464A
:1004780015D312D056B1BAEB0E0364EB050404FA97
:1004880007F7CB401F43CC40376074600021BDE8BC
:10049800F0871846F8E69046E0E6C245EAD2B8EB9F
:1004A800020E69EB03050138E4E72846D7E7404622
:1004B80091E78146BEE7014678E702383C4445E7C4
:1004C800084608E7A8F102083D442BE7704700BF3B
:1004D80080B500AF0E4A0E4B1B6843F400731360DF
:1004E8000B4A0B4B1B6843F480631360084A084BA4
:1004F8001B6843F480731360032000F08DFB0F200A
:1005080000F008F804F000F80023184680BD00BF8A
:10051800003C024080B582B000AF7860124B1A6888
:10052800124B1B7819464FF47A73B3FBF1F3B2FB05
:10053800F3F3184600F0A5FB0346002B01D0012376
:100548000EE07B680F2B0AD8002279684FF0FF3045
:1005580000F06DFB064A7B681360002300E001236E
:1005680018460837BD4680BD08000020040000205A
:100578000000002080B400AF064B1B781A46064BDB
:100588001B681344044A136000BFBD465DF8047B32
:10059800704700BF040000201002002080B400AFA4
:1005A800034B1B681846BD465DF8047B704700BFC7
:1005B8001002002080B584B000AF78600023FB7380
:1005C8007B68002B01D1012333E07B681B6C002B77
:1005D80009D1786803F0C0FF7B6800225A647B6801
:1005E800002283F83C207B681B6C03F01003002B6F
:1005F80018D17B681B6C23F4885323F0020343F063
:1006080002027B681A64786800F03CF97B68002273
:100618005A647B681B6C23F0030343F001027B6878
:100628001A6401E00123FB737B68002283F83C20F5
:10063800FB7B18461037BD4680BD000090B484B0DF
:1006480000AF786039600023BB607B6893F83C306A
:10065800012B01D1022307E17B68012283F83C20AA
:100668003B681B68092B26D97B681A687B681B685E
:10067800D9683B681B689BB2184603465B00034475
:100688001E3B072000FA03F3DB430B40D3607B6873
:100698001A687B681B68D9683B6898683B681B6860
:1006A8009BB21C4623465B0023441E3B00FA03F31F
:1006B8000B43D36023E07B681A687B681B68196961
:1006C8003B681B689BB2184603465B00034407203F
:1006D80000FA03F3DB430B4013617B681A687B68FD
:1006E8001B6819693B6898683B681B689BB21C4685
:1006F80023465B00234400FA03F30B4313613B6872
:100708005B68062B24D87B6819687B681B68586B64
:100718003B685A6813469B001344053B1F2202FAA4
:1007280003F3DB4303404B637B6819687B681B68F2
:10073800586B3B681B689BB21C463B685A6813465B
:100748009B001344053B04FA03F303434B634CE05B
:100758003B685B680C2B24D87B6819687B681B682E
:10076800186B3B685A6813469B001344233B1F22AF
:1007780002FA03F3DB4303400B637B6819687B6869
:100788001B68186B3B681B689BB21C463B685A6821
:1007980013469B001344233B04FA03F303430B6300
:1007A80023E07B6819687B681B68D86A3B685A68CD
:1007B80013469B001344413B1F2202FA03F3DB4319
:1007C8000340CB627B6819687B681B68D86A3B6802
:1007D8001B689BB21C463B685A6813469B0013442F
:1007E800413B04FA03F30343CB62224BFB607B6873
:1007F8001B68214A934209D13B681B68122B05D11B
:10080800FB685B6843F48002FB685A607B681B687E
:10081800194A934223D13B681B68102B03D03B68CD
:100828001B68112B1BD1FB685B6843F40002FB6853
:100838005A603B681B68102B11D1104B1B68104A7B
:10084800A2FB03239A0C13469B0013445B00BB6076
:1008580002E0BB68013BBB60BB68002BF9D17B6839
:10086800002283F83C20002318461037BD4690BC70
:10087800704700BF0023014000200140080000200D
:1008880083DE1B4380B485B000AF7860794BFB6092
:10089800FB685B6823F44032FB685A60FB685A685F
:1008A8007B685B681A43FB685A607B681B687A68D8
:1008B8001268526822F480725A607B681B687A68F2
:1008C800126851687A68126912020A435A607B6892
:1008D8001B687A681268526822F040725A607B6816
:1008E8001B687A68126851687A6892680A435A6085
:1008F8007B681B687A681268926822F400629A60C2
:100908007B681B687A68126891687A68D2680A43BB
:100918009A607B689B6A584A934222D07B681B681E
:100928007A681268926822F070629A607B681B6825
:100938007A68126891687A68926A0A439A607B6852
:100948001B687A681268926822F040529A607B6845
:100958001B687A68126891687A68D26A0A439A6052
:100968000FE07B681B687A681268926822F07062F0
:100978009A607B681B687A681268926822F0405215
:100988009A607B681B687A681268926822F0020293
:100998009A607B681B687A68126891687A68127E28
:1009A80052000A439A607B6893F82030002B1BD0D2
:1009B8007B681B687A681268526842F400625A6061
:1009C8007B681B687A681268526822F460425A6031
:1009D8007B681B687A68126851687A68526A013ABB
:1009E80052030A435A6007E07B681B687A681268FA
:1009F800526822F400625A607B681B687A68126841
:100A0800D26A22F47002DA627B681B687A6812681C
:100A1800D16A7A68D269013A12050A43DA627B68B8
:100A28001B687A681268926822F400729A607B6880
:100A38001B687A68126891687A6892F830205202C6
:100A48000A439A607B681B687A681268926822F485
:100A580080629A607B681B687A68126891687A6815
:100A6800526992020A439A6000BF1437BD465DF886
:100A7800047B7047002301400100000F80B485B05B
:100A880000AF78607B6803F00703FB600C4BDB6802
:100A9800BB60BA684FF6FF031340BB60FB681A02DD
:100AA800BB68134343F0BF6343F40033BB60044A9D
:100AB800BB68D36000BF1437BD465DF8047B704740
:100AC80000ED00E080B400AF044BDB681B0A03F0C4
:100AD80007031846BD465DF8047B704700ED00E04B
:100AE80080B483B000AF0346FB7197F90730002B41
:100AF8000BDB094997F907305B09FA7902F01F0205
:100B0800012000FA02F241F8232000BF0C37BD464D
:100B18005DF8047B704700BF00E100E080B483B05B
:100B280000AF03463960FB7197F90730002B0ADBE9
:100B38000D4997F907303A68D2B21201D2B20B4484
:100B480083F800230AE00949FB7903F00F03043B0B
:100B58003A68D2B21201D2B20B441A7600BF0C37EF
:100B6800BD465DF8047B704700E100E000ED00E061
:100B780080B489B000AFF860B9607A60FB6803F0B0
:100B88000703FB61FB69C3F10703042B28BF042398
:100B9800BB61FB690433062B02D9FB69033B00E008
:100BA80000237B610122BB6902FA03F35A1EBB686A
:100BB8001A407B699A4001217B6901FA03F3591EA7
:100BC8007B680B40134318462437BD465DF8047B09
:100BD8007047000080B582B000AF78607B68013B49
:100BE800B3F1807F01D301230FE00A4A7B68013B00
:100BF80053600F214FF0FF30FFF790FF054B0022A5
:100C08009A60044B07221A60002318460837BD462D
:100C180080BD00BF10E000E080B582B000AF786012
:100C28007868FFF72BFF00BF0837BD4680BD80B549
:100C380086B000AF0346B9607A60FB7300237B611E
:100C4800FFF740FF78617A68B9687869FFF790FF25
:100C5800024697F90F3011461846FFF75FFF00BFAD
:100C68001837BD4680BD80B582B000AF0346FB7122
:100C780097F907301846FFF733FF00BF0837BD461E
:100C880080BD80B582B000AF78607868FFF7A2FFBA
:100C9800034618460837BD4680BD000080B586B0BB
:100CA80000AF786000237B61FFF778FC38617B68D0
:100CB800002B01D1012399E07B68022283F83520BB
:100CC8007B68002283F834207B681B687A68126886
:100CD800126822F001021A600FE0FFF75FFC02467B
:100CE8003B69D31A052B08D97B6820225A657B6893
:100CF800032283F83520032378E07B681B681B6890
:100D080003F00103002BE8D17B681B681B687B613B
:100D18007A69384B13407B617B685A687B689B68AB
:100D28001A437B68DB681A437B681B691A437B6834
:100D38005B691A437B689B691A437B68DB691A43C2
:100D48007B681B6A13437A6913437B617B685B6A20
:100D5800042B07D17B68DA6A7B681B6B13437A69BB
:100D680013437B617B681B687A691A607B681B6820
:100D78005B697B617B6923F007037B617B685B6A46
:100D88007A6913437B617B685B6A042B17D17B68A4
:100D98009B6A7A6913437B617B68DB6A002B0ED000
:100DA800786800F07BFA0346002B08D07B68402265
:100DB8005A657B68012283F83520012316E07B6899
:100DC8001B687A695A61786800F032FA0346FB605A
:100DD8007B68DB6D3F229A40FB689A607B68002243
:100DE8005A657B68012283F8352000231846183796
:100DF800BD4680BD3F8010F080B584B000AF7860FC
:100E08007B689B6DFB60FFF7C9FBB8607B6893F854
:100E18003530DBB2022B08D07B6880225A657B68AC
:100E2800002283F83420012352E07B681B687A682B
:100E38001268126822F016021A607B681B687A68CA
:100E48001268526922F080025A617B681B6C002B81
:100E580003D17B689B6C002B07D07B681B687A6882
:100E68001268126822F008021A607B681B687A68A8
:100E78001268126822F001021A6013E0FFF78EFB75
:100E88000246BB68D31A052B0CD97B6820225A6509
:100E98007B68032283F835207B68002283F834209E
:100EA800032315E07B681B681B6803F00103002B14
:100EB800E4D17B68DB6D3F229A40FB689A607B68CF
:100EC800012283F835207B68002283F83420002330
:100ED80018461037BD4680BD80B483B000AF786037
:100EE8007B6893F83530DBB2022B04D07B68802214
:100EF8005A6501230CE07B68052283F835207B685E
:100F08001B687A681268126822F001021A600023CE
:100F180018460C37BD465DF8047B704780B586B02F
:100F280000AF78600023BB60924B1B68924AA2FB1B
:100F380003239B0A7B617B689B6D3B613B691B6854
:100F4800FB607B68DB6D08229A40FB681340002B2E
:100F58001AD07B681B681B6803F00403002B13D0AE
:100F68007B681B687A681268126822F004021A60AB
:100F78007B68DB6D08229A403B699A607B685B6DF1
:100F880043F001027B685A657B68DB6D01229A4059
:100F9800FB681340002B12D07B681B685B6903F069
:100FA8008003002B0BD07B68DB6D01229A403B69E4
:100FB8009A607B685B6D43F002027B685A657B68C8
:100FC800DB6D04229A40FB681340002B12D07B682B
:100FD8001B681B6803F00203002B0BD07B68DB6DDA
:100FE80004229A403B699A607B685B6D43F0040277
:100FF8007B685A657B68DB6D10229A40FB6813405A
:10100800002B43D07B681B681B6803F00803002B88
:101018003CD07B68DB6D10229A403B699A607B6804
:101028001B681B6803F48023002B18D07B681B689F
:101038001B6803F40023002B08D17B681B6C002B72
:1010480024D07B681B6C786898471FE07B689B6C92
:10105800002B1BD07B689B6C7868984716E07B68F0
:101068001B681B6803F48073002B07D17B681B681F
:101078007A681268126822F008021A607B681B6C92
:10108800002B03D07B681B6C786898477B68DB6D06
:1010980020229A40FB681340002B00F08E807B686A
:1010A8001B681B6803F01003002B00F086807B6828
:1010B800DB6D20229A403B699A607B6893F8353053
:1010C800DBB2052B36D17B681B687A681268126818
:1010D80022F016021A607B681B687A6812685269E7
:1010E80022F080025A617B681B6C002B03D17B685D
:1010F8009B6C002B07D07B681B687A6812681268A3
:1011080022F008021A607B68DB6D3F229A403B6937
:101118009A607B68012283F835207B68002283F877
:1011280034207B681B6D002B7DD07B681B6D786835
:10113800984778E07B681B681B6803F48023002BC2
:101148001CD07B681B681B6803F40023002B08D1A4
:101158007B685B6C002B30D07B685B6C7868984749
:101168002BE07B68DB6B002B27D07B68DB6B786818
:10117800984722E008000020B5814E1B7B681B6859
:101188001B6803F48073002B0FD17B681B687A6897
:101198001268126822F010021A607B68012283F834
:1011A80035207B68002283F834207B68DB6B002BBA
:1011B80003D07B68DB6B786898477B685B6D002B96
:1011C80032D07B685B6D03F00103002B22D07B6873
:1011D800052283F835207B681B687A6812681268D4
:1011E80022F001021A60BB680133BB607A6993423E
:1011F80007D87B681B681B6803F00103002BF2D13A
:1012080000E000BF7B68012283F835207B6800225C
:1012180083F834207B68DB6C002B05D07B68DB6CA3
:101228007868984700E000BF1837BD4680BD00BF0A
:1012380080B485B000AF78607B681B68DBB2103B78
:10124800144AA2FB03231B09FB60134AFB681344DF
:101258001B781A467B68DA65FB68032B09D97B681B
:101268001B6823F47F7323F003031A1D7B689A65B8
:1012780007E07B681B6823F47F7323F003037A6815
:1012880093657B689B6D18461437BD465DF8047BF3
:10129800704700BFABAAAAAAF04B000880B485B07B
:1012A80000AF78600023FB737B689B6ABB607B6838
:1012B8009B69002B1FD1BB68032B55D801A252F89C
:1012C80023F000BFDD120008EF120008DD1200084D
:1012D800711300087B68DB6A03F08073002B45D02C
:1012E8000123FB7342E07B68DB6AB3F1C07F3FD127
:1012F8000123FB733CE07B689B69B3F5005F21D158
:10130800BB68032B36D801A252F823F02513000836
:101318002B130008251300083D1300080123FB7355
:101328002FE07B68DB6A03F08073002B24D0012355
:10133800FB7321E07B68DB6AB3F1C07F1ED1012318
:10134800FB731BE0BB68022B02D9032B03D018E008
:101358000123FB7315E07B68DB6A03F08073002BC5
:101368000ED00123FB730BE000BF0AE000BF08E0CA
:1013780000BF06E000BF04E000BF02E000BF00E0DD
:1013880000BFFB7B18461437BD465DF8047B7047E9
:1013980080B489B000AF7860396000237B61002396
:1013A8003B610023BB610023FB616BE10122FB6908
:1013B80002FA03F37B613B681A687B6913403B615F
:1013C8003A697B699A4240F05A813B685B6803F04E
:1013D8000303012B05D03B685B6803F00303022B72
:1013E80030D17B689B68BB61FB695B00032202FA12
:1013F80003F3DB43BA691340BB613B68DA68FB69F6
:101408005B0002FA03F3BA691343BB617B68BA69EC
:101418009A607B685B68BB610122FB6902FA03F38F
:10142800DB43BA691340BB613B685B681B0903F087
:101438000102FB6902FA03F3BA691343BB617B68D3
:10144800BA695A603B685B6803F00303032B17D043
:101458007B68DB68BB61FB695B00032202FA03F36C
:10146800DB43BA691340BB613B689A68FB695B0060
:1014780002FA03F3BA691343BB617B68BA69DA609D
:101488003B685B6803F00303022B23D1FB69DA088E
:101498007B68083253F82230BB61FB6903F007030D
:1014A8009B000F2202FA03F3DB43BA691340BB61C6
:1014B8003B681A69FB6903F007039B0002FA03F310
:1014C800BA691343BB61FB69DA087B680832B969FA
:1014D80043F822107B681B68BB61FB695B00032231
:1014E80002FA03F3DB43BA691340BB613B685B68EC
:1014F80003F00302FB695B0002FA03F3BA691343C2
:10150800BB617B68BA691A603B685B6803F4403367
:10151800002B00F0B4800023FB605F4A5E4B5B6CDD
:1015280043F4804353645C4B5B6C03F48043FB607F
:10153800FB685A4AFB699B08023352F82330BB61A7
:10154800FB6903F003039B000F2202FA03F3DB435A
:10155800BA691340BB617B68514A93422BD07B68C0
:10156800504A934225D07B684F4A93421FD07B68EC
:101578004E4A934219D07B684D4A934213D07B68F8
:101588004C4A93420DD07B684B4A934207D07B6804
:101598004A4A934201D107230EE008230CE00623B0
:1015A8000AE0052308E0042306E0032304E00223FD
:1015B80002E0012300E00023FA6902F0030292002E
:1015C8009340BA691343BB613449FB699B080233F2
:1015D800BA6941F823203A4B1B68BB613B69DB437E
:1015E800BA691340BB613B685B6803F48033002B26
:1015F80003D0BA693B691343BB61314ABB691360C5
:101608002F4B5B68BB613B69DB43BA691340BB6125
:101618003B685B6803F40033002B03D0BA693B696D
:101628001343BB61264ABB695360254B9B68BB616A
:101638003B69DB43BA691340BB613B685B6803F4F1
:101648008013002B03D0BA693B691343BB611C4A62
:10165800BB6993601A4BDB68BB613B69DB43BA69C2
:101668001340BB613B685B6803F40013002B03D095
:10167800BA693B691343BB61114ABB69D360FB6913
:101688000133FB61FB690F2B7FF690AE00BF243757
:10169800BD465DF8047B70470038024000380140C1
:1016A800000002400004024000080240000C024012
:1016B800001002400014024000180240001C0240C2
:1016C800003C014080B586B000AF78607B68002B95
:1016D80001D1012364E27B681B6803F00103002B3E
:1016E80075D0A34B9B6803F00C03042B0CD0A04BC4
:1016F8009B6803F00C03082B12D19D4B5B6803F425
:101708008003B3F5800F0BD1994B1B6803F40033AA
:10171800002B5BD07B685B68002B57D101233FE22D
:101728007B685B68B3F5803F06D1914A904B1B6894
:1017380043F4803313601DE07B685B68B3F5A02F2A
:101748000CD18B4A8A4B1B6843F480231360884A68
:10175800874B1B6843F4803313600BE0844A844B47
:101768001B6823F480331360814A814B1B6823F480
:10177800802313607B685B68002B13D0FEF70EFF95
:10178800386108E0FEF70AFF02463B69D31A642B6A
:1017980001D9032304E2764B1B6803F40033002BC2
:1017A800F0D014E0FEF7FAFE386108E0FEF7F6FE26
:1017B80002463B69D31A642B01D90323F0E16C4B31
:1017C8001B6803F40033002BF0D100E000BF7B68F6
:1017D8001B6803F00203002B63D0654B9B6803F082
:1017E8000C03002B0BD0624B9B6803F00C03082BF7
:1017F8001CD15F4B5B6803F48003002B16D15C4B54
:101808001B6803F00203002B05D07B68DB68012B03
:1018180001D00123C4E15649554B1B6823F0F80257
:101828007B681B69DB0013430B603AE07B68DB686D
:10183800002B20D04F4B01221A60FEF7AFFE386113
:1018480008E0FEF7ABFE02463B69D31A022B01D92A
:101858000323A5E1464B1B6803F00203002BF0D0DD
:101868004349434B1B6823F0F8027B681B69DB0084
:1018780013430B6015E03F4B00221A60FEF78EFE03
:10188800386108E0FEF78AFE02463B69D31A022B4C
:1018980001D9032384E1364B1B6803F00203002BB4
:1018A800F0D17B681B6803F00803002B30D07B68FD
:1018B8005B69002B16D0304B01221A60FEF76EFED2
:1018C800386108E0FEF76AFE02463B69D31A022B2C
:1018D80001D9032364E1264B5B6F03F00203002B5D
:1018E800F0D015E0244B00221A60FEF757FE38614D
:1018F80008E0FEF753FE02463B69D31A022B01D9D2
:1019080003234DE11A4B5B6F03F00203002BF0D168
:101918007B681B6803F00403002B00F0A080002301
:10192800FB75134B1B6C03F08053002B0FD1002366
:10193800BB600F4A0E4B1B6C43F0805313640C4B77
:101948001B6C03F08053BB60BB680123FB750B4B1A
:101958001B6803F48073002B21D1084A074B1B68CE
:1019680043F480731360FEF719FE386111E000BF7D
:101978000038024000004742800E47420070004095
:10198800FEF70CFE02463B69D31A022B01D903234A
:1019980006E1854B1B6803F48073002BF0D07B684D
:1019A8009B68012B06D1814A804B1B6F43F00103D2
:1019B80013671CE07B689B68052B0CD17B4A7B4B2B
:1019C8001B6F43F004031367784A784B1B6F43F08F
:1019D800010313670BE0754A744B1B6F23F0010377
:1019E8001367724A714B1B6F23F0040313677B68FC
:1019F8009B68002B15D0FEF7D1FD38610AE0FEF791
:101A0800CDFD02463B69D31A41F28832934201D98F
:101A18000323C5E0654B1B6F03F00203002BEED0D8
:101A280014E0FEF7BBFD38610AE0FEF7B7FD024699
:101A38003B69D31A41F28832934201D90323AFE0BC
:101A48005A4B1B6F03F00203002BEED1FB7D012BD9
:101A580005D1564A554B1B6C23F0805313647B68A1
:101A68009B69002B00F09B80504B9B6803F00C0394
:101A7800082B5CD07B689B69022B41D14C4B002220
:101A88001A60FEF78BFD386108E0FEF787FD024615
:101A98003B69D31A022B01D9032381E0434B1B680E
:101AA80003F00073002BF0D140497B68DA697B684A
:101AB8001B6A1A437B685B6A9B011A437B689B6AB3
:101AC8005B08013B1B041A437B68DB6A1B06134354
:101AD8004B60374B01221A60FEF760FD386108E061
:101AE800FEF75CFD02463B69D31A022B01D903239A
:101AF80056E02E4B1B6803F00073002BF0D04EE02D
:101B08002B4B00221A60FEF749FD386108E0FEF70A
:101B180045FD02463B69D31A022B01D903233FE056
:101B2800224B1B6803F00073002BF0D137E07B6871
:101B38009B69012B01D1012332E01C4B5B68FB60E0
:101B48007B689B69012B28D0FB6803F480027B68C3
:101B5800DB699A4221D1FB6803F03F027B681B6A6C
:101B68009A421AD1FA6847F6C07313407A68526AE3
:101B78009201934211D1FB6803F440327B689B6A5F
:101B88005B08013B1B049A4207D1FB6803F07062B3
:101B98007B68DB6A1B069A4201D0012300E0002320
:101BA80018461837BD4680BD007000400038024016
:101BB8006000474280B584B000AF786039607B68C8
:101BC800002B01D10123CCE0684B1B6803F007020E
:101BD8003B689A420CD2654B3A68D2B21A70634B92
:101BE8001B6803F007023B689A4201D00123B8E062
:101BF8007B681B6803F00203002B20D07B681B68FE
:101C080003F00403002B05D0594A594B9B6843F451
:101C1800E05393607B681B6803F00803002B05D032
:101C2800534A534B9B6843F4604393605049504B6D
:101C38009B6823F0F0027B689B6813438B607B688A
:101C48001B6803F00103002B44D07B685B68012B01
:101C580007D1474B1B6803F40033002B19D101232C
:101C68007FE07B685B68022B03D07B685B68032B93
:101C780007D13F4B1B6803F00073002B09D10123E8
:101C88006FE03B4B1B6803F00203002B01D10123DB
:101C980067E03749364B9B6823F003027B685B6833
:101CA80013438B60FEF77AFCF8600AE0FEF776FCD7
:101CB8000246FB68D31A41F28832934201D90323C2
:101CC8004FE02B4B9B6803F00C027B685B689B0022
:101CD8009A42EBD1254B1B6803F007023B689A42F6
:101CE8000CD9224B3A68D2B21A70204B1B6803F009
:101CF80007023B689A4201D0012332E07B681B68E7
:101D080003F00403002B08D01949194B9B6823F4EE
:101D1800E0527B68DB6813438B607B681B6803F0C9
:101D28000803002B09D01249114B9B6823F4604229
:101D38007B681B69DB0013438B6000F021F80146C8
:101D48000B4B9B681B0903F00F030A4AD35C21FA6B
:101D580003F3094A1360094B1B681846FEF7DAFBC0
:101D6800002318461037BD4680BD00BF003C024026
:101D780000380240F84B000808000020000000204E
:101D88002DE9F04F8FB000AF0023FB6200237B6387
:101D98000023BB6200233B63624B9B6803F00C0388
:101DA800042B07D0082B08D0002B40F0B2805E4BE4
:101DB8003B63B1E05D4B3B63AEE05A4B5B6803F0BD
:101DC8003F03FB62574B5B6803F48003002B4ED044
:101DD800544B5B689B094FF0000440F2FF114FF031
:101DE800000201EA030102EA04020B4614466001FC
:101DF8007862786A40EAD36078625B013B62D7E92F
:101E080008345B1A64EB02044FEA841949EA9369BF
:101E18004FEA8318B8EB030869EB04094FEAC903D2
:101E2800FB61FB6943EA5873FB614FEAC803BB6176
:101E3800D7E9068918EB010849EB02094FEA49235B
:101E48007B617B6943EAD8537B614FEA48233B6156
:101E5800D7E9048940464946FB6A4FF000041A4610
:101E68002346FEF7ADF903460C467B6343E02D4B52
:101E78005B689B094FF0000440F2FF114FF000022D
:101E880001EA030102EA04020B4614466001F86005
:101E9800F86840EAD360F8605B01BB60D7E90234B8
:101EA8005B1A64EB0204A60146EA93669D01ED1AEB
:101EB80066EB0406F3007B607B6843EA55737B603E
:101EC800EB003B6097E860006D1846EB02064FEAAE
:101ED800862B4BEA955B4FEA852A55465E4628468F
:101EE8003146FB6A4FF000041A462346FEF768F9AC
:101EF80003460C467B630B4B5B681B0C03F0030328
:101F080001335B00BB627A6BBB6AB2FBF3F33B63E2
:101F180002E0054B3B6300BF3B6B18463C37BD46B0
:101F2800BDE8F08F003802400024F40000127A0067
:101F380080B400AF034B1B681846BD465DF8047BB0
:101F4800704700BF0800002080B500AFFFF7F0FF22
:101F58000146054B9B689B0A03F00703034AD35CC1
:101F680021FA03F3184680BD00380240084C0008E7
:101F780080B500AFFFF7DCFF0146054B9B685B0BA4
:101F880003F00703034AD35C21FA03F3184680BD24
:101F980000380240084C000880B582B000AF786075
:101FA8007B68002B01D1012341E07B6893F83D3029
:101FB800DBB2002B06D17B68002283F83C207868CE
:101FC80002F0BCFB7B68022283F83D207B681A681C
:101FD8007B6804331946104600F0ECFA7B6801224E
:101FE80083F846207B68012283F83E207B68012223
:101FF80083F83F207B68012283F840207B68012218
:1020080083F841207B68012283F842207B68012203
:1020180083F843207B68012283F844207B680122EF
:1020280083F845207B68012283F83D200023184669
:102038000837BD4680BD000080B584B000AF786029
:1020480039603B68002B09D17B6893F83E30DBB2DE
:10205800012B14BF01230023DBB222E03B68042BD1
:1020680009D17B6893F83F30DBB2012B14BF012301
:102078000023DBB215E03B68082B09D17B6893F895
:102088004030DBB2012B14BF01230023DBB208E090
:102098007B6893F84130DBB2012B14BF0123002386
:1020A800DBB2002B01D001237CE03B68002B04D17C
:1020B8007B68022283F83E2013E03B68042B04D19E
:1020C8007B68022283F83F200BE03B68082B04D191
:1020D8007B68022283F8402003E07B68022283F8B1
:1020E80041207B681B6801223968184600F0B2FC61
:1020F8007B681B682D4A934204D07B681B682C4A76
:10210800934201D1012300E00023002B07D07B6814
:102118001B687A681268526C42F400425A647B6801
:102128001B68224A934222D07B681B68B3F1804F18
:102138001DD07B681B681F4A934218D07B681B68B8
:102148001D4A934213D07B681B681C4A93420ED0E9
:102158007B681B68164A934209D07B681B68184A3B
:10216800934204D07B681B68164A934211D17B685E
:102178001B689B6803F00703FB60FB68062B10D005
:102188007B681B687A681268126842F001021A605C
:1021980007E07B681B687A681268126842F00102DF
:1021A8001A60002318461037BD4680BD0000014064
:1021B800000401400004004000080040000C0040FA
:1021C800004001400018004080B586B000AF78603C
:1021D80039607B68002B01D1012397E07B6893F875
:1021E8003D30DBB2002B06D17B68002283F83C200F
:1021F800786802F029FA7B68022283F83D207B6820
:102208001A687B681B689B6823F4804323F00703E4
:1022180093607B681A687B6804331946104600F09F
:10222800C9F97B681B689B687B617B681B689B6935
:102238003B617B681B681B6AFB603B681B687A69AB
:1022480013437B613B6923F4407323F003033B6131
:102258003B689A683B689B691B0213433A691343BE
:102268003B613B6923F4406323F00C033B613B690A
:1022780023F4704323F0F0033B613B68DA683B6862
:10228800DB691B0213433A6913433B613B681B69D3
:102298001A013B681B6A1B0313433A6913433B61EA
:1022A800FB6823F02203FB60FB6823F08803FB60D4
:1022B8003B685A683B685B691B011343FA68134320
:1022C800FB607B681B687A699A607B681B683A695F
:1022D8009A617B681B68FA681A627B68012283F836
:1022E80046207B68012283F83E207B68012283F820
:1022F8003F207B68012283F842207B68012283F813
:1023080043207B68012283F83D20002318461837B4
:10231800BD4680BD80B584B000AF786039607B6809
:1023280093F83E30FB737B6893F83F30BB737B6850
:1023380093F842307B737B6893F843303B733B6878
:10234800002B10D1FB7B012B02D17B7B012B01D011
:10235800012368E07B68022283F83E207B68022222
:1023680083F8422031E03B68042B10D1BB7B012B62
:1023780002D13B7B012B01D0012354E07B68022270
:1023880083F83F207B68022283F843201DE0FB7B13
:10239800012B08D1BB7B012B05D17B7B012B02D103
:1023A8003B7B012B01D001233DE07B68022283F8AF
:1023B8003E207B68022283F83F207B68022283F854
:1023C80042207B68022283F843203B68002B02D01E
:1023D800042B08D00FE07B681B68012200211846F7
:1023E80000F038FB16E07B681B68012204211846C0
:1023F80000F030FB0EE07B681B68012200211846C4
:1024080000F028FB7B681B6801220421184600F0B5
:1024180021FB00BF7B681B687A681268126842F06B
:1024280001021A60002318461037BD4680BD00001F
:1024380080B586B000AFF860B9607A600023FB759C
:10244800FB6893F83C30012B01D10223AEE0FB6816
:10245800012283F83C207B680C2B00F29F8001A2AC
:1024680052F823F0A1240008A5250008A525000896
:10247800A5250008E1240008A5250008A5250008D1
:10248800A525000823250008A5250008A52500087E
:10249800A525000863250008FB681B68B96818466D
:1024A80000F028F9FB681B68FA681268926942F024
:1024B80008029A61FB681B68FA681268926922F040
:1024C80004029A61FB681B68FA6812689169BA6825
:1024D80012690A439A6164E0FB681B68B968184688
:1024E80000F078F9FB681B68FA681268926942F490
:1024F80000629A61FB681B68FA681268926922F4A4
:1025080080629A61FB681B68FA6812689169BA6808
:10251800126912020A439A6143E0FB681B68B968B2
:10252800184600F0CDF9FB681B68FA681268D26992
:1025380042F00802DA61FB681B68FA681268D2691F
:1025480022F00402DA61FB681B68FA681268D16934
:10255800BA6812690A43DA6123E0FB681B68B96844
:10256800184600F021FAFB681B68FA681268D269FD
:1025780042F40062DA61FB681B68FA681268D26983
:1025880022F48062DA61FB681B68FA681268D16914
:10259800BA68126912020A43DA6102E00123FB7584
:1025A80000BFFB68002283F83C20FB7D18461837E3
:1025B800BD4680BD80B485B000AF786039607B6867
:1025C8001B68FB607B68404A934213D07B68B3F179
:1025D800804F0FD07B683D4A93420BD07B683C4AC2
:1025E800934207D07B683B4A934203D07B683A4AC0
:1025F800934208D1FB6823F07003FB603B685B687B
:10260800FA681343FB607B682F4A93422BD07B68A0
:10261800B3F1804F27D07B682C4A934223D07B6844
:102628002B4A93421FD07B682A4A93421BD07B686F
:10263800294A934217D07B68284A934213D07B6873
:10264800274A93420FD07B68264A93420BD07B6877
:10265800254A934207D07B68244A934203D07B687B
:10266800234A934208D1FB6823F44073FB603B681C
:10267800DB68FA681343FB60FB6823F080023B6861
:102688005B691343FB607B68FA681A603B689A6869
:102698007B68DA623B681A687B689A627B680A4AD8
:1026A800934203D07B680C4A934203D13B681A6972
:1026B8007B681A637B6801225A6100BF1437BD46E4
:1026C8005DF8047B704700BF000001400004004033
:1026D80000080040000C0040000401400040014098
:1026E800004401400048014000180040001C004020
:1026F8000020004080B487B000AF786039607B6804
:102708001B6A23F001027B681A627B681B6A7B6183
:102718007B685B683B617B689B69FB60FB6823F0B7
:102728007003FB60FB6823F00303FB603B681B68D6
:10273800FA681343FB607B6923F002037B613B6803
:102748009B687A6913437B617B68204A934203D074
:102758007B681F4A93420CD17B6923F008037B6195
:102768003B68DB687A6913437B617B6923F0040368
:102778007B617B68154A934203D07B68144A934275
:1027880011D13B6923F480733B613B6923F40073E7
:102798003B613B685B693A6913433B613B689B69F2
:1027A8003A6913433B617B683A695A607B68FA6807
:1027B8009A613B685A687B685A637B687A691A62CF
:1027C80000BF1C37BD465DF8047B70470000014020
:1027D8000004014080B487B000AF786039607B683E
:1027E8001B6A23F010027B681A627B681B6A7B6194
:1027F8007B685B683B617B689B69FB60FB6823F4D3
:10280800E043FB60FB6823F44073FB603B681B6894
:102818001B02FA681343FB607B6923F020037B618A
:102828003B689B681B017A6913437B617B68224A7A
:10283800934203D07B68214A93420DD17B6923F0F0
:1028480080037B613B68DB681B017A6913437B610A
:102858007B6923F040037B617B68174A934203D06E
:102868007B68164A934213D13B6923F480633B612A
:102878003B6923F400633B613B685B699B003A69F1
:1028880013433B613B689B699B003A6913433B6177
:102898007B683A695A607B68FA689A613B685A684B
:1028A8007B689A637B687A691A6200BF1C37BD46E9
:1028B8005DF8047B704700BF000001400004014040
:1028C80080B487B000AF786039607B681B6A23F4F6
:1028D80080727B681A627B681B6A7B617B685B68B5
:1028E8003B617B68DB69FB60FB6823F07003FB607E
:1028F800FB6823F00303FB603B681B68FA6813431B
:10290800FB607B6923F400737B613B689B681B0257
:102918007A6913437B617B68214A934203D07B68C1
:10292800204A93420DD17B6923F400637B613B68A5
:10293800DB681B027A6913437B617B6923F480633C
:102948007B617B68164A934203D07B68154A9342A1
:1029580013D13B6923F480533B613B6923F4005353
:102968003B613B685B691B013A6913433B613B6808
:102978009B691B013A6913433B617B683A695A605A
:102988007B68FA68DA613B685A687B68DA637B6857
:102998007A691A6200BF1C37BD465DF8047B704730
:1029A800000001400004014080B487B000AF7860A7
:1029B80039607B681B6A23F480527B681A627B68E3
:1029C8001B6A3B617B685B687B617B68DB69FB60DA
:1029D800FB6823F4E043FB60FB6823F44073FB606F
:1029E8003B681B681B02FA681343FB603B6923F4CE
:1029F80000533B613B689B681B033A6913433B6187
:102A08007B68124A934203D07B68114A934209D1EA
:102A18007B6923F480437B613B685B699B017A692E
:102A280013437B617B687A695A607B68FA68DA616C
:102A38003B685A687B681A647B683A691A6200BF07
:102A48001C37BD465DF8047B704700BF000001409D
:102A58000004014080B487B000AFF860B9607A60C4
:102A6800BB6803F01F03012202FA03F37B61FB68D2
:102A78001A6A7B69DB431A40FB681A62FB681A6AA8
:102A8800BB6803F01F03796801FA03F31A43FB6874
:102A98001A6200BF1C37BD465DF8047B7047000012
:102AA80080B485B000AF786039607B6893F83C30BB
:102AB800012B01D102235AE07B68012283F83C20D4
:102AC8007B68022283F83D207B681B685B68FB609B
:102AD8007B681B689B68BB60FB6823F07003FB6026
:102AE8003B681B68FA681343FB607B681B68FA68DD
:102AF8005A607B681B68214A934222D07B681B6816
:102B0800B3F1804F1DD07B681B681D4A934218D0D3
:102B18007B681B681B4A934213D07B681B681A4A60
:102B280093420ED07B681B68184A934209D07B6891
:102B38001B68174A934204D07B681B68154A934266
:102B48000CD1BB6823F08003BB603B685B68BA6844
:102B58001343BB607B681B68BA689A607B68012274
:102B680083F83D207B68002283F83C200023184628
:102B78001437BD465DF8047B704700BF0000014074
:102B88000004004000080040000C00400004014020
:102B9800004001400018004080B582B000AF786066
:102BA8007B68002B01D101233FE07B6893F83D301F
:102BB800DBB2002B06D17B68002283F83C207868C2
:102BC80001F018FE7B68242283F83D207B681B688F
:102BD8007A681268D26822F40052DA60786800F0E5
:102BE8001BFE7B681B687A681268126922F490429F
:102BF8001A617B681B687A681268526922F02A0297
:102C08005A617B681B687A681268D26842F400527D
:102C1800DA607B6800221A647B68202283F83D20F2
:102C28007B68202283F83E20002318460837BD46DB
:102C380080BD80B58AB002AFF860B9603B601346CA
:102C4800FB8000237B61FB6893F83D30DBB2202BCF
:102C58007BD1BB68002B02D0FB88002B01D101235C
:102C680074E0FB6893F83C30012B01D102236DE03E
:102C7800FB68012283F83C20FB6800221A64FB6889
:102C8800212283F83D20FDF789FC7861FB68FA88EA
:102C98009A84FB68FA88DA84FB689B68B3F5805FDE
:102CA80008D1FB681B69002B04D10023FB61BB68BA
:102CB800BB6103E0BB68FB610023BB61FB680022CA
:102CC80083F83C2029E03B6800937B69002280213F
:102CD800F86800F099FB0346002B01D0032335E088
:102CE800FB69002B0AD1FB681B68BA691288C2F31A
:102CF80008025A60BB690233BB6107E0FB681B68C6
:102D0800FA6912785A60FB690133FB61FB68DB8C56
:102D18009BB2013B9AB2FB68DA84FB68DB8C9BB2FE
:102D2800002BD0D13B6800937B6900224021F868D2
:102D380000F06AFB0346002B01D0032306E0FB6882
:102D4800202283F83D20002300E002231846203784
:102D5800BD4680BD80B58AB002AFF860B9603B60FF
:102D68001346FB8000237B61FB6893F83E30DBB29F
:102D7800202B40F08C80BB68002B02D0FB88002BF6
:102D880001D1012384E0FB6893F83C30012B01D189
:102D980002237DE0FB68012283F83C20FB680022C7
:102DA8001A64FB68222283F83E20FB6800221A631B
:102DB800FDF7F4FB7861FB68FA889A85FB68FA8866
:102DC800DA85FB689B68B3F5805F08D1FB681B69EF
:102DD800002B04D10023FB61BB68BB6103E0BB6827
:102DE800FB610023BB61FB68002283F83C2043E0C1
:102DF8003B6800937B6900222021F86800F004FBFF
:102E08000346002B01D0032342E0FB69002B0CD1C1
:102E1800FB681B685B689BB2C3F308039AB2BB6983
:102E28001A80BB690233BB611FE0FB689B68B3F57E
:102E3800805F07D0FB689B68002B0AD1FB681B6981
:102E4800002B06D1FB681B685B68DAB2FB691A7055
:102E580008E0FB681B685B68DBB203F07F03DAB24B
:102E6800FB691A70FB690133FB61FB68DB8D9BB260
:102E7800013B9AB2FB68DA85FB68DB8D9BB2002BBD
:102E8800B6D1FB68202283F83E20002300E002230D
:102E980018462037BD4680BD80B5BAB000AF78600F
:102EA8007B681B681B68C7F8E4307B681B68DB68B5
:102EB800C7F8E0307B681B685B69C7F8DC30002323
:102EC800C7F8D8300023C7F8D430D7F8E43003F077
:102ED8000F03C7F8D830D7F8D830002B0FD1D7F860
:102EE800E43003F02003002B09D0D7F8E03003F0DA
:102EF8002003002B03D0786800F0D2FB57E2D7F804
:102F0800D830002B00F0DE80D7F8DC3003F0010366
:102F1800002B06D1D7F8E03003F49073002B00F0B3
:102F2800D180D7F8E43003F00103002B0BD0D7F899
:102F3800E03003F48073002B05D07B681B6C43F0F2
:102F480001027B681A64D7F8E43003F00403002B0D
:102F58000BD0D7F8DC3003F00103002B05D07B68D9
:102F68001B6C43F002027B681A64D7F8E43003F064
:102F78000203002B0BD0D7F8DC3003F00103002B41
:102F880005D07B681B6C43F004027B681A64D7F891
:102F9800E43003F00803002B11D0D7F8E03003F039
:102FA8002003002B05D1D7F8DC3003F00103002BF8
:102FB80005D07B681B6C43F008027B681A647B6849
:102FC8001B6C002B00F0EE81D7F8E43003F02003EF
:102FD800002B08D0D7F8E03003F02003002B02D0F4
:102FE800786800F05DFB7B681B685B6903F0400351
:102FF800402B0CBF01230023DBB2C7F8D4307B6819
:103008001B6C03F00803002B03D1D7F8D430002B36
:103018004FD0786800F066FA7B681B685B6903F03C
:103028004003402B41D17B681B681433C7F89C30A0
:10303800D7F89C3053E8003FC7F89830D7F8983055
:1030480023F04003C7F8D0307B681B681433D7F8E7
:10305800D020C7F8A820C7F8A430D7F8A410D7F80C
:10306800A82041E80023C7F8A030D7F8A030002BEB
:10307800D9D17B689B6B002B13D07B689B6B7D4AF7
:103088001A657B689B6B1846FDF726FF0346002BE5
:1030980016D07B689B6B1B6D7A68926B10469847BD
:1030A8000EE0786800F09AF90AE0786800F096F97E
:1030B80006E0786800F092F97B6800221A6471E1F2
:1030C80000BF6FE17B681B6B012B40F04A81D7F88A
:1030D800E43003F01003002B00F04381D7F8E03010
:1030E80003F01003002B00F03C810023BB607B68D9
:1030F8001B681B68BB607B681B685B68BB60BB6840
:103108007B681B685B6903F04003402B40F0B48088
:103118007B689B6B1B685B68A7F8CE30B7F8CE302E
:10312800002B00F041817B689B8DB7F8CE209A4236
:1031380080F03A817B68B7F8CE20DA857B689B6B94
:10314800DB69B3F5807F00F088807B681B680C33EF
:10315800C7F88830D7F8883053E8003FC7F884307C
:10316800D7F8843023F48073C7F8C8307B681B68AD
:103178000C33D7F8C820C7F89420C7F89030D7F890
:103188009010D7F8942041E80023C7F88C30D7F87E
:103198008C30002BD9D17B681B6814337B677B6F1D
:1031A80053E8003F3B673B6F23F00103C7F8C43087
:1031B8007B681B681433D7F8C420C7F88020FB67E6
:1031C800F96FD7F8802041E80023BB67BB6F002B5D
:1031D800E1D17B681B6814333B663B6E53E8003FC4
:1031E800FB65FB6D23F04003C7F8C0307B681B68A4
:1031F8001433D7F8C020FA66BB66B96EFA6E41E898
:1032080000237B667B6E002BE3D17B68202283F84A
:103218003E207B6800221A637B681B680C33FB64C2
:10322800FB6C53E8003FBB64BB6C23F01003C7F88A
:10323800BC307B681B680C33D7F8BC20BA657B654B
:10324800796DBA6D41E800233B653B6D002BE3D1F6
:103258007B689B6B1846FDF7CFFD7B689A8D7B6872
:10326800DB8D9BB2D31A9BB21946786800F0C0F880
:103278009AE000BFB33500087B689A8D7B68DB8DC8
:103288009BB2D31AA7F8BA307B68DB8D9BB2002BB0
:1032980000F08C80B7F8BA30002B00F087807B688C
:1032A8001B680C33BB63BB6B53E8003F7B637B6BD2
:1032B80023F49073C7F8B4307B681B680C33D7F8D5
:1032C800B4207A643B64396C7A6C41E80023FB6370
:1032D800FB6B002BE3D17B681B6814337B627B6A32
:1032E80053E8003F3B623B6A23F00103C7F8B03064
:1032F8007B681B681433D7F8B0203A63FB62F96A1D
:103308003A6B41E80023BB62BB6A002BE3D17B68C0
:10331800202283F83E207B6800221A637B681B68A2
:103328000C333B613B6953E8003FFB60FB6823F0CB
:103338001003C7F8AC307B681B680C33D7F8AC2097
:10334800FA61BB61B969FA6941E800237B617B696D
:10335800002BE3D1B7F8BA301946786800F048F87E
:1033680024E0D7F8E43003F08003002B09D0D7F825
:10337800E03003F08003002B03D0786800F029F9CF
:1033880015E0D7F8E43003F04003002B0FD0D7F84E
:10339800E03003F04003002B09D0786800F068F9AA
:1033A80000BF04E000BF02E000BF00E000BFE83754
:1033B800BD4680BD80B483B000AF786000BF0C37D5
:1033C800BD465DF8047B704780B483B000AF786079
:1033D80000BF0C37BD465DF8047B704780B483B0EE
:1033E80000AF786000BF0C37BD465DF8047B7047BE
:1033F80080B483B000AF78600B467B8000BF0C3789
:10340800BD465DF8047B704780B590B000AFF860AA
:10341800B9603B601346FB7150E0BB6CB3F1FF3FF2
:103428004CD0BB6C002B07D0FDF7B8F802463B68C0
:10343800D21ABB6C9A4241D9FB681B680C33BB6239
:10344800BB6A53E8003F7B627B6A23F4D073FB635B
:10345800FB681B680C33FA6B7A633B63396B7A6BD6
:1034680041E80023FB62FB6A002BE5D1FB681B687F
:1034780014337B617B6953E8003F3B613B6923F070
:103488000103BB63FB681B681433BA6B3A62FB61C8
:10349800F9693A6A41E80023BB61BB69002BE5D1B1
:1034A800FB68202283F83D20FB68202283F83E2019
:1034B800FB68002283F83C2003230FE0FB681B68AD
:1034C8001A68BB681A40BB689A420CBF01230023E4
:1034D800DBB21A46FB799A429FD000231846403740
:1034E800BD4680BD80B495B000AF78607B681B682E
:1034F8000C337B637B6B53E8003F3B633B6B23F4EC
:103508009073FB647B681B680C33FA6C3A64FB634A
:10351800F96B3A6C41E80023BB63BB6B002BE5D128
:103528007B681B6814333B623B6A53E8003FFB61CE
:10353800FB6923F00103BB647B681B681433BA6C16
:10354800FA62BB62B96AFA6A41E800237B627B6A65
:10355800002BE5D17B681B6B012B19D17B681B689D
:103568000C33FB60FB6853E8003FBB60BB6823F08B
:1035780010037B647B681B680C337A6CBA617B61CF
:103588007969BA6941E800233B613B69002BE5D1C1
:103598007B68202283F83E207B6800221A6300BFE4
:1035A8005437BD465DF8047B704780B584B000AFE2
:1035B80078607B689B6BFB60FB680022DA85FB68A0
:1035C8000022DA84F868FFF709FF00BF1037BD460C
:1035D80080BD80B485B000AF78607B6893F83D30DB
:1035E800DBB2212B3DD17B689B68B3F5805F13D19B
:1035F8007B681B69002B0FD17B681B6AFB607B68AB
:103608001B68FA681288C2F308025A607B681B6A52
:103618009A1C7B681A6208E07B681A687B681B6AD8
:10362800581C796808621B7853607B68DB8C9BB2F6
:10363800013B9BB27A681946D184002B0FD17B6875
:103648001B687A681268D26822F08002DA607B68A8
:103658001B687A681268D26842F04002DA60002378
:1036680000E0022318461437BD465DF8047B704716
:1036780080B582B000AF78607B681B687A68126892
:10368800D26822F04002DA607B68202283F83D206D
:103698007868FFF78FFE002318460837BD4680BDBF
:1036A80080B58CB000AF78607B6893F83E30DBB2B1
:1036B800222B40F0AB807B689B68B3F5805F17D105
:1036C8007B681B69002B13D10023FB627B689B6A14
:1036D800BB627B681B685B689BB2C3F308039AB242
:1036E800BB6A1A807B689B6A9A1C7B689A6226E090
:1036F8007B689B6AFB620023BB627B689B68B3F5AF
:10370800805F07D07B689B68002B0AD17B681B69A8
:10371800002B06D17B681B685B68DAB2FB6A1A70FB
:1037280008E07B681B685B68DBB203F07F03DAB2F2
:10373800FB6A1A707B689B6A5A1C7B689A627B6872
:10374800DB8D9BB2013B9BB27A681946D185002B71
:103758005AD17B681B687A681268D26822F0200206
:10376800DA607B681B687A681268D26822F4807213
:10377800DA607B681B687A681268526922F0010275
:103788005A617B68202283F83E207B681B6B012BE3
:1037980035D17B6800221A637B681B680C337B6118
:1037A8007B6953E8003F3B613B6923F010037B6270
:1037B8007B681B680C337A6A3A62FB61F9693A6A7A
:1037C80041E80023BB61BB69002BE5D17B681B681E
:1037D8001B6803F01003102B0AD10023FB607B68E1
:1037E8001B681B68FB607B681B685B68FB60FB6889
:1037F8007B689B8D19467868FFF7FAFD02E07868C8
:10380800FFF7E2FD002302E0002300E00223184650
:103818003037BD4680BD00002DE9F04F91B000AFB4
:1038280078637B6B19687B6B1B681B6923F44052B8
:103838007B6BDB6813430B617B6B9A687B6B1B6943
:103848001A437B6B5B691A437B6BDB691343BB636E
:103858007B6B19687B6B1B68DB6823F4164222F0CC
:103868000C02BB6B1343CB607B6B19687B6B1B68CB
:103878005B6923F440727B6B9B6913434B617B6BE1
:103888001A68BA4B9A4204D07B6B1A68B84B9A42B2
:1038980003D1FEF76DFBF86302E0FEF755FBF86312
:1038A8007B6BDB69B3F5004F40F0A7807B6B1A6830
:1038B800BA62FB6B19464FF000020B461446DB1840
:1038C80044EB04045B1844EB0204E0007861786977
:1038D80040EA53707861DB003B61D7E904345D1836
:1038E80044EB0206284631467B6B5B684FF00004C8
:1038F800DB1844EB04041A462346FCF761FC034634
:103908000C461A469B4BA3FB02235B091E01FB6B6B
:1039180019464FF000020B461446DB1844EB04042A
:103928005B1844EB02044FEAC40B4BEA537B4FEAA3
:10393800C30A53465C4613EB010A44EB020B50469C
:1039480059467B6B5B684FF00004DB1844EB0404BA
:103958001A462346FCF734FC03460C461A46854BA8
:10396800A3FB02135B09642101FB03F3D31ADB00F9
:103978003233804AA2FB03235B095B0003F4F8732C
:103988001E44FB6B19464FF000020B461446DB1829
:1039980044EB04045B1844EB02044FEAC40949EA07
:1039A80053794FEAC30843464C4613EB010844EBEE
:1039B8000209404649467B6B5B684FF00004DB1800
:1039C80044EB04041A462346FCF7FAFB03460C466C
:1039D8001A46684BA3FB02135B09642101FB03F33E
:1039E800D31ADB003233634AA2FB03235B0903F0DB
:1039F80007033344BA6A9360B3E07B6B1B683B618F
:103A0800FB6B19464FF000020B461446DB1844EBDB
:103A180004045B1844EB0204E60046EA5376DD0032
:103A28002B4634465D1844EB0206284631467B6B2C
:103A38005B684FF00004A500FD62FD6A45EA9375D6
:103A4800FD629C00BC62D7E90A23FCF7B9FB034678
:103A58000C461A46474BA3FB02135B091D01FB6B7F
:103A680019464FF000020B461446DB1844EB0404D9
:103A78005B1844EB0204E000F860F86840EA537011
:103A8800F860D800B860D7E9023413EB010844EBBA
:103A98000209404649467B6B5B684FF00004A6006C
:103AA8007E627E6A46EA93767E629C003C62D7E933
:103AB8000823FCF785FB03460C461A462D4BA3FB4F
:103AC80002135B09642101FB03F3D31A1B01323390
:103AD800284AA2FB03135B0903F0F0031D44FB6BA8
:103AE80019464FF000020B461446DB1844EB040459
:103AF8005B1844EB0204E0007860786840EA537091
:103B08007860D800386097E8180013EB010844EB98
:103B18000209404649467B6B5B684FF00004A600EB
:103B2800FE61FE6946EA9376FE619C00BC61D7E9B6
:103B38000623FCF745FB03460C461A460D4BA3FB30
:103B480002135B09642101FB03F3D31A1B0132330F
:103B5800084AA2FB03135B0903F00F032B443A69DD
:103B6800936000BF4437BD46BDE8F08F00100140A8
:103B7800001401401F85EB5180B485B000AFF86098
:103B8800B9607A603B60FB68BA6902FB03F27B6844
:103B980092FBF3F318461437BD465DF8047B704773
:103BA80080B582B000AF3946642301221848FFF778
:103BB800D1F8184B1B685A1C16490A603978164AFE
:103BC800D1543B780A2B1BD1124B1B689AB2642341
:103BD80011490F48FFF72DF80F4800F01FF8002390
:103BE8007B6007E00C4A7B68134400221A707B68EC
:103BF80001337B607B68312BF4DD064B00221A60B1
:103C08000348FFF749F900BF0837BD4680BD00BF2C
:103C1800600400200C020020B402002080B586B0A9
:103C280002AF78607B681B78DBB2692B1AD17B689E
:103C380001331B78DBB26C2B14D17B6802331B7801
:103C4800DBB2652B0ED17B6803331B78DBB2722B9A
:103C580008D17B6804331B78DBB2692B02D100F0F2
:103C6800C5F8BAE07B681B78DBB2672B14D17B6898
:103C780001331B78DBB2652B0ED17B6802331B78CE
:103C8800DBB2722B08D17B6803331B78DBB2692B5C
:103C980002D100F0C5F8A0E07B681B78DBB2732B7B
:103CA8000ED17B6801331B78DBB2612B08D17B68AE
:103CB80002331B78DBB2672B02D100F0E5F88CE009
:103CC8007B681B78DBB2732B0ED17B6801331B78C2
:103CD800DBB26F2B08D17B6802331B78DBB26C2B0D
:103CE80002D100F0B7F878E07B681B78DBB2642B70
:103CF8000ED17B6801331B78DBB2752B08D17B684A
:103D080002331B78DBB2722B02D100F0D7F864E0E3
:103D18007B681B78DBB2682B5FD17B6801331B782B
:103D2800DBB2692B59D17B6802331B78DBB27A2B63
:103D380053D10323FB810023BB81B7F90E307A6886
:103D480013441B78DBB20A2B16D0B7F90C30B7F93D
:103D58000E2079680A441278D1B2224AD154B7F9B0
:103D68000E309BB201339BB2FB81B7F90C309BB28A
:103D780001339BB2BB81E0E7B7F90C30B7F90E20ED
:103D880079680A441278D1B2164AD1540323FB81C8
:103D98000023BB81134800F032FE03461A46124B3B
:103DA8001A60114B1B68184644F6206300930023E1
:103DB80064220021FFF7E0FE02460B4B1A60002345
:103DC800BB6007E0074ABB68134400221A70BB684F
:103DD8000133BB60BB68092BF4DD00BF1037BD465B
:103DE80080BD00BF140200200802002080B400AF8C
:103DF800094B1B68094A1360084B00225A60064B9E
:103E08001B68064A9360054B0022DA6000BFBD4676
:103E18005DF8047B704700BF08020020F80100200D
:103E280080B400AF094B00221A60094B1B68074A8F
:103E38005360064B00229A60054B1B68034AD36007
:103E480000BFBD465DF8047B704700BFF801002045
:103E58000802002080B400AF094B1B68094A1360B0
:103E6800084B00225A60074B00229A60044B1B68DB
:103E7800044AD36000BFBD465DF8047B704700BFAD
:103E880008020020F801002080B400AF094B00228E
:103E98001A60094B1B68074A5360074B1B68054AA1
:103EA8009360044B0022DA6000BFBD465DF8047BD6
:103EB800704700BFF80100200802002080B400AF5E
:103EC800084B00221A60074B00225A60054B00225B
:103ED8009A60044B0022DA6000BFBD465DF8047B9F
:103EE800704700BFF801002080B500AFFCF7F0FA7A
:103EF80000F07EF800F0CEFA00F0ACFA00F0E2F83C
:103F080000F032F900F084F900F0D6F900F04EFA2A
:103F180000F076FA00212D48FEF78EF804212B4890
:103F2800FEF78AF808212948FEF786F80C21274869
:103F3800FEF782F83C212648FEF7ECF93C2125489B
:103F4800FEF7E8F9244B1B68234A1268D26842F04E
:103F58002002DA601D4B1B6842F210725A631B4B39
:103F68001B6842F210729A63184B1B681B4A9268CE
:103F7800DA63164B1B68194AD2681A64144B1B681B
:103F88005B6A1A46164B1A60114B1B681B6803F0D4
:103F98001003102B14BF01230023DBB21A46114B68
:103FA8001A600C4B1B685B6A1A460F4B1A60094B68
:103FB8001B681B6803F01003102B14BF0123002398
:103FC800DBB21A46094B1A60C4E700BF2002002082
:103FD800100400206C02002060040020F80100207A
:103FE8006802002058040020A80400205C04002077
:103FF80080B594B000AF07F12003302200211846A5
:1040080000F026FD07F10C0300221A605A609A603E
:10401800DA601A610023BB60284A284B1B6C43F006
:1040280080531364254B1B6C03F08053BB60BB6843
:1040380000237B60224A224B1B6843F480431360B1
:104048001F4B1B6803F480437B607B6801233B6242
:104058004FF480337B620223BB634FF48003FB631E
:1040680004233B64A8237B640223BB640423FB640E
:1040780007F120031846FDF725FB0346002B01D066
:1040880000F03EFA0F23FB6002233B6100237B61B3
:104098004FF4A053BB614FF48053FB6107F10C034D
:1040A80005211846FDF786FD0346002B01D000F0D8
:1040B80027FA00BF5037BD4680BD00BF0038024018
:1040C8000070004080B584B000AF3B4600221A6003
:1040D8005A609A60DA60214B214A1A601F4B4FF4EC
:1040E80080325A601D4B00229A601C4B00221A61D4
:1040F8001A4B01221A76194B002283F82020174BFD
:104108000022DA62154B174A9A62144B0022DA60D1
:10411800124B0122DA61114B012283F830200F4B38
:1041280001225A610D48FCF745FA0346002B01D0DD
:1041380000F0E6F900233B6001237B600023BB60AD
:104148003B4619460548FCF779FA0346002B01D08F
:1041580000F0D6F900BF1037BD4680BD1C03002013
:10416800002001400100000F80B58CB000AF07F1BE
:104178000C0324220021184600F06AFC3B1D002293
:104188001A605A60214B4FF080421A601F4B002280
:104198005A601E4B00229A601C4B4FF6FF72DA6081
:1041A8001A4B00221A61194B00229A610323FB6003
:1041B80000233B6101237B610023BB610023FB617A
:1041C80000233B6201237B620023BB620023FB6266
:1041D80007F10C0319460D48FDF7F6FF0346002BBF
:1041E80001D000F08DF900237B600023BB603B1DEC
:1041F80019460648FEF754FC0346002B01D000F090
:104208007FF900BF3037BD4680BD00BF10040020D5
:1042180080B58CB000AF07F10C03242200211846AA
:1042280000F016FC3B1D00221A605A60204B214A00
:104238001A601F4B00225A601D4B00229A601C4BCB
:104248004FF6FF72DA601A4B00221A61184B0022EF
:104258009A610323FB6000233B6101237B610023F8
:10426800BB610F23FB6100233B6201237B620023B8
:10427800BB620F23FB6207F10C0319460C48FDF7DC
:10428800A3FF0346002B01D000F03AF900237B601E
:104298000023BB603B1D19460548FEF701FC034699
:1042A800002B01D000F02CF900BF3037BD4680BD8F
:1042B8006C0200200004004080B58AB000AF07F10E
:1042C800200300221A605A603B1D00221A605A60BF
:1042D8009A60DA601A615A619A61324B324A1A60FE
:1042E800304B07225A602F4B00229A602D4B44F620
:1042F8001F62DA602B4B00221A612A4B00229A6156
:104308002848FDF749FE0346002B01D000F0F8F8D5
:1043180000233B6200237B6207F1200319462148F2
:10432800FEF7BEFB0346002B01D000F0E9F860233E
:104338007B600023BB600023FB6000237B613B1D87
:10434800002219461748FEF773F80346002B01D0E0
:1043580000F0D6F83B1D042219461248FEF768F80B
:104368000346002B01D000F0CBF83B1D082219466C
:104378000C48FEF75DF80346002B01D000F0C0F8AA
:104388003B1D0C2219460748FEF752F80346002B3E
:1043980001D000F0B5F8034800F0F2F900BF283763
:1043A800BD4680BD200200200008004080B500AF57
:1043B800114B124A1A60104B4FF4E1325A600E4BFF
:1043C80000229A600C4B0022DA600B4B00221A6123
:1043D800094B0C225A61084B00229A61064B0022B5
:1043E800DA610548FEF7D8FB0346002B01D000F040
:1043F80087F800BF80BD00BF68030020001001409F
:1044080080B500AF114B124A1A60104B4FF4165288
:104418005A600E4B00229A600C4B0022DA600B4B5C
:1044280000221A61094B0C225A61084B00229A613A
:10443800064B0022DA610548FEF7AEFB0346002B67
:1044480001D000F05DF800BF80BD00BF600400200F
:104458000044004080B582B000AF00237B600C4A66
:104468000B4B1B6B43F480031363094B1B6B03F467
:1044780080037B607B68002200213820FCF7D7FB93
:104488003820FCF7F0FB00BF0837BD4680BD00BFF1
:104498000038024080B485B000AF0023FB60174AA3
:1044A800164B1B6B43F080031363144B1B6B03F019
:1044B8008003FB60FB680023BB60104A0F4B1B6B3B
:1044C80043F0010313630D4B1B6B03F00103BB6047
:1044D800BB6800237B60094A084B1B6B43F0080349
:1044E8001363064B1B6B03F008037B607B6800BFFC
:1044F8001437BD465DF8047B704700BF00380240A2
:1045080080B400AF72B6FEE780B483B000AF00237A
:104518007B60104A0F4B5B6C43F4804353640D4B34
:104528005B6C03F480437B607B6800233B60094A33
:10453800084B1B6C43F080531364064B1B6C03F051
:1045480080533B603B6800BF0C37BD465DF8047B79
:10455800704700BF0038024080B58AB000AF78606D
:1045680007F1140300221A605A609A60DA601A612F
:104578007B681B682F4A934257D100233B612E4A20
:104588002D4B5B6C43F4807353642B4B5B6C03F4CF
:1045980080733B613B690023FB60274A264B1B6BFA
:1045A80043F001031363244B1B6B03F00103FB600F
:1045B800FB6801237B610323BB610023FB6107F1D7
:1045C800140319461D48FCF7E3FE1D4B1D4A1A60EB
:1045D8001B4B00225A601A4B00229A60184B00228B
:1045E800DA60174B4FF480621A61154B4FF4006282
:1045F8005A61134B4FF400529A61114B4FF4807279
:10460800DA610F4B00221A620D4B00225A620C48E5
:10461800FCF744FB0346002B01D0FFF771FF7B68D2
:10462800074A9A63064A7B68936300BF2837BD46EA
:1046380080BD00BF00200140003802400000024059
:10464800B00300201064024080B58CB000AF7860E1
:1046580007F11C0300221A605A609A60DA601A6136
:104668007B681B68B3F1804F2CD10023BB61304AB3
:104678002F4B1B6C43F0010313642D4B1B6C03F091
:104688000103BB61BB6900237B61294A284B1B6B73
:1046980043F001031363264B1B6B03F001037B619B
:1046A8007B692223FB6102233B6200237B62002398
:1046B800BB620123FB6207F11C0319461D48FCF786
:1046C80067FE30E07B681B681B4A93422BD10023AE
:1046D8003B61174A164B1B6C43F002031364144BDF
:1046E8001B6C03F002033B613B690023FB60104A2B
:1046F8000F4B1B6B43F0010313630D4B1B6B03F054
:104708000103FB60FB68C023FB6102233B620023BB
:104718007B620023BB620223FB6207F11C0319467C
:104728000448FCF735FE00BF3037BD4680BD00BFEA
:1047380000380240000002400004004080B485B008
:1047480000AF78607B681B680B4A93420DD1002349
:10475800FB600A4A094B1B6C43F004031364074BC4
:104768001B6C03F00403FB60FB6800BF1437BD46F5
:104778005DF8047B704700BF000800400038024025
:1047880080B588B000AF786007F10C0300221A608A
:104798005A609A60DA601A617B681B68124A934211
:1047A8001ED10023BB60114A104B1B6B43F008035A
:1047B80013630E4B1B6B03F00803BB60BB684FF41D
:1047C8007043FB6002233B6100237B610023BB61D4
:1047D8000223FB6107F10C0319460548FCF7D8FDD5
:1047E80000BF2037BD4680BD0008004000380240A9
:1047F800000C024080B58CB000AF786007F11C0354
:1048080000221A605A609A60DA601A617B681B6835
:104818003A4A934235D10023BB61394A384B5B6C25
:1048280043F010035364364B5B6C03F01003BB6119
:10483800BB6900237B61324A314B1B6B43F0010398
:1048480013632F4B1B6B03F001037B617B694FF4F0
:10485800C063FB6102233B6200237B620323BB62CC
:104868000723FB6207F11C0319462648FCF790FD55
:10487800002200212520FCF7DAF92520FCF7F3F9BE
:1048880038E07B681B68204A934233D100233B61A0
:104898001B4A1B4B1B6C43F400331364184B1B6CF3
:1048A80003F400333B613B690023FB60144A144B5B
:1048B8001B6B43F001031363114B1B6B03F00103E4
:1048C800FB60FB680C23FB6102233B6200237B62D5
:1048D8000323BB620723FB6207F11C03194609483F
:1048E800FCF756FD002201212620FCF7A0F926201E
:1048F800FCF7B9F900BF3037BD4680BD0010014054
:1049080000380240000002400044004080B400AF7C
:10491800FEE780B400AFFEE780B400AFFEE780B4E6
:1049280000AFFEE780B400AFFEE780B400AF00BF81
:10493800BD465DF8047B704780B400AF00BFBD463C
:104948005DF8047B704780B400AF00BFBD465DF8DA
:10495800047B704780B500AFFBF70CFE00BF80BD3D
:1049680080B500AF0248FEF797FA00BF80BD00BFD0
:104978006803002080B500AF0248FCF7CFFA00BFFB
:1049880080BD00BFB003002080B400AF064A064BCC
:10499800D3F8883043F47003C2F8883000BFBD46AE
:1049A8005DF8047B704700BF00ED00E0DFF834D00D
:1049B8000D480E490E4A002302E0D458C45004336F
:1049C800C4188C42F9D30B4A0B4C002301E0136046
:1049D8000432A242FBD3FFF7D7FF00F015F8FFF728
:1049E80083FA704700C0012000000020DC0100208D
:1049F8002C4D0008DC010020AC040020FEE70A2250
:104A0800002100F0ADB8000070B50D4E0D4CA41B90
:104A1800A4100025A54209D10B4E0C4C00F0D8F883
:104A2800A41BA4100025A54205D170BD56F8253059
:104A380098470135EEE756F8253098470135F2E7F3
:104A4800244D0008244D0008244D0008284D000876
:104A580002440346934200D1704703F8011BF9E76B
:104A68002DE9F84F8046894692461F468B465D469B
:104A78000A9815F8014B00F089F82044467816F09A
:104A880008060BD12D2C0BD12C7801260BF1020531
:104A980067B1102F14D1302C0AD011E0AB46E6E7ED
:104AA8002B2C04BF2C780BF10205F1E7302C27D111
:104AB8002B7803F0DF03582B4BD16C781027023585
:104AC800002E0CBF6FF000414FF000410022B1FBF7
:104AD800F7FE104607FB1E1CA4F13003092B11D862
:104AE8001C46A7421DDD531C07D0864516D301D1AD
:104AF800A44513DB00FB0740012215F8014BEBE747
:104B08000A27DDE7A4F14103192B01D8373CE8E770
:104B1800A4F16103192B04D8573CE2E74FF0FF32A8
:104B2800EBE7531C08D12223C8F800300846BAF135
:104B3800000F07D1BDE8F88F06B14042BAF1000F67
:104B48000CD022B1013DCAF80050BDE8F88F4D469F
:104B5800F9E73024002FB3D10827B1E7BDE8F88F73
:104B6800084B37B51C68084D236A002B08BF2B4635
:104B7800009313460A4601462046FFF771FF03B02B
:104B880030BD00BF0C00002070000020D0F8EC0001
:104B9800704782B001B901A942B14BB113780B60DB
:104BA8001278101C18BF012002B070471046FBE7AE
:104BB8006FF00100F8E749B1FF2A85BF8A23036037
:104BC8000A704FF0FF3098BF0120704708467047C1
:104BD800F8B500BFF8BC08BC9E467047F8B500BFE2
:084BE800F8BC08BC9E467047B2
:104BF000000610160006101600000000000000005D
:104C00000102030406070809000000000102030472
:104C10004300504F534958002E00002020202020F0
:104C2000202020202828282828202020202020205C
:104C3000202020202020202020202088101010104C
:104C400010101010101010101010100404040404A0
:104C500004040404041010101010101041414141CC
:104C600041410101010101010101010101010101B4
:104C700001010101010110101010101042424242C6
:104C80004242020202020202020202020202020284
:104C900002020202020210101010200000000000A8
:104CA0000000000000000000000000000000000004
:104CB00000000000000000000000000000000000F4
:104CC00000000000000000000000000000000000E4
:104CD00000000000000000000000000000000000D4
:104CE00000000000000000000000000000000000C4
:104CF00000000000000000000000000000000000B4
:104D000000000000000000000000000000000000A3
:0C4D100000000000000000000000000097
:084D1C00DCB4FF7F0100000080
:044D2400AD010008D5
:044D280089010008F5
:104D2C0010000000010000000024F400100000201E
:104D3C000000000000000000000000000000000067
:104D4C000000000000000000000000000000000057
:104D5C000000000000000000000000000000000047
:104D6C000000000000000000000000000000000037
:104D7C000000000000000000000000000000000027
:104D8C000000000000000000000000000000000017
:104D9C0043000000000000000000000000000000C4
:104DAC0000000000000000000000000000000000F7
:104DBC0043000000000000000000000000000000A4
:104DCC0000000000000000000000000000000000D7
:104DDC004300000000000000000000000000000084
:104DEC0000000000000000000000000000000000B7
:104DFC004300000000000000000000000000000064
:104E0C000000000000000000000000000000000096
:104E1C004300000000000000000000000000000043
:104E2C000000000000000000000000000000000076
:104E3C004300000000000000000000000000000023
:104E4C000000000000000000000000000000000056
:104E5C004300000000000000000000000000000003
:104E6C000000000000000000000000000000000036
:104E7C00BF4B00089B4B0008000000001A4C0008B8
:104E8C00184C0008194C0008194C0008194C000863
:104E9C00194C0008194C0008194C0008194C000852
:104EAC00194C0008194C0008FFFFFFFFFFFFFFFF24
:104EBC00FFFFFFFFFFFF0000010041534349490082
:104ECC0000000000000000000000000000000000D6
:104EDC00000000000000000000004153434949005D
:104EEC0000000000000000000000000000000000B6
:0C4EFC00000000000000000000000000AA
:04000005080049B5F1
:00000001FF
