:020000040800F2
:1000000000C00120B52000083D2000084320000862
:10001000492000084F20000855200008000000007B
:100020000000000000000000000000005B2000084D
:1000300069200008000000007720000885200008E3
:1000400005210008052100080521000805210008F8
:1000500005210008052100080521000805210008E8
:1000600005210008052100080521000805210008D8
:1000700005210008052100080521000805210008C8
:1000800005210008052100080521000805210008B8
:1000900005210008052100080521000805210008A8
:1000A0000521000805210008052100080521000898
:1000B0000521000805210008052100080521000888
:1000C0000521000805210008052100080521000878
:1000D0000521000805210008052100080521000868
:1000E0000521000805210008052100080521000858
:1000F0000521000805210008052100080521000848
:100100000521000805210008052100080521000837
:100110000521000805210008052100080521000827
:100120000521000805210008052100080521000817
:100130000521000805210008052100080521000807
:1001400005210008052100080521000805210008F7
:1001500005210008052100080521000805210008E7
:1001600005210008052100080521000805210008D7
:1001700005210008052100080521000800000000F5
:0801800005210008052100081B
:1001880010B5054C237833B9044B13B10448AFF3C9
:1001980000800123237010BD0C0000200000000027
:1001A8006021000808B5034B1BB103490348AFF3AE
:1001B800008008BD00000000100000206021000839
:1001C80053B94AB9002908BF00281CBF4FF0FF31B6
:1001D8004FF0FF3000F07AB9ADF1080C6DE904CEAC
:1001E80000F006F8DDF804E0DDE9022304B070470A
:1001F8002DE9F0478C460D460446089E002B51D148
:100208008A4217466DD9B2FA82FEBEF1000F0BD0B2
:10021800CEF1200C01FA0EF520FA0CFC02FA0EF7CA
:100228004CEA050C00FA0EF44FEA174A250CBCFB01
:10023800FAF81FFA87F90AFB18CC45EA0C4508FBBF
:1002480009F3AB420AD9ED1908F1FF3280F0238196
:10025800AB4240F22081A8F102083D44ED1AA4B255
:10026800B5FBFAF00AFB105544EA054400FB09F90E
:10027800A14509D9E41900F1FF3380F00A81A145AD
:1002880040F2078102383C44A4EB090440EA0840E4
:100298000021002E61D024FA0EF40023346073602C
:1002A800BDE8F0878B4207D9002E54D0002186E89C
:1002B80021000846BDE8F087B3FA83F1002940F031
:1002C8008E80AB4202D3824200F2FA80841A65EB38
:1002D80003050120AC46002E3FD086E81010BDE88B
:1002E800F08712B90127B7FBF2F7B7FA87FEBEF11C
:1002F800000F34D1EB1B3A0C1FFA87FC0121B3FB2A
:10030800F2F8250C02FB183345EA03450CFB08F309
:10031800AB4207D9ED1908F1FF3002D2AB4200F227
:10032800D1808046ED1AA3B2B5FBF2F002FB10555E
:1003380043EA05440CFB00FCA44507D9E41900F185
:10034800FF3302D2A44500F2B8801846A4EB0C048F
:1003580040EA08409DE731463046BDE8F087CEF1D7
:10036800200405FA0EF307FA0EF720FA04F83A0CFF
:1003780025FA04F448EA0308B4FBF2F14FEA1845F9
:1003880002FB11441FFA87FC45EA044501FB0CF304
:10039800AB4200FA0EF409D9ED1901F1FF3080F0F3
:1003A8008A80AB4240F2878002393D44EB1A1FFA3B
:1003B80088F5B3FBF2F002FB103345EA034500FB76
:1003C8000CF3AB4207D9ED1900F1FF386FD2AB42FD
:1003D8006DD902383D44EB1A40EA01418FE7C1F17B
:1003E800200722FA07F88B4005FA01F448EA0303CC
:1003F80020FA07FE4FEA134CFD404EEA040EB5FB07
:10040800FCF94FEA1E440CFB19551FFA83F844EA1D
:10041800054509FB08F4AC4202FA01F200FA01FAB8
:1004280008D9ED1809F1FF3043D2AC4241D9A9F1FE
:1004380002091D442D1B1FFA8EFEB5FBFCF00CFBB8
:1004480010554EEA054400FB08F8A04507D9E41802
:1004580000F1FF3529D2A04527D902381C4440EACB
:100468000940A4EB0804A0FB02894C45C6464D464A
:1004780015D312D056B1BAEB0E0364EB050404FA97
:1004880007F7CB401F43CC40376074600021BDE8BC
:10049800F0871846F8E69046E0E6C245EAD2B8EB9F
:1004A800020E69EB03050138E4E72846D7E7404622
:1004B80091E78146BEE7014678E702383C4445E7C4
:1004C800084608E7A8F102083D442BE7704700BF3B
:1004D80080B500AF0E4A0E4B1B6843F400731360DF
:1004E8000B4A0B4B1B6843F480631360084A084BA4
:1004F8001B6843F480731360032000F02DF90F206C
:1005080000F008F801F012FD0023184680BD00BF76
:10051800003C024080B582B000AF7860124B1A6888
:10052800124B1B7819464FF47A73B3FBF1F3B2FB05
:10053800F3F3184600F037F90346002B01D00123E6
:100548000EE07B680F2B0AD8002279684FF0FF3045
:1005580000F00DF9064A7B681360002300E00123D0
:1005680018460837BD4680BD08000020040000205A
:100578000000002080B400AF064B1B781A46064BDB
:100588001B681344044A136000BFBD465DF8047B32
:10059800704700BF040000202800002080B400AF8E
:1005A800034B1B681846BD465DF8047B704700BFC7
:1005B8002800002080B584B000AF7860FFF7EEFF18
:1005C800B8607B68FB60FB68B3F1FF3F05D0094B5F
:1005D8001B781A46FB681344FB6000BFFFF7DEFF79
:1005E8000246BB68D21AFB689A42F7D300BF10379D
:1005F800BD4680BD0400002080B485B000AF78609F
:100608007B6803F00703FB600C4BDB68BB60BA68D0
:100618004FF6FF031340BB60FB681A02BB68134325
:1006280043F0BF6343F40033BB60044ABB68D36044
:1006380000BF1437BD465DF8047B704700ED00E04D
:1006480080B400AF044BDB681B0A03F007031846AD
:10065800BD465DF8047B704700ED00E080B483B0D0
:1006680000AF03463960FB7197F90730002B0ADBAE
:100678000D4997F907303A68D2B21201D2B20B4449
:1006880083F800230AE00949FB7903F00F03043BD0
:100698003A68D2B21201D2B20B441A7600BF0C37B4
:1006A800BD465DF8047B704700E100E000ED00E026
:1006B80080B489B000AFF860B9607A60FB6803F075
:1006C8000703FB61FB69C3F10703042B28BF04235D
:1006D800BB61FB690433062B02D9FB69033B00E0CD
:1006E80000237B610122BB6902FA03F35A1EBB682F
:1006F8001A407B699A4001217B6901FA03F3591E6C
:100708007B680B40134318462437BD465DF8047BCD
:100718007047000080B582B000AF78607B68013B0D
:10072800B3F1807F01D301230FE00A4A7B68013BC4
:1007380053600F214FF0FF30FFF790FF054B002269
:100748009A60044B07221A60002318460837BD46F2
:1007580080BD00BF10E000E080B582B000AF7860D7
:100768007868FFF749FF00BF0837BD4680BD80B5F0
:1007780086B000AF0346B9607A60FB7300237B61E3
:10078800FFF75EFF78617A68B9687869FFF790FFCC
:10079800024697F90F3011461846FFF75FFF00BF72
:1007A8001837BD4680BD80B582B000AF78607868E4
:1007B800FFF7B0FF034618460837BD4680BD000066
:1007C80080B489B000AF7860396000237B61002372
:1007D8003B610023BB610023FB616BE10122FB69E4
:1007E80002FA03F37B613B681A687B6913403B613B
:1007F8003A697B699A4240F05A813B685B6803F02A
:100808000303012B05D03B685B6803F00303022B4D
:1008180030D17B689B68BB61FB695B00032202FAED
:1008280003F3DB43BA691340BB613B68DA68FB69D1
:100838005B0002FA03F3BA691343BB617B68BA69C8
:100848009A607B685B68BB610122FB6902FA03F36B
:10085800DB43BA691340BB613B685B681B0903F063
:100868000102FB6902FA03F3BA691343BB617B68AF
:10087800BA695A603B685B6803F00303032B17D01F
:100888007B68DB68BB61FB695B00032202FA03F348
:10089800DB43BA691340BB613B689A68FB695B003C
:1008A80002FA03F3BA691343BB617B68BA69DA6079
:1008B8003B685B6803F00303022B23D1FB69DA086A
:1008C8007B68083253F82230BB61FB6903F00703E9
:1008D8009B000F2202FA03F3DB43BA691340BB61A2
:1008E8003B681A69FB6903F007039B0002FA03F3EC
:1008F800BA691343BB61FB69DA087B680832B969D6
:1009080043F822107B681B68BB61FB695B0003220C
:1009180002FA03F3DB43BA691340BB613B685B68C7
:1009280003F00302FB695B0002FA03F3BA6913439D
:10093800BB617B68BA691A603B685B6803F4403343
:10094800002B00F0B4800023FB605F4A5E4B5B6CB9
:1009580043F4804353645C4B5B6C03F48043FB605B
:10096800FB685A4AFB699B08023352F82330BB6183
:10097800FB6903F003039B000F2202FA03F3DB4336
:10098800BA691340BB617B68514A93422BD07B689C
:10099800504A934225D07B684F4A93421FD07B68C8
:1009A8004E4A934219D07B684D4A934213D07B68D4
:1009B8004C4A93420DD07B684B4A934207D07B68E0
:1009C8004A4A934201D107230EE008230CE006238C
:1009D8000AE0052308E0042306E0032304E00223D9
:1009E80002E0012300E00023FA6902F0030292000A
:1009F8009340BA691343BB613449FB699B080233CE
:100A0800BA6941F823203A4B1B68BB613B69DB4359
:100A1800BA691340BB613B685B6803F48033002B01
:100A280003D0BA693B691343BB61314ABB691360A0
:100A38002F4B5B68BB613B69DB43BA691340BB6101
:100A48003B685B6803F40033002B03D0BA693B6949
:100A58001343BB61264ABB695360254B9B68BB6146
:100A68003B69DB43BA691340BB613B685B6803F4CD
:100A78008013002B03D0BA693B691343BB611C4A3E
:100A8800BB6993601A4BDB68BB613B69DB43BA699E
:100A98001340BB613B685B6803F40013002B03D071
:100AA800BA693B691343BB61114ABB69D360FB69EF
:100AB8000133FB61FB690F2B7FF690AE00BF243733
:100AC800BD465DF8047B704700380240003801409D
:100AD800000002400004024000080240000C0240EE
:100AE800001002400014024000180240001C02409E
:100AF800003C014080B586B000AF78607B68002B71
:100B080001D1012364E27B681B6803F00103002B19
:100B180075D0A34B9B6803F00C03042B0CD0A04B9F
:100B28009B6803F00C03082B12D19D4B5B6803F400
:100B38008003B3F5800F0BD1994B1B6803F4003386
:100B4800002B5BD07B685B68002B57D101233FE209
:100B58007B685B68B3F5803F06D1914A904B1B6870
:100B680043F4803313601DE07B685B68B3F5A02F06
:100B78000CD18B4A8A4B1B6843F480231360884A44
:100B8800874B1B6843F4803313600BE0844A844B23
:100B98001B6823F480331360814A814B1B6823F45C
:100BA800802313607B685B68002B13D0FFF7F6FC8B
:100BB800386108E0FFF7F2FC02463B69D31A642B60
:100BC80001D9032304E2764B1B6803F40033002B9E
:100BD800F0D014E0FFF7E2FC386108E0FFF7DEFC34
:100BE80002463B69D31A642B01D90323F0E16C4B0D
:100BF8001B6803F40033002BF0D100E000BF7B68D2
:100C08001B6803F00203002B63D0654B9B6803F05D
:100C18000C03002B0BD0624B9B6803F00C03082BD2
:100C28001CD15F4B5B6803F48003002B16D15C4B2F
:100C38001B6803F00203002B05D07B68DB68012BDF
:100C480001D00123C4E15649554B1B6823F0F80233
:100C58007B681B69DB0013430B603AE07B68DB6849
:100C6800002B20D04F4B01221A60FFF797FC386108
:100C780008E0FFF793FC02463B69D31A022B01D91F
:100C88000323A5E1464B1B6803F00203002BF0D0B9
:100C98004349434B1B6823F0F8027B681B69DB0060
:100CA80013430B6015E03F4B00221A60FFF776FCF8
:100CB800386108E0FFF772FC02463B69D31A022B41
:100CC80001D9032384E1364B1B6803F00203002B90
:100CD800F0D17B681B6803F00803002B30D07B68D9
:100CE8005B69002B16D0304B01221A60FFF756FCC7
:100CF800386108E0FFF752FC02463B69D31A022B21
:100D080001D9032364E1264B5B6F03F00203002B38
:100D1800F0D015E0244B00221A60FFF73FFC386141
:100D280008E0FFF73BFC02463B69D31A022B01D9C6
:100D380003234DE11A4B5B6F03F00203002BF0D144
:100D48007B681B6803F00403002B00F0A0800023DD
:100D5800FB75134B1B6C03F08053002B0FD1002342
:100D6800BB600F4A0E4B1B6C43F0805313640C4B53
:100D78001B6C03F08053BB60BB680123FB750B4BF6
:100D88001B6803F48073002B21D1084A074B1B68AA
:100D980043F480731360FFF701FC386111E000BF72
:100DA8000038024000004742800E47420070004071
:100DB800FFF7F4FB02463B69D31A022B01D9032340
:100DC80006E1854B1B6803F48073002BF0D07B6829
:100DD8009B68012B06D1814A804B1B6F43F00103AE
:100DE80013671CE07B689B68052B0CD17B4A7B4B07
:100DF8001B6F43F004031367784A784B1B6F43F06B
:100E0800010313670BE0754A744B1B6F23F0010352
:100E18001367724A714B1B6F23F0040313677B68D7
:100E28009B68002B15D0FFF7B9FB38610AE0FFF784
:100E3800B5FB02463B69D31A41F28832934201D985
:100E48000323C5E0654B1B6F03F00203002BEED0B4
:100E580014E0FFF7A3FB38610AE0FFF79FFB0246A7
:100E68003B69D31A41F28832934201D90323AFE098
:100E78005A4B1B6F03F00203002BEED1FB7D012BB5
:100E880005D1564A554B1B6C23F0805313647B687D
:100E98009B69002B00F09B80504B9B6803F00C0370
:100EA800082B5CD07B689B69022B41D14C4B0022FC
:100EB8001A60FFF773FB386108E0FFF76FFB024623
:100EC8003B69D31A022B01D9032381E0434B1B68EA
:100ED80003F00073002BF0D140497B68DA697B6826
:100EE8001B6A1A437B685B6A9B011A437B689B6A8F
:100EF8005B08013B1B041A437B68DB6A1B06134330
:100F08004B60374B01221A60FFF748FB386108E055
:100F1800FFF744FB02463B69D31A022B01D903238E
:100F280056E02E4B1B6803F00073002BF0D04EE008
:100F38002B4B00221A60FFF731FB386108E0FFF7FE
:100F48002DFB02463B69D31A022B01D903233FE04C
:100F5800224B1B6803F00073002BF0D137E07B684D
:100F68009B69012B01D1012332E01C4B5B68FB60BC
:100F78007B689B69012B28D0FB6803F480027B689F
:100F8800DB699A4221D1FB6803F03F027B681B6A48
:100F98009A421AD1FA6847F6C07313407A68526ABF
:100FA8009201934211D1FB6803F440327B689B6A3B
:100FB8005B08013B1B049A4207D1FB6803F070628F
:100FC8007B68DB6A1B069A4201D0012300E00023FC
:100FD80018461837BD4680BD0070004000380240F2
:100FE8006000474280B584B000AF786039607B68A4
:100FF800002B01D10123CCE0684B1B6803F00702EA
:101008003B689A420CD2654B3A68D2B21A70634B6D
:101018001B6803F007023B689A4201D00123B8E03D
:101028007B681B6803F00203002B20D07B681B68D9
:1010380003F00403002B05D0594A594B9B6843F42D
:10104800E05393607B681B6803F00803002B05D00E
:10105800534A534B9B6843F4604393605049504B49
:101068009B6823F0F0027B689B6813438B607B6866
:101078001B6803F00103002B44D07B685B68012BDD
:1010880007D1474B1B6803F40033002B19D1012308
:101098007FE07B685B68022B03D07B685B68032B6F
:1010A80007D13F4B1B6803F00073002B09D10123C4
:1010B8006FE03B4B1B6803F00203002B01D10123B7
:1010C80067E03749364B9B6823F003027B685B680F
:1010D80013438B60FFF762FAF8600AE0FFF75EFAE5
:1010E8000246FB68D31A41F28832934201D903239E
:1010F8004FE02B4B9B6803F00C027B685B689B00FE
:101108009A42EBD1254B1B6803F007023B689A42D1
:101118000CD9224B3A68D2B21A70204B1B6803F0E4
:1011280007023B689A4201D0012332E07B681B68C2
:1011380003F00403002B08D01949194B9B6823F4CA
:10114800E0527B68DB6813438B607B681B6803F0A5
:101158000803002B09D01249114B9B6823F4604205
:101168007B681B69DB0013438B6000F021F80146A4
:101178000B4B9B681B0903F00F030A4AD35C21FA47
:1011880003F3094A1360094B1B681846FFF7C2F9B5
:10119800002318461037BD4680BD00BF003C024002
:1011A80000380240782100080800002000000020D4
:1011B8002DE9F04F87B000AF0022FA6000227A6173
:1011C8000022BA6000223A61514A926802F00C0289
:1011D800042A07D0082A08D0002A40F090804D4BF6
:1011E8003B618FE04C4B3B618CE0494A526802F00E
:1011F8003F02FA60464A526802F48002002A23D06D
:10120800434B5B689B094FF0000440F2FF114FF01D
:10121800000203EA010304EA02043F4A02FB04F164
:10122800002202FB03F20A443B49A3FB01015318C5
:101238001946FB684FF000041A462346FEF7C0FF24
:1012480003460C467B614CE0314A526892091146CC
:101258004FF0000240F2FF154FF0000605EA0105C5
:1012680006EA0206294632464FEA421B4BEAD16B90
:101278004FEA411A51465A46AA46B34655465E4673
:101288004D1B62EB060629463246940144EA9164F6
:101298008B015B1A64EB02044FEAC40949EA5379EB
:1012A8004FEAC30843464C4655465E46ED1846EBA2
:1012B80004062B463446A2027A607A6842EA9352C0
:1012C8007A609B023B6097E8180018462146FB6845
:1012D8004FF000041A462346FEF772FF03460C46F9
:1012E8007B610B4B5B681B0C03F0030301335B0052
:1012F800BB607A69BB68B2FBF3F33B6102E0054B64
:101308003B6100BF3B6918461C37BD46BDE8F08FFE
:10131800003802400024F40040787D0180B582B096
:1013280000AF78607B68002B01D1012341E07B6826
:1013380093F83D30DBB2002B06D17B68002283F89E
:101348003C20786800F01AFE7B68022283F83D2072
:101358007B681A687B6804331946104600F0B8F9B0
:101368007B68012283F846207B68012283F83E20AF
:101378007B68012283F83F207B68012283F84020A4
:101388007B68012283F841207B68012283F8422090
:101398007B68012283F843207B68012283F844207C
:1013A8007B68012283F845207B68012283F83D2071
:1013B800002318460837BD4680BD000080B584B0BC
:1013C80000AF786039603B68002B09D17B6893F8DF
:1013D8003E30DBB2012B14BF01230023DBB222E035
:1013E8003B68042B09D17B6893F83F30DBB2012BB3
:1013F80014BF01230023DBB215E03B68082B09D199
:101408007B6893F84030DBB2012B14BF0123002323
:10141800DBB208E07B6893F84130DBB2012B14BFE4
:1014280001230023DBB2002B01D001237CE03B68C1
:10143800002B04D17B68022283F83E2013E03B682E
:10144800042B04D17B68022283F83F200BE03B6821
:10145800082B04D17B68022283F8402003E07B68D4
:10146800022283F841207B681B68012239681846EC
:1014780000F07EFB7B681B682D4A934204D07B6892
:101488001B682C4A934201D1012300E00023002B62
:1014980007D07B681B687A681268526C42F4004275
:1014A8005A647B681B68224A934222D07B681B6877
:1014B800B3F1804F1DD07B681B681F4A934218D038
:1014C8007B681B681D4A934213D07B681B681C4AC3
:1014D80093420ED07B681B68164A934209D07B68FA
:1014E8001B68184A934204D07B681B68164A9342CB
:1014F80011D17B681B689B6803F00703FB60FB68DE
:10150800062B10D07B681B687A681268126842F054
:1015180001021A6007E07B681B687A681268126823
:1015280042F001021A60002318461037BD4680BDFC
:101538000000014000040140000400400008004091
:10154800000C0040004001400018004080B586B003
:1015580000AFF860B9607A600023FB75FB6893F808
:101568003C30012B01D10223AEE0FB68012283F855
:101578003C207B680C2B00F29F8001A252F823F0DC
:10158800BD150008C1160008C1160008C1160008DC
:10159800FD150008C1160008C1160008C11600088C
:1015A8003F160008C1160008C1160008C116000839
:1015B8007F160008FB681B68B968184600F028F910
:1015C800FB681B68FA681268926942F008029A611F
:1015D800FB681B68FA681268926922F004029A6133
:1015E800FB681B68FA6812689169BA6812690A434D
:1015F8009A6164E0FB681B68B968184600F078F9DE
:10160800FB681B68FA681268926942F400629A6182
:10161800FB681B68FA681268926922F480629A6112
:10162800FB681B68FA6812689169BA681269120245
:101638000A439A6143E0FB681B68B968184600F0E2
:10164800CDF9FB681B68FA681268D26942F0080293
:10165800DA61FB681B68FA681268D26922F0040232
:10166800DA61FB681B68FA681268D169BA6812699E
:101678000A43DA6123E0FB681B68B968184600F082
:1016880021FAFB681B68FA681268D26942F40062A2
:10169800DA61FB681B68FA681268D26922F4806212
:1016A800DA61FB681B68FA681268D169BA6812695E
:1016B80012020A43DA6102E00123FB7500BFFB68EE
:1016C800002283F83C20FB7D18461837BD4680BDB4
:1016D80080B485B000AF786039607B681B68FB60B8
:1016E8007B68404A934213D07B68B3F1804F0FD098
:1016F8007B683D4A93420BD07B683C4A934207D0B3
:101708007B683B4A934203D07B683A4A934208D1AC
:10171800FB6823F07003FB603B685B68FA6813435F
:10172800FB607B682F4A93422BD07B68B3F1804FD4
:1017380027D07B682C4A934223D07B682B4A93425C
:101748001FD07B682A4A93421BD07B68294A934260
:1017580017D07B68284A934213D07B68274A934264
:101768000FD07B68264A93420BD07B68254A934268
:1017780007D07B68244A934203D07B68234A93426C
:1017880008D1FB6823F44073FB603B68DB68FA68A8
:101798001343FB60FB6823F080023B685B691343DB
:1017A800FB607B68FA681A603B689A687B68DA6253
:1017B8003B681A687B689A627B680A4A934203D03E
:1017C8007B680C4A934203D13B681A697B681A63A9
:1017D8007B6801225A6100BF1437BD465DF8047B5F
:1017E800704700BF000001400004004000080040AE
:1017F800000C00400004014000400140004401404A
:101808000048014000180040001C00400020004033
:1018180080B487B000AF786039607B681B6A23F0BA
:1018280001027B681A627B681B6A7B617B685B6864
:101838003B617B689B69FB60FB6823F07003FB607E
:10184800FB6823F00303FB603B681B68FA681343DB
:10185800FB607B6923F002037B613B689B687A69C4
:1018680013437B617B68204A934203D07B681F4AFD
:1018780093420CD17B6923F008037B613B68DB68EA
:101888007A6913437B617B6923F004037B617B687E
:10189800154A934203D07B68144A934211D13B699D
:1018A80023F480733B613B6923F400733B613B681D
:1018B8005B693A6913433B613B689B693A69134327
:1018C8003B617B683A695A607B68FA689A613B6851
:1018D8005A687B685A637B687A691A6200BF1C374A
:1018E800BD465DF8047B70470000014000040140DC
:1018F80080B487B000AF786039607B681B6A23F0DA
:1019080010027B681A627B681B6A7B617B685B6874
:101918003B617B689B69FB60FB6823F4E043FB60E9
:10192800FB6823F44073FB603B681B681B02FA6882
:101938001343FB607B6923F020037B613B689B6852
:101948001B017A6913437B617B68224A934203D067
:101958007B68214A93420DD17B6923F080037B6128
:101968003B68DB681B017A6913437B617B6923F061
:1019780040037B617B68174A934203D07B68164A11
:10198800934213D13B6923F480633B613B6923F4A1
:1019980000633B613B685B699B003A6913433B61A9
:1019A8003B689B699B003A6913433B617B683A69D2
:1019B8005A607B68FA689A613B685A687B689A63E0
:1019C8007B687A691A6200BF1C37BD465DF8047BE4
:1019D800704700BF000001400004014080B487B098
:1019E80000AF786039607B681B6A23F480727B687B
:1019F8001A627B681B6A7B617B685B683B617B68FA
:101A0800DB69FB60FB6823F07003FB60FB6823F075
:101A18000303FB603B681B68FA681343FB607B6940
:101A280023F400737B613B689B681B027A6913434C
:101A38007B617B68214A934203D07B68204A9342AA
:101A48000DD17B6923F400637B613B68DB681B0273
:101A58007A6913437B617B6923F480637B617B68CC
:101A6800164A934203D07B68154A934213D13B69C7
:101A780023F480533B613B6923F400533B613B688B
:101A88005B691B013A6913433B613B689B691B0116
:101A98003A6913433B617B683A695A607B68FA6824
:101AA800DA613B685A687B68DA637B687A691A622C
:101AB80000BF1C37BD465DF8047B7047000001403D
:101AC8000004014080B487B000AF786039607B685B
:101AD8001B6A23F480527B681A627B681B6A3B612D
:101AE8007B685B687B617B68DB69FB60FB6823F470
:101AF800E043FB60FB6823F44073FB603B681B68B2
:101B08001B02FA681343FB603B6923F400533B61F3
:101B18003B689B681B033A6913433B617B68124A25
:101B2800934203D07B68114A934209D17B6923F41D
:101B380080437B613B685B699B017A6913437B61E6
:101B48007B687A695A607B68FA68DA613B685A6828
:101B58007B681A647B683A691A6200BF1C37BD4605
:101B68005DF8047B704700BF00000140000401409D
:101B780080B487B000AFF860B9607A60BB6803F0E2
:101B88001F03012202FA03F37B61FB681A6A7B696F
:101B9800DB431A40FB681A62FB681A6ABB6803F0E9
:101BA8001F03796801FA03F31A43FB681A6200BF3E
:101BB8001C37BD465DF8047B7047000080B485B0D3
:101BC80000AF786039607B6893F83C30012B01D115
:101BD80002235AE07B68012283F83C207B680222BA
:101BE80083F83D207B681B685B68FB607B681B682B
:101BF8009B68BB60FB6823F07003FB603B681B6855
:101C0800FA681343FB607B681B68FA685A607B6854
:101C18001B68214A934222D07B681B68B3F1804F2E
:101C28001DD07B681B681D4A934218D07B681B68CF
:101C38001B4A934213D07B681B681A4A93420ED002
:101C48007B681B68184A934209D07B681B68174A4F
:101C5800934204D07B681B68154A93420CD1BB6839
:101C680023F08003BB603B685B68BA681343BB60C2
:101C78007B681B68BA689A607B68012283F83D20FC
:101C88007B68002283F83C20002318461437BD46A1
:101C98005DF8047B704700BF00000140000400406D
:101CA80000080040000C00400004014000400140D2
:101CB8000018004080B582B000AFFEF709FC00F0C4
:101CC80033F800F015F900F099F800211548FFF7EE
:101CD80075FB04211348FFF771FB08211148FFF732
:101CE8006DFB0C210F48FFF769FB00237B6015E0B3
:101CF8000C4B1B687A685A630A4B1B687A689A63AC
:101D0800084B1B687A68DA63064B1B687A681A64A2
:101D18006420FEF74FFC7B6801337B607B68632B94
:101D2800E6DDE2E72C00002080B594B000AF07F1B3
:101D3800200330220021184600F006FA07F10C03B0
:101D480000221A605A609A60DA601A610023BB6048
:101D5800284A284B1B6C43F080531364254B1B6C9B
:101D680003F08053BB60BB6800237B60224A224B90
:101D78001B6843F4804313601F4B1B6803F48043C4
:101D88007B607B6802233B620123FB6210233B6379
:101D98000223BB630023FB6308233B64A8237B6403
:101DA8000223BB640423FB6407F120031846FEF7F3
:101DB800A1FE0346002B01D000F0B4F80F23FB600E
:101DC80002233B6100237B614FF4A053BB614FF4B6
:101DD8008053FB6107F10C0305211846FFF702F950
:101DE8000346002B01D000F09DF800BF5037BD46D8
:101DF80080BD00BF003802400070004080B58AB046
:101E080000AF07F1200300221A605A603B1D002230
:101E18001A605A609A60DA601A615A619A61324BA4
:101E2800324A1A60304B53225A602F4B00229A6074
:101E38002D4B6322DA602C4B00221A612A4B0022B8
:101E48009A612948FFF76AFA0346002B01D000F08F
:101E580069F800233B6200237B6207F120031946DF
:101E68002148FFF7ABFE0346002B01D000F05AF8DB
:101E780060237B600023BB600023FB6000237B6141
:101E88003B1D002219461848FFF760FB0346002B4C
:101E980001D000F047F83B1D042219461248FFF70D
:101EA80055FB0346002B01D000F03CF83B1D0822EF
:101EB80019460D48FFF74AFB0346002B01D000F0F6
:101EC80031F83B1D0C2219460748FFF73FFB034634
:101ED800002B01D000F026F8034800F071F800BF8D
:101EE8002837BD4680BD00BF2C00002000080040F8
:101EF80080B483B000AF00237B60094A084B1B6B9A
:101F080043F008031363064B1B6B03F008037B6065
:101F18007B6800BF0C37BD465DF8047B704700BF87
:101F28000038024080B400AF72B6FEE780B483B0D8
:101F380000AF00237B60104A0F4B5B6C43F4804377
:101F480053640D4B5B6C03F480437B607B68002318
:101F58003B60094A084B1B6C43F080531364064BE3
:101F68001B6C03F080533B603B6800BF0C37BD46D9
:101F78005DF8047B704700BF0038024080B485B02C
:101F880000AF78607B681B680B4A93420DD1002331
:101F9800FB600A4A094B1B6C43F004031364074BAC
:101FA8001B6C03F00403FB60FB6800BF1437BD46DD
:101FB8005DF8047B704700BF00080040003802400D
:101FC80080B588B000AF786007F10C0300221A6072
:101FD8005A609A60DA601A617B681B68124A9342F9
:101FE8001ED10023BB60114A104B1B6B43F0080342
:101FF80013630E4B1B6B03F00803BB60BB684FF405
:102008007043FB6002233B6100237B610023BB61BB
:102018000223FB6107F10C0319460548FEF7D0FBC4
:1020280000BF2037BD4680BD000800400038024090
:10203800000C024080B400AFFEE780B400AFFEE7BA
:1020480080B400AFFEE780B400AFFEE780B400AF15
:10205800FEE780B400AF00BFBD465DF8047B704763
:1020680080B400AF00BFBD465DF8047B704780B404
:1020780000AF00BFBD465DF8047B704780B500AF78
:10208800FEF778FA00BF80BD80B400AF064A064B61
:10209800D3F8883043F47003C2F8883000BFBD46D7
:1020A8005DF8047B704700BF00ED00E0DFF834D036
:1020B8000D480E490E4A002302E0D458C450043398
:1020C800C4188C42F9D30B4A0B4C002301E013606F
:1020D8000432A242FBD3FFF7D7FF00F011F8FFF755
:1020E800E9FD704700C00120000000200C0000201E
:1020F800982100080C00002074000020FEE7000072
:1021080070B50D4E0D4CA41BA4100025A54209D195
:102118000B4E0C4C00F020F8A41BA4100025A5427F
:1021280005D170BD56F8253098470135EEE756F8C9
:10213800253098470135F2E79021000890210008E2
:10214800902100089421000802440346934200D1DC
:10215800704703F8011BF9E7F8B500BFF8BC08BCE5
:102168009E467047F8B500BFF8BC08BC9E4670474D
:10217800000000000000000001020304060708092F
:0821880070E0FF7F0100000080
:04219000AD01000895
:0421940089010008B5
:0C21980010000000010000000024F40012
:04000005080020B51A
:00000001FF
