:020000040800F2
:1000000000C0012085210008F9200008FF20000819
:10001000052100080B210008112100080000000044
:100020000000000000000000000000001721000890
:1000300025210008000000003321000841210008AC
:10004000D5210008D5210008D5210008D5210008B8
:10005000D5210008D5210008D5210008D5210008A8
:10006000D5210008D5210008D5210008D521000898
:10007000D5210008D5210008D5210008D521000888
:10008000D5210008D5210008D5210008D521000878
:10009000D5210008D5210008D5210008D521000868
:1000A000D5210008D5210008D5210008D521000858
:1000B0004D210008D5210008D5210008D5210008D0
:1000C000D5210008D5210008D5210008D521000838
:1000D000D5210008D5210008D5210008D521000828
:1000E000D5210008D5210008D5210008D521000818
:1000F000D5210008D5210008D5210008D521000808
:10010000D5210008D5210008D5210008D5210008F7
:10011000D5210008D5210008D5210008D5210008E7
:10012000D5210008D5210008D5210008D5210008D7
:10013000D5210008D5210008D5210008D5210008C7
:10014000D5210008D5210008D5210008D5210008B7
:10015000D5210008D5210008D5210008D5210008A7
:10016000D5210008D5210008D5210008D521000897
:10017000D5210008D5210008D52100080000000085
:08018000D5210008D52100087B
:1001880010B5054C237833B9044B13B10448AFF3C9
:1001980000800123237010BD0C0000200000000027
:1001A8003022000808B5034B1BB103490348AFF3DD
:1001B800008008BD00000000100000203022000868
:1001C80053B94AB9002908BF00281CBF4FF0FF31B6
:1001D8004FF0FF3000F07AB9ADF1080C6DE904CEAC
:1001E80000F006F8DDF804E0DDE9022304B070470A
:1001F8002DE9F0478C460D460446089E002B51D148
:100208008A4217466DD9B2FA82FEBEF1000F0BD0B2
:10021800CEF1200C01FA0EF520FA0CFC02FA0EF7CA
:100228004CEA050C00FA0EF44FEA174A250CBCFB01
:10023800FAF81FFA87F90AFB18CC45EA0C4508FBBF
:1002480009F3AB420AD9ED1908F1FF3280F0238196
:10025800AB4240F22081A8F102083D44ED1AA4B255
:10026800B5FBFAF00AFB105544EA054400FB09F90E
:10027800A14509D9E41900F1FF3380F00A81A145AD
:1002880040F2078102383C44A4EB090440EA0840E4
:100298000021002E61D024FA0EF40023346073602C
:1002A800BDE8F0878B4207D9002E54D0002186E89C
:1002B80021000846BDE8F087B3FA83F1002940F031
:1002C8008E80AB4202D3824200F2FA80841A65EB38
:1002D80003050120AC46002E3FD086E81010BDE88B
:1002E800F08712B90127B7FBF2F7B7FA87FEBEF11C
:1002F800000F34D1EB1B3A0C1FFA87FC0121B3FB2A
:10030800F2F8250C02FB183345EA03450CFB08F309
:10031800AB4207D9ED1908F1FF3002D2AB4200F227
:10032800D1808046ED1AA3B2B5FBF2F002FB10555E
:1003380043EA05440CFB00FCA44507D9E41900F185
:10034800FF3302D2A44500F2B8801846A4EB0C048F
:1003580040EA08409DE731463046BDE8F087CEF1D7
:10036800200405FA0EF307FA0EF720FA04F83A0CFF
:1003780025FA04F448EA0308B4FBF2F14FEA1845F9
:1003880002FB11441FFA87FC45EA044501FB0CF304
:10039800AB4200FA0EF409D9ED1901F1FF3080F0F3
:1003A8008A80AB4240F2878002393D44EB1A1FFA3B
:1003B80088F5B3FBF2F002FB103345EA034500FB76
:1003C8000CF3AB4207D9ED1900F1FF386FD2AB42FD
:1003D8006DD902383D44EB1A40EA01418FE7C1F17B
:1003E800200722FA07F88B4005FA01F448EA0303CC
:1003F80020FA07FE4FEA134CFD404EEA040EB5FB07
:10040800FCF94FEA1E440CFB19551FFA83F844EA1D
:10041800054509FB08F4AC4202FA01F200FA01FAB8
:1004280008D9ED1809F1FF3043D2AC4241D9A9F1FE
:1004380002091D442D1B1FFA8EFEB5FBFCF00CFBB8
:1004480010554EEA054400FB08F8A04507D9E41802
:1004580000F1FF3529D2A04527D902381C4440EACB
:100468000940A4EB0804A0FB02894C45C6464D464A
:1004780015D312D056B1BAEB0E0364EB050404FA97
:1004880007F7CB401F43CC40376074600021BDE8BC
:10049800F0871846F8E69046E0E6C245EAD2B8EB9F
:1004A800020E69EB03050138E4E72846D7E7404622
:1004B80091E78146BEE7014678E702383C4445E7C4
:1004C800084608E7A8F102083D442BE7704700BF3B
:1004D80080B500AF0E4A0E4B1B6843F400731360DF
:1004E8000B4A0B4B1B6843F480631360084A084BA4
:1004F8001B6843F480731360032000F029F90F2070
:1005080000F008F801F07EFD0023184680BD00BF0A
:10051800003C024080B582B000AF7860124B1A6888
:10052800124B1B7819464FF47A73B3FBF1F3B2FB05
:10053800F3F3184600F041F90346002B01D00123DC
:100548000EE07B680F2B0AD8002279684FF0FF3045
:1005580000F009F9064A7B681360002300E00123D4
:1005680018460837BD4680BD08000020040000205A
:100578000000002080B400AF064B1B781A46064BDB
:100588001B681344044A136000BFBD465DF8047B32
:10059800704700BF040000202800002080B400AF8E
:1005A800034B1B681846BD465DF8047B704700BFC7
:1005B8002800002080B485B000AF78607B6803F025
:1005C8000703FB600C4BDB68BB60BA684FF6FF03A0
:1005D8001340BB60FB681A02BB68134343F0BF6358
:1005E80043F40033BB60044ABB68D36000BF1437D0
:1005F800BD465DF8047B704700ED00E080B400AFB5
:10060800044BDB681B0A03F007031846BD465DF878
:10061800047B704700ED00E080B483B000AF034670
:10062800FB7197F90730002B0BDB094997F9073065
:100638005B09FA7902F01F02012000FA02F241F880
:10064800232000BF0C37BD465DF8047B704700BF10
:1006580000E100E080B483B000AF03463960FB716D
:1006680097F90730002B0ADB0D4997F907303A68EC
:10067800D2B21201D2B20B4483F800230AE009492E
:10068800FB7903F00F03043B3A68D2B21201D2B2ED
:100698000B441A7600BF0C37BD465DF8047B7047E3
:1006A80000E100E000ED00E080B489B000AFF86040
:1006B800B9607A60FB6803F00703FB61FB69C3F16B
:1006C8000703042B28BF0423BB61FB690433062BF3
:1006D80002D9FB69033B00E000237B610122BB696F
:1006E80002FA03F35A1EBB681A407B699A4001213B
:1006F8007B6901FA03F3591E7B680B4013431846C4
:100708002437BD465DF8047B7047000080B582B091
:1007180000AF78607B68013BB3F1807F01D3012390
:100728000FE00A4A7B68013B53600F214FF0FF300E
:10073800FFF790FF054B00229A60044B07221A60CE
:10074800002318460837BD4680BD00BF10E000E012
:1007580080B582B000AF78607868FFF72BFF00BFE4
:100768000837BD4680BD80B586B000AF0346B96086
:100778007A60FB7300237B61FFF740FF78617A683A
:10078800B9687869FFF790FF024697F90F3011466C
:100798001846FFF75FFF00BF1837BD4680BD80B51C
:1007A80082B000AF0346FB7197F907301846FFF790
:1007B80033FF00BF0837BD4680BD80B582B000AFAB
:1007C80078607868FFF7A2FF034618460837BD46E9
:1007D80080BD000080B489B000AF78603960002324
:1007E8007B6100233B610023BB610023FB616BE15C
:1007F8000122FB6902FA03F37B613B681A687B6993
:1008080013403B613A697B699A4240F05A813B68E0
:100818005B6803F00303012B05D03B685B6803F0BA
:100828000303022B30D17B689B68BB61FB695B00CB
:10083800032202FA03F3DB43BA691340BB613B6846
:10084800DA68FB695B0002FA03F3BA691343BB6118
:100858007B68BA699A607B685B68BB610122FB6947
:1008680002FA03F3DB43BA691340BB613B685B6878
:100878001B0903F00102FB6902FA03F3BA69134387
:10088800BB617B68BA695A603B685B6803F0030325
:10089800032B17D07B68DB68BB61FB695B00032215
:1008A80002FA03F3DB43BA691340BB613B689A68F9
:1008B800FB695B0002FA03F3BA691343BB617B6807
:1008C800BA69DA603B685B6803F00303022B23D143
:1008D800FB69DA087B68083253F82230BB61FB6990
:1008E80003F007039B000F2202FA03F3DB43BA6904
:1008F8001340BB613B681A69FB6903F007039B005F
:1009080002FA03F3BA691343BB61FB69DA087B682F
:100918000832B96943F822107B681B68BB61FB6920
:100928005B00032202FA03F3DB43BA691340BB619D
:100938003B685B6803F00302FB695B0002FA03F3A0
:10094800BA691343BB617B68BA691A603B685B6824
:1009580003F44033002B00F0B4800023FB605F4AAF
:100968005E4B5B6C43F4804353645C4B5B6C03F4F9
:100978008043FB60FB685A4AFB699B08023352F8C4
:100988002330BB61FB6903F003039B000F2202FACB
:1009980003F3DB43BA691340BB617B68514A934256
:1009A8002BD07B68504A934225D07B684F4A9342AC
:1009B8001FD07B684E4A934219D07B684D4A9342B8
:1009C80013D07B684C4A93420DD07B684B4A9342C4
:1009D80007D07B684A4A934201D107230EE00823D7
:1009E8000CE006230AE0052308E0042306E00323BD
:1009F80004E0022302E0012300E00023FA6902F088
:100A0800030292009340BA691343BB613449FB69FE
:100A18009B080233BA6941F823203A4B1B68BB6133
:100A28003B69DB43BA691340BB613B685B6803F40D
:100A38008033002B03D0BA693B691343BB61314A49
:100A4800BB6913602F4B5B68BB613B69DB43BA69C9
:100A58001340BB613B685B6803F40033002B03D091
:100A6800BA693B691343BB61264ABB695360254B8E
:100A78009B68BB613B69DB43BA691340BB613B6858
:100A88005B6803F48013002B03D0BA693B691343F6
:100A9800BB611C4ABB6993601A4BDB68BB613B694D
:100AA800DB43BA691340BB613B685B6803F400131E
:100AB800002B03D0BA693B691343BB61114ABB6978
:100AC800D360FB690133FB61FB690F2B7FF690AEA6
:100AD80000BF2437BD465DF8047B704700380240EC
:100AE80000380140000002400004024000080240B3
:100AF800000C02400010024000140240001802409E
:100B0800001C0240003C014080B483B000AF786014
:100B18000B467B8013467B707B78002B03D07A884A
:100B28007B689A6103E07B881A047B689A6100BF3E
:100B38000C37BD465DF8047B704780B485B000AFC4
:100B480078600B467B807B685B69FB607A88FB6812
:100B580013401A04FB68D9437B880B401A437B680F
:100B68009A6100BF1437BD465DF8047B70470000EA
:100B780080B586B000AF78607B68002B01D1012377
:100B880064E27B681B6803F00103002B75D0A34B5C
:100B98009B6803F00C03042B0CD0A04B9B6803F05C
:100BA8000C03082B12D19D4B5B6803F48003B3F54B
:100BB800800F0BD1994B1B6803F40033002B5BD0DB
:100BC8007B685B68002B57D101233FE27B685B6839
:100BD800B3F5803F06D1914A904B1B6843F48033AC
:100BE80013601DE07B685B68B3F5A02F0CD18B4ABE
:100BF8008A4B1B6843F480231360884A874B1B6821
:100C080043F4803313600BE0844A844B1B6823F45D
:100C180080331360814A814B1B6823F4802313605F
:100C28007B685B68002B13D0FFF7B8FC386108E0DD
:100C3800FFF7B4FC02463B69D31A642B01D903239E
:100C480004E2764B1B6803F40033002BF0D014E069
:100C5800FFF7A4FC386108E0FFF7A0FC02463B69F7
:100C6800D31A642B01D90323F0E16C4B1B6803F4FE
:100C78000033002BF0D100E000BF7B681B6803F055
:100C88000203002B63D0654B9B6803F00C03002B19
:100C98000BD0624B9B6803F00C03082B1CD15F4BF5
:100CA8005B6803F48003002B16D15C4B1B6803F0D0
:100CB8000203002B05D07B68DB68012B01D00123E0
:100CC800C4E15649554B1B6823F0F8027B681B6941
:100CD800DB0013430B603AE07B68DB68002B20D015
:100CE8004F4B01221A60FFF759FC386108E0FFF703
:100CF80055FC02463B69D31A022B01D90323A5E10F
:100D0800464B1B6803F00203002BF0D04349434BCA
:100D18001B6823F0F8027B681B69DB0013430B6038
:100D280015E03F4B00221A60FFF738FC386108E0F5
:100D3800FFF734FC02463B69D31A022B01D903237F
:100D480084E1364B1B6803F00203002BF0D17B686B
:100D58001B6803F00803002B30D07B685B69002B0D
:100D680016D0304B01221A60FFF718FC386108E0F2
:100D7800FFF714FC02463B69D31A022B01D903235F
:100D880064E1264B5B6F03F00203002BF0D015E003
:100D9800244B00221A60FFF701FC386108E0FFF7D6
:100DA800FDFB02463B69D31A022B01D903234DE10F
:100DB8001A4B5B6F03F00203002BF0D17B681B68B2
:100DC80003F00403002B00F0A0800023FB75134BF5
:100DD8001B6C03F08053002B0FD10023BB600F4A1C
:100DE8000E4B1B6C43F0805313640C4B1B6C03F0CD
:100DF8008053BB60BB680123FB750B4B1B6803F476
:100E08008073002B21D1084A074B1B6843F4807379
:100E18001360FFF7C3FB386111E000BF00380240E0
:100E280000004742800E474200700040FFF7B6FBC3
:100E380002463B69D31A022B01D9032306E1854BED
:100E48001B6803F48073002BF0D07B689B68012B30
:100E580006D1814A804B1B6F43F0010313671CE0E6
:100E68007B689B68052B0CD17B4A7B4B1B6F43F03F
:100E780004031367784A784B1B6F43F00103136729
:100E88000BE0754A744B1B6F23F001031367724A1A
:100E9800714B1B6F23F0040313677B689B68002B5F
:100EA80015D0FFF77BFB38610AE0FFF777FB0246B6
:100EB8003B69D31A41F28832934201D90323C5E032
:100EC800654B1B6F03F00203002BEED014E0FFF715
:100ED80065FB38610AE0FFF761FB02463B69D31AFC
:100EE80041F28832934201D90323AFE05A4B1B6F7A
:100EF80003F00203002BEED1FB7D012B05D1564AEE
:100F0800554B1B6C23F0805313647B689B69002B43
:100F180000F09B80504B9B6803F00C03082B5CD0BF
:100F28007B689B69022B41D14C4B00221A60FFF76A
:100F380035FB386108E0FFF731FB02463B69D31AFD
:100F4800022B01D9032381E0434B1B6803F0007394
:100F5800002BF0D140497B68DA697B681B6A1A4329
:100F68007B685B6A9B011A437B689B6A5B08013B51
:100F78001B041A437B68DB6A1B0613434B60374B21
:100F880001221A60FFF70AFB386108E0FFF706FB49
:100F980002463B69D31A022B01D9032356E02E4B94
:100FA8001B6803F00073002BF0D04EE02B4B00229F
:100FB8001A60FFF7F3FA386108E0FFF7EFFA024624
:100FC8003B69D31A022B01D903233FE0224B1B684C
:100FD80003F00073002BF0D137E07B689B69012B8D
:100FE80001D1012332E01C4B5B68FB607B689B6985
:100FF800012B28D0FB6803F480027B68DB699A42E6
:1010080021D1FB6803F03F027B681B6A9A421AD120
:10101800FA6847F6C07313407A68526A920193429D
:1010280011D1FB6803F440327B689B6A5B08013B83
:101038001B049A4207D1FB6803F070627B68DB6A85
:101048001B069A4201D0012300E0002318461837F6
:10105800BD4680BD00700040003802406000474235
:1010680080B584B000AF786039607B68002B01D10F
:101078000123CCE0684B1B6803F007023B689A42E7
:101088000CD2654B3A68D2B21A70634B1B6803F0F6
:1010980007023B689A4201D00123B8E07B681B68CD
:1010A80003F00203002B20D07B681B6803F00403C5
:1010B800002B05D0594A594B9B6843F4E053936081
:1010C8007B681B6803F00803002B05D0534A534B79
:1010D8009B6843F4604393605049504B9B6823F0EE
:1010E800F0027B689B6813438B607B681B6803F086
:1010F8000103002B44D07B685B68012B07D1474B69
:101108001B6803F40033002B19D101237FE07B68AF
:101118005B68022B03D07B685B68032B07D13F4BCE
:101128001B6803F00073002B09D101236FE03B4BD0
:101138001B6803F00203002B01D1012367E0374944
:10114800364B9B6823F003027B685B6813438B6014
:10115800FFF724FAF8600AE0FFF720FA0246FB6876
:10116800D31A41F28832934201D903234FE02B4B23
:101178009B6803F00C027B685B689B009A42EBD18A
:10118800254B1B6803F007023B689A420CD9224B97
:101198003A68D2B21A70204B1B6803F007023B680A
:1011A8009A4201D0012332E07B681B6803F00403F4
:1011B800002B08D01949194B9B6823F4E0527B682F
:1011C800DB6813438B607B681B6803F00803002B04
:1011D80009D01249114B9B6823F460427B681B6954
:1011E800DB0013438B6000F021F801460B4B9B6832
:1011F8001B0903F00F030A4AD35C21FA03F3094AD7
:101208001360094B1B681846FFF784F9002318463A
:101218001037BD4680BD00BF003C02400038024088
:101228004822000808000020000000202DE9F04FA7
:1012380087B000AF0022FA6000227A610022BA600B
:1012480000223A61514A926802F00C02042A07D03F
:10125800082A08D0002A40F090804D4B3B618FE06F
:101268004C4B3B618CE0494A526802F03F02FA60FD
:10127800464A526802F48002002A23D0434B5B6836
:101288009B094FF0000440F2FF114FF0000203EAFF
:10129800010304EA02043F4A02FB04F1002202FBB4
:1012A80003F20A443B49A3FB010153181946FB68A2
:1012B8004FF000041A462346FEF782FF03460C4609
:1012C8007B614CE0314A5268920911464FF00002A6
:1012D80040F2FF154FF0000605EA010506EA02068E
:1012E800294632464FEA421B4BEAD16B4FEA411A74
:1012F80051465A46AA46B34655465E464D1B62EBD2
:10130800060629463246940144EA91648B015B1A29
:1013180064EB02044FEAC40949EA53794FEAC30867
:1013280043464C4655465E46ED1846EB04062B46AA
:101338003446A2027A607A6842EA93527A609B0243
:101348003B6097E8180018462146FB684FF00004F8
:101358001A462346FEF734FF03460C467B610B4BC7
:101368005B681B0C03F0030301335B00BB607A6905
:10137800BB68B2FBF3F33B6102E0054B3B6100BF86
:101388003B6918461C37BD46BDE8F08F003802405F
:101398000024F40040787D0180B582B000AF786009
:1013A8007B68002B01D1012341E07B6893F83D3035
:1013B800DBB2002B06D17B68002283F83C207868DA
:1013C80000F048FE7B68022283F83D207B681A689B
:1013D8007B6804331946104600F05CFA7B680122EA
:1013E80083F846207B68012283F83E207B6801222F
:1013F80083F83F207B68012283F840207B68012224
:1014080083F841207B68012283F842207B6801220F
:1014180083F843207B68012283F844207B680122FB
:1014280083F845207B68012283F83D200023184675
:101438000837BD4680BD80B582B000AF78607B6854
:101448001B681B6903F00203022B22D17B681B680F
:10145800DB6803F00203022B1BD17B681B686FF06B
:1014680002021A617B6801221A777B681B689B69F4
:1014780003F00303002B03D0786800F0ECF905E0D3
:10148800786800F0DEF9786800F0EFF97B680022F0
:101498001A777B681B681B6903F00403042B22D1AD
:1014A8007B681B68DB6803F00403042B1BD17B6893
:1014B8001B686FF004021A617B6802221A777B6846
:1014C8001B689B6903F44073002B03D0786800F015
:1014D800C2F905E0786800F0B4F9786800F0C5F959
:1014E8007B6800221A777B681B681B6903F0080376
:1014F800082B22D17B681B68DB6803F00803082BE4
:101508001BD17B681B686FF008021A617B68042294
:101518001A777B681B68DB6903F00303002B03D091
:10152800786800F098F905E0786800F08AF978683A
:1015380000F09BF97B6800221A777B681B681B699F
:1015480003F01003102B22D17B681B68DB6803F0C3
:101558001003102B1BD17B681B686FF010021A61F7
:101568007B6808221A777B681B68DB6903F4407381
:10157800002B03D0786800F06EF905E0786800F079
:1015880060F9786800F071F97B6800221A777B6847
:101598001B681B6903F00103012B0ED17B681B68D4
:1015A800DB6803F00103012B07D17B681B686FF030
:1015B80001021A61786800F0C1FB7B681B681B692F
:1015C80003F08003802B0ED17B681B68DB6803F077
:1015D8008003802B07D17B681B686FF080021A613B
:1015E800786800F0A1FB7B681B681B6903F0400367
:1015F800402B0ED17B681B68DB6803F04003402B4F
:1016080007D17B681B686FF040021A61786800F0A8
:1016180036F97B681B681B6903F02003202B0ED169
:101628007B681B68DB6803F02003202B07D17B68ED
:101638001B686FF020021A61786800F06BFB00BF2E
:101648000837BD4680BD80B584B000AF786039608A
:101658000023FB737B6893F83C30012B01D10223F4
:10166800A9E07B68012283F83C207B68022283F88A
:101678003D207B681B689B68BB60BB6823F07703D1
:10168800BB60BB6823F47F43BB607B681B68BA6898
:101698009A603B681B68402B67D0402B0BD8102BF7
:1016A80073D0102B02D8002B6FD077E0202B6CD092
:1016B800302B6AD072E0702B0DD0702B04D8502BD1
:1016C80033D0602B41D069E0B3F5805F69D0B3F5C2
:1016D800005F17D062E07B6818683B6899683B68D0
:1016E8005A683B68DB6800F079FA7B681B689B687E
:1016F800BB60BB6843F07703BB607B681B68BA6854
:101708009A604FE07B6818683B6899683B685A683C
:101718003B68DB6800F062FA7B681B687A681268CD
:10172800926842F480429A603CE07B6818683B68A3
:1017380059683B68DB681A4600F0D6F97B681B6875
:101748005021184600F02FFA2CE07B6818683B6897
:1017580059683B68DB681A4600F0F5F97B681B6836
:101768006021184600F01FFA1CE07B6818683B6887
:1017780059683B68DB681A4600F0B6F97B681B6855
:101788004021184600F00FFA0CE07B681A683B68A5
:101798001B681946104600F006FA03E00123FB73A4
:1017A80000E000BF7B68012283F83D207B680022AF
:1017B80083F83C20FB7B18461037BD4680BD80B5BA
:1017C80082B000AF786039607B6893F83C30012BB9
:1017D80001D1022331E07B68012283F83C207B6839
:1017E800022283F83D203968786800F0F3F8034650
:1017F800002B09D07B68012283F83D207B680022FA
:1018080083F83C20012318E07B681B687A6812681B
:10181800D26822F04002DA607B681B687A68126836
:10182800D26822F48042DA607B68012283F83D2086
:101838007B68002283F83C20002318460837BD4601
:1018480080BD80B483B000AF786000BF0C37BD4660
:101858005DF8047B704780B483B000AF786000BF48
:101868000C37BD465DF8047B704780B483B000AF89
:10187800786000BF0C37BD465DF8047B704780B4C4
:1018880083B000AF786000BF0C37BD465DF8047BBD
:101898007047000080B485B000AF786039607B681D
:1018A8001B68FB607B68404A934213D07B68B3F1A6
:1018B800804F0FD07B683D4A93420BD07B683C4AEF
:1018C800934207D07B683B4A934203D07B683A4AED
:1018D800934208D1FB6823F07003FB603B685B68A8
:1018E800FA681343FB607B682F4A93422BD07B68CE
:1018F800B3F1804F27D07B682C4A934223D07B6872
:101908002B4A93421FD07B682A4A93421BD07B689C
:10191800294A934217D07B68284A934213D07B68A0
:10192800274A93420FD07B68264A93420BD07B68A4
:10193800254A934207D07B68244A934203D07B68A8
:10194800234A934208D1FB6823F44073FB603B6849
:10195800DB68FA681343FB60FB6823F080023B688E
:101968005B691343FB607B68FA681A603B689A6896
:101978007B68DA623B681A687B689A627B680A4A05
:10198800934203D07B680C4A934203D13B681A699F
:101998007B681A637B6801225A6100BF1437BD4611
:1019A8005DF8047B704700BF000001400004004060
:1019B80000080040000C00400004014000400140C5
:1019C800004401400048014000180040001C00404D
:1019D8000020004080B586B000AF786039600023F1
:1019E800FB757B681B689B683B613B6923F0700350
:1019F8003B613B685B683A6913433B613B6923F091
:101A080007033B613B681B683A6913433B617B688A
:101A18001B683A699A603B685B68302B5ED0302B54
:101A280006D8102B5AD0202B58D0002B56D052E075
:101A3800502B3CD0502B02D8402B0FD04BE0602BC2
:101A48003FD0702B47D17B6818683B68D9683B68E2
:101A58009A683B681B6900F0C1F840E03B681B6866
:101A6800052B01D101233BE07B681B681B6AFB60E7
:101A78007B681B687A681268126A22F001021A628F
:101A88007B681B689B69BB60BB6823F0F003BB6085
:101A98003B681B691B01BA681343BB607B681B6802
:101AA800BA689A617B681B68FA681A6217E07B68F3
:101AB80018683B6899683B681B691A4600F014F877
:101AC8000DE07B6818683B6899683B681B691A4693
:101AD80000F039F803E00123FB7500E000BFFB7D4F
:101AE80018461837BD4680BD80B487B000AFF8608F
:101AF800B9607A60FB681B6A7B61FB681B6A23F02C
:101B08000102FB681A62FB689B693B613B6923F031
:101B1800F0033B617B681B013A6913433B617B69B6
:101B280023F00A037B617A69BB6813437B61FB6816
:101B38003A699A61FB687A691A6200BF1C37BD4628
:101B48005DF8047B704780B487B000AFF860B96077
:101B58007A60FB681B6A23F01002FB681A62FB6854
:101B68009B697B61FB681B6A3B617B6923F470435B
:101B78007B617B681B037A6913437B613B6923F0B4
:101B8800A0033B61BB681B013A6913433B61FB68D7
:101B98007A699A61FB683A691A6200BF1C37BD46C8
:101BA8005DF8047B704780B485B000AF7860396019
:101BB8007B689B68FB60FB6823F07003FB603A68F6
:101BC800FB68134343F00703FB607B68FA689A607D
:101BD80000BF1437BD465DF8047B704780B487B0FA
:101BE80000AFF860B9607A603B60FB689B687B6116
:101BF8007B6923F47F437B613B681A027B681A4345
:101C0800BB6813437A6913437B61FB687A699A60FE
:101C180000BF1C37BD465DF8047B704780B485B0B3
:101C280000AF786039607B6893F83C30012B01D1B4
:101C380002235AE07B68012283F83C207B68022259
:101C480083F83D207B681B685B68FB607B681B68CA
:101C58009B68BB60FB6823F07003FB603B681B68F4
:101C6800FA681343FB607B681B68FA685A607B68F4
:101C78001B68214A934222D07B681B68B3F1804FCE
:101C88001DD07B681B681D4A934218D07B681B686F
:101C98001B4A934213D07B681B681A4A93420ED0A2
:101CA8007B681B68184A934209D07B681B68174AEF
:101CB800934204D07B681B68154A93420CD1BB68D9
:101CC80023F08003BB603B685B68BA681343BB6062
:101CD8007B681B68BA689A607B68012283F83D209C
:101CE8007B68002283F83C20002318461437BD4641
:101CF8005DF8047B704700BF00000140000400400D
:101D080000080040000C0040000401400040014071
:101D18000018004080B483B000AF786000BF0C3773
:101D2800BD465DF8047B704780B483B000AF78602F
:101D380000BF0C37BD465DF8047B704780B582B0A4
:101D480000AF78607B681B68B3F1804F04D14FF413
:101D580080410348FEF7F1FE00BF0837BD4680BD4D
:101D6800000C024080B500AFFEF7B2FB00F030F87F
:101D780000F000F900F096F8124B1B686FF0400273
:101D88001A61104B1B685B6A9AB20F4B1A800D4B95
:101D98001B681B6903F04003402BF2D14FF48041CC
:101DA8000A48FEF7CAFE074B1B68064A1268D26843
:101DB80042F00102DA60034B1B686FF040021A61BF
:101DC800DFE700BF300000202C000020000C02409C
:101DD80080B594B000AF07F12003302200211846E7
:101DE80000F01AFA07F10C0300221A605A609A6090
:101DF800DA601A610023BB60284A284B1B6C43F049
:101E080080531364254B1B6C03F08053BB60BB6885
:101E180000237B60224A224B1B6843F480431360F3
:101E28001F4B1B6803F480437B607B6802233B6283
:101E38000123FB6210233B630223BB630023FB6384
:101E480008233B64A8237B640223BB640423FB644C
:101E580007F120031846FEF78BFE0346002B01D03E
:101E680000F0CCF80F23FB6002233B6100237B6169
:101E78004FF4A053BB614FF48053FB6107F10C038F
:101E880005211846FFF7ECF80346002B01D000F0B7
:101E9800B5F800BF5037BD4680BD00BF00380240CE
:101EA8000070004080B58CB000AF07F1200300221D
:101EB8001A605A609A60DA6007F10C0300221A600F
:101EC8005A609A60DA601A613B1D00221A605A60F3
:101ED800274B4FF080421A60254B4AF20F425A6056
:101EE800234B00229A60224B40F2E732DA60204B03
:101EF80000221A611E4B00229A611D48FFF74CFA16
:101F08000346002B01D000F079F84FF480533B6270
:101F180007F1200319461648FFF795FB0346002BE7
:101F280001D000F06BF80623FB6050233B610023CF
:101F38007B610F23FB6107F10C0319460C48FFF77F
:101F48003EFC0346002B01D000F058F800237B60CC
:101F58000023BB603B1D19460548FFF75FFE03469B
:101F6800002B01D000F04AF800BF3037BD4680BDD5
:101F78003000002080B588B000AF07F10C030022C4
:101F88001A605A609A60DA601A610023BB60194AC5
:101F9800184B1B6B43F001031363164B1B6B03F0C9
:101FA8000103BB60BB6800237B60124A114B1B6BAB
:101FB80043F0080313630F4B1B6B03F008037B60AC
:101FC8007B6800224FF480410B48FEF79DFD4FF4DB
:101FD8008043FB6001233B6100237B610023BB61DD
:101FE80007F10C0319460448FEF7F4FB00BF20373D
:101FF800BD4680BD00380240000C024080B400AFEE
:1020080072B6FEE780B483B000AF00237B60104A4D
:102018000F4B5B6C43F4804353640D4B5B6C03F4D0
:1020280080437B607B6800233B60094A084B1B6C3C
:1020380043F080531364064B1B6C03F080533B60E2
:102048003B6800BF0C37BD465DF8047B704700BF96
:102058000038024080B58AB000AF786007F11403F9
:1020680000221A605A609A60DA601A617B681B68FD
:10207800B3F1804F33D100233B611B4A1A4B1B6CD1
:1020880043F001031364184B1B6C03F001033B611D
:102098003B690023FB60144A134B1B6B43F001039D
:1020A8001363114B1B6B03F00103FB60FB680123F7
:1020B8007B610223BB610023FB6100233B62012398
:1020C8007B6207F1140319460848FEF783FB0022D8
:1020D80000211C20FEF747FB1C20FEF760FB00BF19
:1020E8002837BD4680BD00BF0038024000000240CE
:1020F80080B400AFFEE780B400AFFEE780B400AF65
:10210800FEE780B400AFFEE780B400AFFEE780B41E
:1021180000AF00BFBD465DF8047B704780B400AFD8
:1021280000BFBD465DF8047B704780B400AF00BFB8
:10213800BD465DF8047B704780B500AFFEF71AFA1C
:1021480000BF80BD80B500AF0248FFF774F900BF3B
:1021580080BD00BF3000002080B400AF064A064BA7
:10216800D3F8883043F47003C2F8883000BFBD4606
:102178005DF8047B704700BF00ED00E0DFF834D065
:102188000D480E490E4A002302E0D458C4500433C7
:10219800C4188C42F9D30B4A0B4C002301E013609E
:1021A8000432A242FBD3FFF7D7FF00F011F8FFF784
:1021B800D9FD704700C00120000000200C0000205D
:1021C800682200080C00002078000020FEE70000CC
:1021D80070B50D4E0D4CA41BA4100025A54209D1C5
:1021E8000B4E0C4C00F020F8A41BA4100025A542AF
:1021F80005D170BD56F8253098470135EEE756F8F9
:10220800253098470135F2E760220008602200086F
:10221800602200086422000802440346934200D169
:10222800704703F8011BF9E7F8B500BFF8BC08BC14
:102238009E467047F8B500BFF8BC08BC9E4670477C
:10224800000000000000000001020304060708095E
:08225800A0DFFF7F0100000080
:04226000AD010008C4
:0422640089010008E4
:0C22680010000000010000000024F40041
:040000050800218549
:00000001FF
