:020000040800F2
:1000000000C00120052300088D220008932200086B
:10001000992200089F220008A52200080000000085
:10002000000000000000000000000000AB220008FB
:10003000B922000800000000C7220008D5220008ED
:1000400055230008552300085523000855230008B0
:1000500055230008552300085523000855230008A0
:100060005523000855230008552300085523000890
:100070005523000855230008552300085523000880
:100080005523000855230008552300085523000870
:100090005523000855230008552300085523000860
:1000A0005523000855230008552300085523000850
:1000B0005523000855230008552300085523000840
:1000C0005523000855230008552300085523000830
:1000D0005523000855230008552300085523000820
:1000E0005523000855230008552300085523000810
:1000F0005523000855230008552300085523000800
:1001000055230008552300085523000855230008EF
:1001100055230008552300085523000855230008DF
:1001200055230008552300085523000855230008CF
:1001300055230008552300085523000855230008BF
:1001400055230008552300085523000855230008AF
:10015000552300085523000855230008552300089F
:10016000552300085523000855230008552300088F
:1001700055230008552300085523000800000000FF
:08018000552300085523000877
:1001880010B5054C237833B9044B13B10448AFF3C9
:1001980000800123237010BD0C0000200000000027
:1001A800B023000808B5034B1BB103490348AFF35C
:1001B800008008BD0000000010000020B0230008E7
:1001C80053B94AB9002908BF00281CBF4FF0FF31B6
:1001D8004FF0FF3000F07AB9ADF1080C6DE904CEAC
:1001E80000F006F8DDF804E0DDE9022304B070470A
:1001F8002DE9F0478C460D460446089E002B51D148
:100208008A4217466DD9B2FA82FEBEF1000F0BD0B2
:10021800CEF1200C01FA0EF520FA0CFC02FA0EF7CA
:100228004CEA050C00FA0EF44FEA174A250CBCFB01
:10023800FAF81FFA87F90AFB18CC45EA0C4508FBBF
:1002480009F3AB420AD9ED1908F1FF3280F0238196
:10025800AB4240F22081A8F102083D44ED1AA4B255
:10026800B5FBFAF00AFB105544EA054400FB09F90E
:10027800A14509D9E41900F1FF3380F00A81A145AD
:1002880040F2078102383C44A4EB090440EA0840E4
:100298000021002E61D024FA0EF40023346073602C
:1002A800BDE8F0878B4207D9002E54D0002186E89C
:1002B80021000846BDE8F087B3FA83F1002940F031
:1002C8008E80AB4202D3824200F2FA80841A65EB38
:1002D80003050120AC46002E3FD086E81010BDE88B
:1002E800F08712B90127B7FBF2F7B7FA87FEBEF11C
:1002F800000F34D1EB1B3A0C1FFA87FC0121B3FB2A
:10030800F2F8250C02FB183345EA03450CFB08F309
:10031800AB4207D9ED1908F1FF3002D2AB4200F227
:10032800D1808046ED1AA3B2B5FBF2F002FB10555E
:1003380043EA05440CFB00FCA44507D9E41900F185
:10034800FF3302D2A44500F2B8801846A4EB0C048F
:1003580040EA08409DE731463046BDE8F087CEF1D7
:10036800200405FA0EF307FA0EF720FA04F83A0CFF
:1003780025FA04F448EA0308B4FBF2F14FEA1845F9
:1003880002FB11441FFA87FC45EA044501FB0CF304
:10039800AB4200FA0EF409D9ED1901F1FF3080F0F3
:1003A8008A80AB4240F2878002393D44EB1A1FFA3B
:1003B80088F5B3FBF2F002FB103345EA034500FB76
:1003C8000CF3AB4207D9ED1900F1FF386FD2AB42FD
:1003D8006DD902383D44EB1A40EA01418FE7C1F17B
:1003E800200722FA07F88B4005FA01F448EA0303CC
:1003F80020FA07FE4FEA134CFD404EEA040EB5FB07
:10040800FCF94FEA1E440CFB19551FFA83F844EA1D
:10041800054509FB08F4AC4202FA01F200FA01FAB8
:1004280008D9ED1809F1FF3043D2AC4241D9A9F1FE
:1004380002091D442D1B1FFA8EFEB5FBFCF00CFBB8
:1004480010554EEA054400FB08F8A04507D9E41802
:1004580000F1FF3529D2A04527D902381C4440EACB
:100468000940A4EB0804A0FB02894C45C6464D464A
:1004780015D312D056B1BAEB0E0364EB050404FA97
:1004880007F7CB401F43CC40376074600021BDE8BC
:10049800F0871846F8E69046E0E6C245EAD2B8EB9F
:1004A800020E69EB03050138E4E72846D7E7404622
:1004B80091E78146BEE7014678E702383C4445E7C4
:1004C800084608E7A8F102083D442BE7704700BF3B
:1004D80080B500AF0E4A0E4B1B6843F400731360DF
:1004E8000B4A0B4B1B6843F480631360084A084BA4
:1004F8001B6843F480731360032000F00BF90F208E
:1005080000F008F801F01AFE0023184680BD00BF6D
:10051800003C024080B582B000AF7860124B1A6888
:10052800124B1B7819464FF47A73B3FBF1F3B2FB05
:10053800F3F3184600F015F90346002B01D0012308
:100548000EE07B680F2B0AD8002279684FF0FF3045
:1005580000F0EBF8064A7B681360002300E00123F3
:1005680018460837BD4680BD08000020040000205A
:100578000000002080B400AF064B1B781A46064BDB
:100588001B681344044A136000BFBD465DF8047B32
:10059800704700BF040000202800002080B400AF8E
:1005A800034B1B681846BD465DF8047B704700BFC7
:1005B8002800002080B485B000AF78607B6803F025
:1005C8000703FB600C4BDB68BB60BA684FF6FF03A0
:1005D8001340BB60FB681A02BB68134343F0BF6358
:1005E80043F40033BB60044ABB68D36000BF1437D0
:1005F800BD465DF8047B704700ED00E080B400AFB5
:10060800044BDB681B0A03F007031846BD465DF878
:10061800047B704700ED00E080B483B000AF034670
:100628003960FB7197F90730002B0ADB0D4997F900
:1006380007303A68D2B21201D2B20B4483F80023D1
:100648000AE00949FB7903F00F03043B3A68D2B288
:100658001201D2B20B441A7600BF0C37BD465DF8C2
:10066800047B704700E100E000ED00E080B489B051
:1006780000AFF860B9607A60FB6803F00703FB61BC
:10068800FB69C3F10703042B28BF0423BB61FB6983
:100698000433062B02D9FB69033B00E000237B618E
:1006A8000122BB6902FA03F35A1EBB681A407B6930
:1006B8009A4001217B6901FA03F3591E7B680B40BC
:1006C800134318462437BD465DF8047B7047000085
:1006D80080B582B000AF78607B68013BB3F1807F62
:1006E80001D301230FE00A4A7B68013B53600F21C5
:1006F8004FF0FF30FFF790FF054B00229A60044B44
:1007080007221A60002318460837BD4680BD00BF7F
:1007180010E000E080B582B000AF78607868FFF73D
:1007280049FF00BF0837BD4680BD80B586B000AF21
:100738000346B9607A60FB7300237B61FFF75EFFB5
:1007480078617A68B9687869FFF790FF024697F987
:100758000F3011461846FFF75FFF00BF1837BD4638
:1007680080BD80B582B000AF78607868FFF7B0FFD1
:10077800034618460837BD4680BD000080B489B0DE
:1007880000AF7860396000237B6100233B61002360
:10079800BB610023FB616BE10122FB6902FA03F3F1
:1007A8007B613B681A687B6913403B613A697B69E6
:1007B8009A4240F05A813B685B6803F00303012BBF
:1007C80005D03B685B6803F00303022B30D17B68DC
:1007D8009B68BB61FB695B00032202FA03F3DB43FE
:1007E800BA691340BB613B68DA68FB695B0002FACF
:1007F80003F3BA691343BB617B68BA699A607B6883
:100808005B68BB610122FB6902FA03F3DB43BA6947
:100818001340BB613B685B681B0903F00102FB697D
:1008280002FA03F3BA691343BB617B68BA695A6079
:100838003B685B6803F00303032B17D07B68DB6816
:10084800BB61FB695B00032202FA03F3DB43BA696D
:100858001340BB613B689A68FB695B0002FA03F3CB
:10086800BA691343BB617B68BA69DA603B685B6845
:1008780003F00303022B23D1FB69DA087B680832F3
:1008880053F82230BB61FB6903F007039B000F227A
:1008980002FA03F3DB43BA691340BB613B681A6988
:1008A800FB6903F007039B0002FA03F3BA691343D9
:1008B800BB61FB69DA087B680832B96943F8221022
:1008C8007B681B68BB61FB695B00032202FA03F3C8
:1008D800DB43BA691340BB613B685B6803F0030202
:1008E800FB695B0002FA03F3BA691343BB617B68D7
:1008F800BA691A603B685B6803F44033002B00F068
:10090800B4800023FB605F4A5E4B5B6C43F480431A
:1009180053645C4B5B6C03F48043FB60FB685A4A8E
:10092800FB699B08023352F82330BB61FB6903F073
:1009380003039B000F2202FA03F3DB43BA69134057
:10094800BB617B68514A93422BD07B68504A9342E3
:1009580025D07B684F4A93421FD07B684E4A93420A
:1009680019D07B684D4A934213D07B684C4A934216
:100978000DD07B684B4A934207D07B684A4A934222
:1009880001D107230EE008230CE006230AE0052323
:1009980008E0042306E0032304E0022302E0012325
:1009A80000E00023FA6902F0030292009340BA695A
:1009B8001343BB613449FB699B080233BA6941F8A8
:1009C80023203A4B1B68BB613B69DB43BA69134080
:1009D800BB613B685B6803F48033002B03D0BA69C2
:1009E8003B691343BB61314ABB6913602F4B5B689A
:1009F800BB613B69DB43BA691340BB613B685B6819
:100A080003F40033002B03D0BA693B691343BB617D
:100A1800264ABB695360254B9B68BB613B69DB4336
:100A2800BA691340BB613B685B6803F48013002B11
:100A380003D0BA693B691343BB611C4ABB69936025
:100A48001A4BDB68BB613B69DB43BA691340BB6186
:100A58003B685B6803F40013002B03D0BA693B6959
:100A68001343BB61114ABB69D360FB690133FB6166
:100A7800FB690F2B7FF690AE00BF2437BD465DF8AB
:100A8800047B7047003802400038014000000240F3
:100A98000004024000080240000C0240001002401E
:100AA8000014024000180240001C0240003C0140B3
:100AB80080B586B000AF78607B68002B01D1012338
:100AC80064E27B681B6803F00103002B75D0A34B1D
:100AD8009B6803F00C03042B0CD0A04B9B6803F01D
:100AE8000C03082B12D19D4B5B6803F48003B3F50C
:100AF800800F0BD1994B1B6803F40033002B5BD09C
:100B08007B685B68002B57D101233FE27B685B68F9
:100B1800B3F5803F06D1914A904B1B6843F480336C
:100B280013601DE07B685B68B3F5A02F0CD18B4A7E
:100B38008A4B1B6843F480231360884A874B1B68E1
:100B480043F4803313600BE0844A844B1B6823F41E
:100B580080331360814A814B1B6823F48023136020
:100B68007B685B68002B13D0FFF718FD386108E03D
:100B7800FFF714FD02463B69D31A642B01D90323FE
:100B880004E2764B1B6803F40033002BF0D014E02A
:100B9800FFF704FD386108E0FFF700FD02463B69F6
:100BA800D31A642B01D90323F0E16C4B1B6803F4BF
:100BB8000033002BF0D100E000BF7B681B6803F016
:100BC8000203002B63D0654B9B6803F00C03002BDA
:100BD8000BD0624B9B6803F00C03082B1CD15F4BB6
:100BE8005B6803F48003002B16D15C4B1B6803F091
:100BF8000203002B05D07B68DB68012B01D00123A1
:100C0800C4E15649554B1B6823F0F8027B681B6901
:100C1800DB0013430B603AE07B68DB68002B20D0D5
:100C28004F4B01221A60FFF7B9FC386108E0FFF763
:100C3800B5FC02463B69D31A022B01D90323A5E16F
:100C4800464B1B6803F00203002BF0D04349434B8B
:100C58001B6823F0F8027B681B69DB0013430B60F9
:100C680015E03F4B00221A60FFF798FC386108E056
:100C7800FFF794FC02463B69D31A022B01D90323E0
:100C880084E1364B1B6803F00203002BF0D17B682C
:100C98001B6803F00803002B30D07B685B69002BCE
:100CA80016D0304B01221A60FFF778FC386108E053
:100CB800FFF774FC02463B69D31A022B01D90323C0
:100CC80064E1264B5B6F03F00203002BF0D015E0C4
:100CD800244B00221A60FFF761FC386108E0FFF737
:100CE8005DFC02463B69D31A022B01D903234DE16F
:100CF8001A4B5B6F03F00203002BF0D17B681B6873
:100D080003F00403002B00F0A0800023FB75134BB5
:100D18001B6C03F08053002B0FD10023BB600F4ADC
:100D28000E4B1B6C43F0805313640C4B1B6C03F08D
:100D38008053BB60BB680123FB750B4B1B6803F436
:100D48008073002B21D1084A074B1B6843F480733A
:100D58001360FFF723FC386111E000BF0038024040
:100D680000004742800E474200700040FFF716FC23
:100D780002463B69D31A022B01D9032306E1854BAE
:100D88001B6803F48073002BF0D07B689B68012BF1
:100D980006D1814A804B1B6F43F0010313671CE0A7
:100DA8007B689B68052B0CD17B4A7B4B1B6F43F000
:100DB80004031367784A784B1B6F43F001031367EA
:100DC8000BE0754A744B1B6F23F001031367724ADB
:100DD800714B1B6F23F0040313677B689B68002B20
:100DE80015D0FFF7DBFB38610AE0FFF7D7FB0246B7
:100DF8003B69D31A41F28832934201D90323C5E0F3
:100E0800654B1B6F03F00203002BEED014E0FFF7D5
:100E1800C5FB38610AE0FFF7C1FB02463B69D31AFC
:100E280041F28832934201D90323AFE05A4B1B6F3A
:100E380003F00203002BEED1FB7D012B05D1564AAE
:100E4800554B1B6C23F0805313647B689B69002B04
:100E580000F09B80504B9B6803F00C03082B5CD080
:100E68007B689B69022B41D14C4B00221A60FFF72B
:100E780095FB386108E0FFF791FB02463B69D31AFE
:100E8800022B01D9032381E0434B1B6803F0007355
:100E9800002BF0D140497B68DA697B681B6A1A43EA
:100EA8007B685B6A9B011A437B689B6A5B08013B12
:100EB8001B041A437B68DB6A1B0613434B60374BE2
:100EC80001221A60FFF76AFB386108E0FFF766FB4A
:100ED80002463B69D31A022B01D9032356E02E4B55
:100EE8001B6803F00073002BF0D04EE02B4B002260
:100EF8001A60FFF753FB386108E0FFF74FFB024623
:100F08003B69D31A022B01D903233FE0224B1B680C
:100F180003F00073002BF0D137E07B689B69012B4D
:100F280001D1012332E01C4B5B68FB607B689B6945
:100F3800012B28D0FB6803F480027B68DB699A42A6
:100F480021D1FB6803F03F027B681B6A9A421AD1E1
:100F5800FA6847F6C07313407A68526A920193425E
:100F680011D1FB6803F440327B689B6A5B08013B44
:100F78001B049A4207D1FB6803F070627B68DB6A46
:100F88001B069A4201D0012300E0002318461837B7
:100F9800BD4680BD007000400038024060004742F6
:100FA80080B584B000AF786039607B68002B01D1D0
:100FB8000123CCE0684B1B6803F007023B689A42A8
:100FC8000CD2654B3A68D2B21A70634B1B6803F0B7
:100FD80007023B689A4201D00123B8E07B681B688E
:100FE80003F00203002B20D07B681B6803F0040386
:100FF800002B05D0594A594B9B6843F4E053936042
:101008007B681B6803F00803002B05D0534A534B39
:101018009B6843F4604393605049504B9B6823F0AE
:10102800F0027B689B6813438B607B681B6803F046
:101038000103002B44D07B685B68012B07D1474B29
:101048001B6803F40033002B19D101237FE07B6870
:101058005B68022B03D07B685B68032B07D13F4B8F
:101068001B6803F00073002B09D101236FE03B4B91
:101078001B6803F00203002B01D1012367E0374905
:10108800364B9B6823F003027B685B6813438B60D5
:10109800FFF784FAF8600AE0FFF780FA0246FB6877
:1010A800D31A41F28832934201D903234FE02B4BE4
:1010B8009B6803F00C027B685B689B009A42EBD14B
:1010C800254B1B6803F007023B689A420CD9224B58
:1010D8003A68D2B21A70204B1B6803F007023B68CB
:1010E8009A4201D0012332E07B681B6803F00403B5
:1010F800002B08D01949194B9B6823F4E0527B68F0
:10110800DB6813438B607B681B6803F00803002BC4
:1011180009D01249114B9B6823F460427B681B6914
:10112800DB0013438B6000F021F801460B4B9B68F2
:101138001B0903F00F030A4AD35C21FA03F3094A97
:101148001360094B1B681846FFF7E4F9002318469B
:101158001037BD4680BD00BF003C02400038024049
:10116800C823000808000020000000202DE9F04FE7
:1011780087B000AF0022FA6000227A610022BA60CC
:1011880000223A61514A926802F00C02042A07D000
:10119800082A08D0002A40F090804D4B3B618FE030
:1011A8004C4B3B618CE0494A526802F03F02FA60BE
:1011B800464A526802F48002002A23D0434B5B68F7
:1011C8009B094FF0000440F2FF114FF0000203EAC0
:1011D800010304EA02043F4A02FB04F1002202FB75
:1011E80003F20A443B49A3FB010153181946FB6863
:1011F8004FF000041A462346FEF7E2FF03460C466A
:101208007B614CE0314A5268920911464FF0000266
:1012180040F2FF154FF0000605EA010506EA02064E
:10122800294632464FEA421B4BEAD16B4FEA411A34
:1012380051465A46AA46B34655465E464D1B62EB92
:10124800060629463246940144EA91648B015B1AEA
:1012580064EB02044FEAC40949EA53794FEAC30828
:1012680043464C4655465E46ED1846EB04062B466B
:101278003446A2027A607A6842EA93527A609B0204
:101288003B6097E8180018462146FB684FF00004B9
:101298001A462346FEF794FF03460C467B610B4B28
:1012A8005B681B0C03F0030301335B00BB607A69C6
:1012B800BB68B2FBF3F33B6102E0054B3B6100BF47
:1012C8003B6918461C37BD46BDE8F08F0038024020
:1012D8000024F40040787D0180B582B000AF7860CA
:1012E8007B68002B01D1012341E07B6893F83D30F6
:1012F800DBB2002B06D17B68002283F83C2078689B
:1013080000F044FF7B68022283F83D207B681A685E
:101318007B6804331946104600F0B8F97B6801224F
:1013280083F846207B68012283F83E207B680122EF
:1013380083F83F207B68012283F840207B680122E4
:1013480083F841207B68012283F842207B680122D0
:1013580083F843207B68012283F844207B680122BC
:1013680083F845207B68012283F83D200023184636
:101378000837BD4680BD000080B584B000AF7860F6
:1013880039603B68002B09D17B6893F83E30DBB2AB
:10139800012B14BF01230023DBB222E03B68042B9E
:1013A80009D17B6893F83F30DBB2012B14BF0123CE
:1013B8000023DBB215E03B68082B09D17B6893F862
:1013C8004030DBB2012B14BF01230023DBB208E05D
:1013D8007B6893F84130DBB2012B14BF0123002353
:1013E800DBB2002B01D001237CE03B68002B04D149
:1013F8007B68022283F83E2013E03B68042B04D16B
:101408007B68022283F83F200BE03B68082B04D15D
:101418007B68022283F8402003E07B68022283F87D
:1014280041207B681B6801223968184600F07EFB62
:101438007B681B682D4A934204D07B681B682C4A42
:10144800934201D1012300E00023002B07D07B68E1
:101458001B687A681268526C42F400425A647B68CE
:101468001B68224A934222D07B681B68B3F1804FE5
:101478001DD07B681B681F4A934218D07B681B6885
:101488001D4A934213D07B681B681C4A93420ED0B6
:101498007B681B68164A934209D07B681B68184A08
:1014A800934204D07B681B68164A934211D17B682B
:1014B8001B689B6803F00703FB60FB68062B10D0D2
:1014C8007B681B687A681268126842F001021A6029
:1014D80007E07B681B687A681268126842F00102AC
:1014E8001A60002318461037BD4680BD0000014031
:1014F800000401400004004000080040000C0040C7
:10150800004001400018004080B586B000AFF86088
:10151800B9607A600023FB75FB6893F83C30012BB7
:1015280001D10223AEE0FB68012283F83C207B68EE
:101538000C2B00F29F8001A252F823F079150008C5
:101548007D1600087D1600087D160008B9150008EC
:101558007D1600087D1600087D160008FB1500089A
:101568007D1600087D1600087D1600083B16000849
:10157800FB681B68B968184600F028F9FB681B6807
:10158800FA681268926942F008029A61FB681B685F
:10159800FA681268926922F004029A61FB681B6873
:1015A800FA6812689169BA6812690A439A6164E034
:1015B800FB681B68B968184600F078F9FB681B6877
:1015C800FA681268926942F400629A61FB681B68C3
:1015D800FA681268926922F480629A61FB681B6853
:1015E800FA6812689169BA68126912020A439A6124
:1015F80043E0FB681B68B968184600F0CDF9FB6842
:101608001B68FA681268D26942F00802DA61FB685E
:101618001B68FA681268D26922F00402DA61FB6872
:101628001B68FA681268D169BA6812690A43DA61F4
:1016380023E0FB681B68B968184600F021FAFB68CC
:101648001B68FA681268D26942F40062DA61FB68C2
:101658001B68FA681268D26922F48062DA61FB6852
:101668001B68FA681268D169BA68126912020A43DB
:10167800DA6102E00123FB7500BFFB68002283F8F2
:101688003C20FB7D18461837BD4680BD80B485B028
:1016980000AF786039607B681B68FB607B68404AF4
:1016A800934213D07B68B3F1804F0FD07B683D4ADB
:1016B80093420BD07B683C4A934207D07B683B4AF5
:1016C800934203D07B683A4A934208D1FB6823F0DF
:1016D8007003FB603B685B68FA681343FB607B68D8
:1016E8002F4A93422BD07B68B3F1804F27D07B6879
:1016F8002C4A934223D07B682B4A93421FD07B68A5
:101708002A4A93421BD07B68294A934217D07B68A8
:10171800284A934213D07B68274A93420FD07B68AC
:10172800264A93420BD07B68254A934207D07B68B0
:10173800244A934203D07B68234A934208D1FB682A
:1017480023F44073FB603B68DB68FA681343FB6073
:10175800FB6823F080023B685B691343FB607B688E
:10176800FA681A603B689A687B68DA623B681A68AC
:101778007B689A627B680A4A934203D07B680C4A6A
:10178800934203D13B681A697B681A637B6801221C
:101798005A6100BF1437BD465DF8047B704700BF2F
:1017A800000001400004004000080040000C004018
:1017B800000401400040014000440140004801404D
:1017C80000180040001C00400020004080B487B092
:1017D80000AF786039607B681B6A23F001027B6880
:1017E8001A627B681B6A7B617B685B683B617B680C
:1017F8009B69FB60FB6823F07003FB60FB6823F0C8
:101808000303FB603B681B68FA681343FB607B6952
:1018180023F002037B613B689B687A6913437B6111
:101828007B68204A934203D07B681F4A93420CD1BD
:101838007B6923F008037B613B68DB687A691343A3
:101848007B617B6923F004037B617B68154A9342C3
:1018580003D07B68144A934211D13B6923F4807307
:101868003B613B6923F400733B613B685B693A6900
:1018780013433B613B689B693A6913433B617B684F
:101888003A695A607B68FA689A613B685A687B686B
:101898005A637B687A691A6200BF1C37BD465DF8D7
:1018A800047B7047000001400004014080B487B009
:1018B80000AF786039607B681B6A23F010027B6890
:1018C8001A627B681B6A7B617B685B683B617B682B
:1018D8009B69FB60FB6823F4E043FB60FB6823F42F
:1018E8004073FB603B681B681B02FA681343FB608C
:1018F8007B6923F020037B613B689B681B017A6945
:1019080013437B617B68224A934203D07B68214A58
:1019180093420DD17B6923F080037B613B68DB68D0
:101928001B017A6913437B617B6923F040037B6168
:101938007B68174A934203D07B68164A934213D1B7
:101948003B6923F480633B613B6923F400633B619B
:101958003B685B699B003A6913433B613B689B6941
:101968009B003A6913433B617B683A695A607B681C
:10197800FA689A613B685A687B689A637B687A69F7
:101988001A6200BF1C37BD465DF8047B704700BF74
:10199800000001400004014080B487B000AF7860C7
:1019A80039607B681B6A23F480727B681A627B68E3
:1019B8001B6A7B617B685B683B617B68DB69FB60FA
:1019C800FB6823F07003FB60FB6823F00303FB60F4
:1019D8003B681B68FA681343FB607B6923F4007358
:1019E8007B613B689B681B027A6913437B617B6858
:1019F800214A934203D07B68204A93420DD17B69E8
:101A080023F400637B613B68DB681B027A6913433C
:101A18007B617B6923F480637B617B68164A934210
:101A280003D07B68154A934213D13B6923F4805352
:101A38003B613B6923F400533B613B685B691B01D5
:101A48003A6913433B613B689B691B013A6913433D
:101A58003B617B683A695A607B68FA68DA613B687F
:101A68005A687B68DA637B687A691A6200BF1C3738
:101A7800BD465DF8047B704700000140000401404A
:101A880080B487B000AF786039607B681B6A23F444
:101A980080527B681A627B681B6A3B617B685B6863
:101AA8007B617B68DB69FB60FB6823F4E043FB60D8
:101AB800FB6823F44073FB603B681B681B02FA68F1
:101AC8001343FB603B6923F400533B613B689B680D
:101AD8001B033A6913433B617B68124A934203D064
:101AE8007B68114A934209D17B6923F480437B6167
:101AF8003B685B699B017A6913437B617B687A6900
:101B08005A607B68FA68DA613B685A687B681A64CD
:101B18007B683A691A6200BF1C37BD465DF8047BD2
:101B2800704700BF000001400004014080B487B046
:101B380000AFF860B9607A60BB6803F01F03012248
:101B480002FA03F37B61FB681A6A7B69DB431A407C
:101B5800FB681A62FB681A6ABB6803F01F0379689E
:101B680001FA03F31A43FB681A6200BF1C37BD462B
:101B78005DF8047B7047000080B584B000AF7860E2
:101B880039603B68002B09D17B6893F84230DBB29F
:101B9800012B14BF01230023DBB222E03B68042B96
:101BA80009D17B6893F84330DBB2012B14BF0123C2
:101BB8000023DBB215E03B68082B09D17B6893F85A
:101BC8004430DBB2012B14BF01230023DBB208E051
:101BD8007B6893F84530DBB2012B14BF0123002347
:101BE800DBB2002B01D001236DE03B68002B04D150
:101BF8007B68022283F8422013E03B68042B04D15F
:101C08007B68022283F843200BE03B68082B04D151
:101C18007B68022283F8442003E07B68022283F871
:101C280045207B681B6804223968184600F02CF9A7
:101C38007B681B687A681268526C42F400425A64E6
:101C48007B681B68224A934222D07B681B68B3F1E9
:101C5800804F1DD07B681B681E4A934218D07B6852
:101C68001B681D4A934213D07B681B681B4A93422A
:101C78000ED07B681B681A4A934209D07B681B68A0
:101C8800184A934204D07B681B68174A934211D1C3
:101C98007B681B689B6803F00703FB60FB68062BE7
:101CA80010D07B681B687A681268126842F00102DB
:101CB8001A6007E07B681B687A681268126842F04D
:101CC80001021A60002318461037BD4680BD00BFC8
:101CD800000001400004004000080040000C0040E3
:101CE80000040140004001400018004080B485B065
:101CF80000AF786039607B6893F83C30012B01D1E4
:101D080002235AE07B68012283F83C207B68022288
:101D180083F83D207B681B685B68FB607B681B68F9
:101D28009B68BB60FB6823F07003FB603B681B6823
:101D3800FA681343FB607B681B68FA685A607B6823
:101D48001B68214A934222D07B681B68B3F1804FFD
:101D58001DD07B681B681D4A934218D07B681B689E
:101D68001B4A934213D07B681B681A4A93420ED0D1
:101D78007B681B68184A934209D07B681B68174A1E
:101D8800934204D07B681B68154A93420CD1BB6808
:101D980023F08003BB603B685B68BA681343BB6091
:101DA8007B681B68BA689A607B68012283F83D20CB
:101DB8007B68002283F83C20002318461437BD4670
:101DC8005DF8047B704700BF00000140000400403C
:101DD80000080040000C00400004014000400140A1
:101DE8000018004080B485B000AF786039600023E7
:101DF800FB607B6893F83C30012B01D102233DE066
:101E08007B68012283F83C20FB6823F0FF023B68D3
:101E1800DB681343FB60FB6823F440723B689B68F4
:101E28001343FB60FB6823F480623B685B681343E1
:101E3800FB60FB6823F400623B681B681343FB608C
:101E4800FB6823F480523B681B691343FB60FB6803
:101E580023F400523B685B691343FB60FB6823F47F
:101E680080423B68DB691343FB607B681B68FA6848
:101E78005A647B68002283F83C20002318461437F4
:101E8800BD465DF8047B704780B487B000AFF8604A
:101E9800B9607A60BB6803F01F03042202FA03F3F7
:101EA8007B61FB681A6A7B69DB431A40FB681A622C
:101EB800FB681A6ABB6803F01F03796801FA03F329
:101EC8001A43FB681A6200BF1C37BD465DF8047BE5
:101ED8007047000080B500AFFEF7FAFA00F014F87A
:101EE80000F000F900F07AF800210648FFF744FAFC
:101EF80000210448FFF740FE024B1B6840F276229F
:101F08005A63F9E72C00002080B594B000AF07F1C0
:101F1800200330220021184600F03EFA07F10C0396
:101F280000221A605A609A60DA601A610023BB6066
:101F3800284A284B1B6C43F080531364254B1B6CB9
:101F480003F08053BB60BB6800237B60224A224BAE
:101F58001B6843F4804313601F4B1B6803F48043E2
:101F68007B607B6802233B620123FB6210233B6397
:101F78000223BB630023FB6308233B64A8237B6421
:101F88000223BB640423FB6407F120031846FEF711
:101F98008FFD0346002B01D000F0CCF80F23FB6027
:101FA80002233B6100237B614FF4A053BB614FF4D4
:101FB8008053FB6107F10C0305211846FEF7F0FF7B
:101FC8000346002B01D000F0B5F800BF5037BD46DE
:101FD80080BD00BF003802400070004080B592B05C
:101FE80000AF07F1400300221A605A6007F124038A
:101FF80000221A605A609A60DA601A615A619A611E
:102008003B1D20220021184600F0C6F9334B344A04
:102018001A60324B03225A60304B00229A602F4BD1
:1020280040F21942DA602D4B00221A612B4B002234
:102038005A612A4B00229A612848FFF74DF9034656
:10204800002B01D000F076F800233B6400237B646A
:1020580007F1400319462148FFF748FE0346002BC5
:1020680001D000F067F860237B620023BB62002385
:10207800FB6200233B6300237B630023BB630023D5
:10208800FB6307F12403002219461448FFF73CFAC2
:102098000346002B01D000F04DF800237B6000239D
:1020A800BB600023FB60FA233B6100237B614FF494
:1020B8000053BB6100233B623B1D19460748FFF7ED
:1020C80091FE0346002B01D000F034F8034800F0DD
:1020D8007FF800BF4837BD4680BD00BF2C000020F8
:1020E8000000014080B483B000AF00237B60104A39
:1020F8000F4B1B6B43F0010313630D4B1B6B03F07A
:1021080001037B607B6800233B60094A084B1B6B1B
:1021180043F010031363064B1B6B03F010033B6083
:102128003B6800BF0C37BD465DF8047B704700BFB5
:102138000038024080B400AF72B6FEE780B483B0C6
:1021480000AF00237B60104A0F4B5B6C43F4804365
:1021580053640D4B5B6C03F480437B607B68002306
:102168003B60094A084B1B6C43F080531364064BD1
:102178001B6C03F080533B603B6800BF0C37BD46C7
:102188005DF8047B704700BF0038024080B485B01A
:1021980000AF78607B681B680B4A93420DD100231F
:1021A800FB600A4A094B5B6C43F001035364074B1D
:1021B8005B6C03F00103FB60FB6800BF1437BD468E
:1021C8005DF8047B704700BF000001400038024002
:1021D80080B58AB000AF786007F1140300221A6056
:1021E8005A609A60DA601A617B681B68214A9342D8
:1021F8003CD100233B61204A1F4B1B6B43F001037A
:1022080013631D4B1B6B03F001033B613B69002308
:10221800FB60194A184B1B6B43F010031363164BF2
:102228001B6B03F01003FB60FB6880237B610223B8
:10223800BB610023FB6100233B6201237B6207F142
:10224800140319460D48FEF799FA4FF400737B61A1
:102258000223BB610023FB6100233B6201237B62F5
:1022680007F1140319460648FEF788FA00BF283715
:10227800BD4680BD00000140003802400000024019
:102288000010024080B400AFFEE780B400AFFEE764
:1022980080B400AFFEE780B400AFFEE780B400AFC3
:1022A800FEE780B400AF00BFBD465DF8047B704711
:1022B80080B400AF00BFBD465DF8047B704780B4B2
:1022C80000AF00BFBD465DF8047B704780B500AF26
:1022D800FEF750F900BF80BD80B400AF064A064B38
:1022E800D3F8883043F47003C2F8883000BFBD4685
:1022F8005DF8047B704700BF00ED00E0DFF834D0E4
:102308000D480E490E4A002302E0D458C450043345
:10231800C4188C42F9D30B4A0B4C002301E013601C
:102328000432A242FBD3FFF7D7FF00F011F8FFF702
:10233800D1FD704700C00120000000200C000020E3
:10234800E82300080C00002074000020FEE70000CD
:1023580070B50D4E0D4CA41BA4100025A54209D143
:102368000B4E0C4C00F020F8A41BA4100025A5422D
:1023780005D170BD56F8253098470135EEE756F877
:10238800253098470135F2E7E0230008E0230008EC
:10239800E0230008E423000802440346934200D1E6
:1023A800704703F8011BF9E7F8B500BFF8BC08BC93
:1023B8009E467047F8B500BFF8BC08BC9E467047FB
:1023C80000000000000000000102030406070809DD
:0823D80020DEFF7F0100000080
:0423E000AD01000843
:0423E4008901000863
:0C23E80010000000010000000024F400C0
:0400000508002305C7
:00000001FF
